{
	"Wrapped-tokens/WXZO.sol": {
		"EXZO": {
			"abi": [
				{
					"inputs": [],
					"stateMutability": "nonpayable",
					"type": "constructor"
				},
				{
					"anonymous": false,
					"inputs": [
						{
							"indexed": true,
							"internalType": "address",
							"name": "owner",
							"type": "address"
						},
						{
							"indexed": true,
							"internalType": "address",
							"name": "spender",
							"type": "address"
						},
						{
							"indexed": false,
							"internalType": "uint256",
							"name": "value",
							"type": "uint256"
						}
					],
					"name": "Approval",
					"type": "event"
				},
				{
					"anonymous": false,
					"inputs": [
						{
							"indexed": false,
							"internalType": "uint256",
							"name": "updatingTxAmount",
							"type": "uint256"
						}
					],
					"name": "MaxTxAmountUpdated",
					"type": "event"
				},
				{
					"anonymous": false,
					"inputs": [
						{
							"indexed": false,
							"internalType": "uint256",
							"name": "minTokensBeforeSwap",
							"type": "uint256"
						}
					],
					"name": "MinTokensBeforeSwapUpdated",
					"type": "event"
				},
				{
					"anonymous": false,
					"inputs": [
						{
							"indexed": true,
							"internalType": "address",
							"name": "previousOwner",
							"type": "address"
						},
						{
							"indexed": true,
							"internalType": "address",
							"name": "newOwner",
							"type": "address"
						}
					],
					"name": "OwnershipTransferred",
					"type": "event"
				},
				{
					"anonymous": false,
					"inputs": [
						{
							"indexed": false,
							"internalType": "uint256",
							"name": "tokensSwapped",
							"type": "uint256"
						},
						{
							"indexed": false,
							"internalType": "uint256",
							"name": "ethReceived",
							"type": "uint256"
						},
						{
							"indexed": false,
							"internalType": "uint256",
							"name": "tokensIntoLiquidity",
							"type": "uint256"
						}
					],
					"name": "SwapAndLiquify",
					"type": "event"
				},
				{
					"anonymous": false,
					"inputs": [
						{
							"indexed": false,
							"internalType": "bool",
							"name": "enabled",
							"type": "bool"
						}
					],
					"name": "SwapAndLiquifyEnabledUpdated",
					"type": "event"
				},
				{
					"anonymous": false,
					"inputs": [
						{
							"indexed": false,
							"internalType": "uint256",
							"name": "totalFee",
							"type": "uint256"
						}
					],
					"name": "TaxFeeUpdated",
					"type": "event"
				},
				{
					"anonymous": false,
					"inputs": [
						{
							"indexed": true,
							"internalType": "address",
							"name": "from",
							"type": "address"
						},
						{
							"indexed": true,
							"internalType": "address",
							"name": "to",
							"type": "address"
						},
						{
							"indexed": false,
							"internalType": "uint256",
							"name": "value",
							"type": "uint256"
						}
					],
					"name": "Transfer",
					"type": "event"
				},
				{
					"inputs": [
						{
							"internalType": "address",
							"name": "Account",
							"type": "address"
						},
						{
							"internalType": "bool",
							"name": "status",
							"type": "bool"
						}
					],
					"name": "ExcludeOrIncludeFromFee",
					"outputs": [],
					"stateMutability": "nonpayable",
					"type": "function"
				},
				{
					"inputs": [],
					"name": "MaxSupply",
					"outputs": [
						{
							"internalType": "uint256",
							"name": "",
							"type": "uint256"
						}
					],
					"stateMutability": "view",
					"type": "function"
				},
				{
					"inputs": [
						{
							"internalType": "address",
							"name": "Account",
							"type": "address"
						},
						{
							"internalType": "bool",
							"name": "status",
							"type": "bool"
						}
					],
					"name": "SetAutomaticMarketMaker",
					"outputs": [],
					"stateMutability": "nonpayable",
					"type": "function"
				},
				{
					"inputs": [
						{
							"internalType": "uint256",
							"name": "amount",
							"type": "uint256"
						}
					],
					"name": "_burn",
					"outputs": [],
					"stateMutability": "nonpayable",
					"type": "function"
				},
				{
					"inputs": [],
					"name": "_burnFee",
					"outputs": [
						{
							"internalType": "uint256",
							"name": "",
							"type": "uint256"
						}
					],
					"stateMutability": "view",
					"type": "function"
				},
				{
					"inputs": [],
					"name": "_donationFee",
					"outputs": [
						{
							"internalType": "uint256",
							"name": "",
							"type": "uint256"
						}
					],
					"stateMutability": "view",
					"type": "function"
				},
				{
					"inputs": [],
					"name": "_liquidityFee",
					"outputs": [
						{
							"internalType": "uint256",
							"name": "",
							"type": "uint256"
						}
					],
					"stateMutability": "view",
					"type": "function"
				},
				{
					"inputs": [],
					"name": "_maxTxAmount",
					"outputs": [
						{
							"internalType": "uint256",
							"name": "",
							"type": "uint256"
						}
					],
					"stateMutability": "view",
					"type": "function"
				},
				{
					"inputs": [
						{
							"internalType": "address",
							"name": "account",
							"type": "address"
						},
						{
							"internalType": "uint256",
							"name": "amount",
							"type": "uint256"
						}
					],
					"name": "_mint",
					"outputs": [],
					"stateMutability": "nonpayable",
					"type": "function"
				},
				{
					"inputs": [
						{
							"internalType": "address[]",
							"name": "_address",
							"type": "address[]"
						},
						{
							"internalType": "bool[]",
							"name": "_value",
							"type": "bool[]"
						}
					],
					"name": "addToBlacklist",
					"outputs": [],
					"stateMutability": "nonpayable",
					"type": "function"
				},
				{
					"inputs": [
						{
							"internalType": "address",
							"name": "owner",
							"type": "address"
						},
						{
							"internalType": "address",
							"name": "spender",
							"type": "address"
						}
					],
					"name": "allowance",
					"outputs": [
						{
							"internalType": "uint256",
							"name": "",
							"type": "uint256"
						}
					],
					"stateMutability": "view",
					"type": "function"
				},
				{
					"inputs": [
						{
							"internalType": "address",
							"name": "spender",
							"type": "address"
						},
						{
							"internalType": "uint256",
							"name": "amount",
							"type": "uint256"
						}
					],
					"name": "approve",
					"outputs": [
						{
							"internalType": "bool",
							"name": "",
							"type": "bool"
						}
					],
					"stateMutability": "nonpayable",
					"type": "function"
				},
				{
					"inputs": [
						{
							"internalType": "address",
							"name": "account",
							"type": "address"
						}
					],
					"name": "balanceOf",
					"outputs": [
						{
							"internalType": "uint256",
							"name": "",
							"type": "uint256"
						}
					],
					"stateMutability": "view",
					"type": "function"
				},
				{
					"inputs": [],
					"name": "decimals",
					"outputs": [
						{
							"internalType": "uint8",
							"name": "",
							"type": "uint8"
						}
					],
					"stateMutability": "view",
					"type": "function"
				},
				{
					"inputs": [
						{
							"internalType": "address",
							"name": "spender",
							"type": "address"
						},
						{
							"internalType": "uint256",
							"name": "subtractedValue",
							"type": "uint256"
						}
					],
					"name": "decreaseAllowance",
					"outputs": [
						{
							"internalType": "bool",
							"name": "",
							"type": "bool"
						}
					],
					"stateMutability": "nonpayable",
					"type": "function"
				},
				{
					"inputs": [],
					"name": "donationWallet",
					"outputs": [
						{
							"internalType": "address payable",
							"name": "",
							"type": "address"
						}
					],
					"stateMutability": "view",
					"type": "function"
				},
				{
					"inputs": [
						{
							"internalType": "address",
							"name": "spender",
							"type": "address"
						},
						{
							"internalType": "uint256",
							"name": "addedValue",
							"type": "uint256"
						}
					],
					"name": "increaseAllowance",
					"outputs": [
						{
							"internalType": "bool",
							"name": "",
							"type": "bool"
						}
					],
					"stateMutability": "nonpayable",
					"type": "function"
				},
				{
					"inputs": [
						{
							"internalType": "address",
							"name": "account",
							"type": "address"
						}
					],
					"name": "isAutomaticMarketMaker",
					"outputs": [
						{
							"internalType": "bool",
							"name": "",
							"type": "bool"
						}
					],
					"stateMutability": "view",
					"type": "function"
				},
				{
					"inputs": [
						{
							"internalType": "address",
							"name": "",
							"type": "address"
						}
					],
					"name": "isBlackListed",
					"outputs": [
						{
							"internalType": "bool",
							"name": "",
							"type": "bool"
						}
					],
					"stateMutability": "view",
					"type": "function"
				},
				{
					"inputs": [
						{
							"internalType": "address",
							"name": "Account",
							"type": "address"
						}
					],
					"name": "isExcludedFromFee",
					"outputs": [
						{
							"internalType": "bool",
							"name": "",
							"type": "bool"
						}
					],
					"stateMutability": "view",
					"type": "function"
				},
				{
					"inputs": [],
					"name": "name",
					"outputs": [
						{
							"internalType": "string",
							"name": "",
							"type": "string"
						}
					],
					"stateMutability": "view",
					"type": "function"
				},
				{
					"inputs": [],
					"name": "owner",
					"outputs": [
						{
							"internalType": "address",
							"name": "",
							"type": "address"
						}
					],
					"stateMutability": "view",
					"type": "function"
				},
				{
					"inputs": [],
					"name": "renounceOwnership",
					"outputs": [],
					"stateMutability": "nonpayable",
					"type": "function"
				},
				{
					"inputs": [
						{
							"internalType": "address payable",
							"name": "_donationWallet",
							"type": "address"
						}
					],
					"name": "setDonationWallet",
					"outputs": [],
					"stateMutability": "nonpayable",
					"type": "function"
				},
				{
					"inputs": [
						{
							"internalType": "uint256",
							"name": "maxTxPercentage",
							"type": "uint256"
						}
					],
					"name": "setMaxTxPercentage",
					"outputs": [],
					"stateMutability": "nonpayable",
					"type": "function"
				},
				{
					"inputs": [],
					"name": "symbol",
					"outputs": [
						{
							"internalType": "string",
							"name": "",
							"type": "string"
						}
					],
					"stateMutability": "view",
					"type": "function"
				},
				{
					"inputs": [],
					"name": "totalSupply",
					"outputs": [
						{
							"internalType": "uint256",
							"name": "",
							"type": "uint256"
						}
					],
					"stateMutability": "view",
					"type": "function"
				},
				{
					"inputs": [
						{
							"internalType": "address",
							"name": "recipient",
							"type": "address"
						},
						{
							"internalType": "uint256",
							"name": "amount",
							"type": "uint256"
						}
					],
					"name": "transfer",
					"outputs": [
						{
							"internalType": "bool",
							"name": "",
							"type": "bool"
						}
					],
					"stateMutability": "nonpayable",
					"type": "function"
				},
				{
					"inputs": [
						{
							"internalType": "address",
							"name": "from",
							"type": "address"
						},
						{
							"internalType": "address",
							"name": "to",
							"type": "address"
						},
						{
							"internalType": "uint256",
							"name": "value",
							"type": "uint256"
						}
					],
					"name": "transferFrom",
					"outputs": [
						{
							"internalType": "bool",
							"name": "",
							"type": "bool"
						}
					],
					"stateMutability": "nonpayable",
					"type": "function"
				},
				{
					"inputs": [
						{
							"internalType": "address",
							"name": "newOwner",
							"type": "address"
						}
					],
					"name": "transferOwnership",
					"outputs": [],
					"stateMutability": "nonpayable",
					"type": "function"
				},
				{
					"inputs": [],
					"name": "uniswapV2Pair",
					"outputs": [
						{
							"internalType": "address",
							"name": "",
							"type": "address"
						}
					],
					"stateMutability": "view",
					"type": "function"
				},
				{
					"inputs": [],
					"name": "uniswapV2Router",
					"outputs": [
						{
							"internalType": "contract IUniswapV2Router02",
							"name": "",
							"type": "address"
						}
					],
					"stateMutability": "view",
					"type": "function"
				},
				{
					"inputs": [
						{
							"internalType": "uint256",
							"name": "liquidityFee",
							"type": "uint256"
						},
						{
							"internalType": "uint256",
							"name": "burnFee",
							"type": "uint256"
						},
						{
							"internalType": "uint256",
							"name": "donationFee",
							"type": "uint256"
						}
					],
					"name": "updateFees",
					"outputs": [],
					"stateMutability": "nonpayable",
					"type": "function"
				}
			],
			"devdoc": {
				"events": {
					"Approval(address,address,uint256)": {
						"details": "Emitted when the allowance of a `spender` for an `owner` is set by a call to {approve}. `value` is the new allowance."
					},
					"Transfer(address,address,uint256)": {
						"details": "Emitted when `value` tokens are moved from one account (`from`) to another (`to`). Note that `value` may be zero."
					}
				},
				"kind": "dev",
				"methods": {
					"allowance(address,address)": {
						"details": "Returns the remaining number of tokens that `spender` will be allowed to spend on behalf of `owner` through {transferFrom}. This is zero by default. This value changes when {approve} or {transferFrom} are called."
					},
					"approve(address,uint256)": {
						"details": "Sets `amount` as the allowance of `spender` over the caller's tokens. Returns a boolean value indicating whether the operation succeeded. IMPORTANT: Beware that changing an allowance with this method brings the risk that someone may use both the old and the new allowance by unfortunate transaction ordering. One possible solution to mitigate this race condition is to first reduce the spender's allowance to 0 and set the desired value afterwards: https://github.com/ethereum/EIPs/issues/20#issuecomment-263524729 Emits an {Approval} event."
					},
					"balanceOf(address)": {
						"details": "Returns the amount of tokens owned by `account`."
					},
					"decimals()": {
						"details": "Returns the decimals places of the token."
					},
					"name()": {
						"details": "Returns the name of the token."
					},
					"owner()": {
						"details": "Returns the address of the current owner."
					},
					"renounceOwnership()": {
						"details": "Leaves the contract without owner. It will not be possible to call `onlyOwner` functions anymore. Can only be called by the current owner. NOTE: Renouncing ownership will leave the contract without an owner, thereby removing any functionality that is only available to the owner."
					},
					"symbol()": {
						"details": "Returns the symbol of the token."
					},
					"totalSupply()": {
						"details": "Returns the amount of tokens in existence."
					},
					"transfer(address,uint256)": {
						"details": "Moves `amount` tokens from the caller's account to `recipient`. Returns a boolean value indicating whether the operation succeeded. Emits a {Transfer} event."
					},
					"transferOwnership(address)": {
						"details": "Transfers ownership of the contract to a new account (`newOwner`). Can only be called by the current owner."
					}
				},
				"stateVariables": {
					"uniswapV2Router": {
						"details": "Sets the values for {name}, {symbol} and {decimals}. All two of these values are immutable: they can only be set once during construction."
					}
				},
				"version": 1
			},
			"evm": {
				"assembly": "    /* \"Wrapped-tokens/WXZO.sol\":20489:31032  contract EXZO is Context, IERC20, IERC20Metadata, Ownable {... */\n  mstore(0x40, 0x80)\n    /* \"Wrapped-tokens/WXZO.sol\":20881:20972  address payable public donationWallet = payable(0x1816687A332A3d0583Ea06f725E90Dd724b0AFf7) */\n  0x08\n  dup1\n  sload\n  not(sub(shl(0xa0, 0x01), 0x01))\n  and\n    /* \"Wrapped-tokens/WXZO.sol\":20929:20971  0x1816687A332A3d0583Ea06f725E90Dd724b0AFf7 */\n  0x1816687a332a3d0583ea06f725e90dd724b0aff7\n    /* \"Wrapped-tokens/WXZO.sol\":20881:20972  address payable public donationWallet = payable(0x1816687A332A3d0583Ea06f725E90Dd724b0AFf7) */\n  or\n  swap1\n  sstore\n    /* \"Wrapped-tokens/WXZO.sol\":21158:21159  3 */\n  0x03\n    /* \"Wrapped-tokens/WXZO.sol\":21127:21159  uint256 public _liquidityFee = 3 */\n  0x0e\n  sstore\n    /* \"Wrapped-tokens/WXZO.sol\":21195:21197  15 */\n  0x0f\n    /* \"Wrapped-tokens/WXZO.sol\":21165:21197  uint256 public _donationFee = 15 */\n  dup1\n  sstore\n    /* \"Wrapped-tokens/WXZO.sol\":21229:21230  2 */\n  0x02\n    /* \"Wrapped-tokens/WXZO.sol\":21203:21230  uint256 public _burnFee = 2 */\n  0x10\n  sstore\n    /* \"Wrapped-tokens/WXZO.sol\":21529:21548  10 * 10**6 * 10**18 */\n  0x084595161401484a000000\n    /* \"Wrapped-tokens/WXZO.sol\":21499:21548  uint256 public _maxTxAmount = 10 * 10**6 * 10**18 */\n  0x13\n  sstore\n    /* \"Wrapped-tokens/WXZO.sol\":21905:22626  constructor() {... */\n  callvalue\n  dup1\n  iszero\n  tag_1\n  jumpi\n  0x00\n  dup1\n  revert\ntag_1:\n  pop\n    /* \"Wrapped-tokens/WXZO.sol\":10208:10225  address msgSender */\n  0x00\n    /* \"Wrapped-tokens/WXZO.sol\":10250:10268  _owner = msgSender */\n  dup1\n  sload\n  not(sub(shl(0xa0, 0x01), 0x01))\n  and\n    /* \"Wrapped-tokens/WXZO.sol\":3857:3867  msg.sender */\n  caller\n    /* \"Wrapped-tokens/WXZO.sol\":10250:10268  _owner = msgSender */\n  swap1\n  dup2\n  or\n  dup3\n  sstore\n    /* \"Wrapped-tokens/WXZO.sol\":10283:10326  OwnershipTransferred(address(0), msgSender) */\n  mload(0x40)\n    /* \"Wrapped-tokens/WXZO.sol\":3857:3867  msg.sender */\n  swap1\n  swap2\n  dup3\n  swap2\n    /* \"Wrapped-tokens/WXZO.sol\":10283:10326  OwnershipTransferred(address(0), msgSender) */\n  0x8be0079c531659141344cd1fd0a4f28419497f9722a3daafe3b4186f6b6457e0\n  swap1\n    /* \"Wrapped-tokens/WXZO.sol\":10208:10225  address msgSender */\n  dup3\n  swap1\n    /* \"Wrapped-tokens/WXZO.sol\":10283:10326  OwnershipTransferred(address(0), msgSender) */\n  log3\n  pop\n    /* \"Wrapped-tokens/WXZO.sol\":21929:21951  _name = \"Wrapped Exzo\" */\n  0x40\n  dup1\n  mload\n  dup1\n  dup3\n  add\n  swap1\n  swap2\n  mstore\n  0x0c\n  dup2\n  mstore\n  shl(0xa0, 0x577261707065642045787a6f)\n  0x20\n  dup3\n  add\n  mstore\n    /* \"Wrapped-tokens/WXZO.sol\":21929:21934  _name */\n  0x0b\n  swap1\n    /* \"Wrapped-tokens/WXZO.sol\":21929:21951  _name = \"Wrapped Exzo\" */\n  tag_8\n  swap1\n    /* \"Wrapped-tokens/WXZO.sol\":21929:21934  _name */\n  dup3\n    /* \"Wrapped-tokens/WXZO.sol\":21929:21951  _name = \"Wrapped Exzo\" */\n  tag_9\n  jump\t// in\ntag_8:\n  pop\n    /* \"Wrapped-tokens/WXZO.sol\":21961:21977  _symbol = \"WXZO\" */\n  0x40\n  dup1\n  mload\n  dup1\n  dup3\n  add\n  swap1\n  swap2\n  mstore\n  0x04\n  dup2\n  mstore\n  shl(0xe0, 0x57585a4f)\n  0x20\n  dup3\n  add\n  mstore\n    /* \"Wrapped-tokens/WXZO.sol\":21961:21968  _symbol */\n  0x0c\n  swap1\n    /* \"Wrapped-tokens/WXZO.sol\":21961:21977  _symbol = \"WXZO\" */\n  tag_10\n  swap1\n    /* \"Wrapped-tokens/WXZO.sol\":21961:21968  _symbol */\n  dup3\n    /* \"Wrapped-tokens/WXZO.sol\":21961:21977  _symbol = \"WXZO\" */\n  tag_9\n  jump\t// in\ntag_10:\n  pop\n    /* \"Wrapped-tokens/WXZO.sol\":21987:21996  _decimals */\n  0x0d\n    /* \"Wrapped-tokens/WXZO.sol\":21987:22001  _decimals = 18 */\n  dup1\n  sload\n  not(0xff)\n  and\n    /* \"Wrapped-tokens/WXZO.sol\":21999:22001  18 */\n  0x12\n    /* \"Wrapped-tokens/WXZO.sol\":21987:22001  _decimals = 18 */\n  swap1\n  dup2\n  or\n  swap1\n  swap2\n  sstore\n    /* \"Wrapped-tokens/WXZO.sol\":22037:22050  10**_decimals */\n  tag_11\n  swap1\n    /* \"Wrapped-tokens/WXZO.sol\":22037:22039  10 */\n  0x0a\n    /* \"Wrapped-tokens/WXZO.sol\":22037:22050  10**_decimals */\n  tag_12\n  jump\t// in\ntag_11:\n    /* \"Wrapped-tokens/WXZO.sol\":22023:22050  135_000_000 * 10**_decimals */\n  tag_13\n  swap1\n    /* \"Wrapped-tokens/WXZO.sol\":22023:22034  135_000_000 */\n  0x080befc0\n    /* \"Wrapped-tokens/WXZO.sol\":22023:22050  135_000_000 * 10**_decimals */\n  tag_14\n  jump\t// in\ntag_13:\n    /* \"Wrapped-tokens/WXZO.sol\":22011:22020  MaxSupply */\n  0x09\n    /* \"Wrapped-tokens/WXZO.sol\":22011:22050  MaxSupply = 135_000_000 * 10**_decimals */\n  dup2\n  swap1\n  sstore\n  pop\n    /* \"Wrapped-tokens/WXZO.sol\":22061:22096  IUniswapV2Router02 _uniswapV2Router */\n  0x00\n    /* \"Wrapped-tokens/WXZO.sol\":22131:22173  0x7a250d5630B4cF539739dF2C5dAcb4c659F2488D */\n  0x7a250d5630b4cf539739df2c5dacb4c659f2488d\n    /* \"Wrapped-tokens/WXZO.sol\":22061:22204  IUniswapV2Router02 _uniswapV2Router = IUniswapV2Router02(... */\n  swap1\n  pop\n    /* \"Wrapped-tokens/WXZO.sol\":22249:22265  _uniswapV2Router */\n  dup1\n  sub(shl(0xa0, 0x01), 0x01)\n    /* \"Wrapped-tokens/WXZO.sol\":22249:22273  _uniswapV2Router.factory */\n  and\n  0xc45a0155\n    /* \"Wrapped-tokens/WXZO.sol\":22249:22275  _uniswapV2Router.factory() */\n  mload(0x40)\n  dup2\n  0xffffffff\n  and\n  0xe0\n  shl\n  dup2\n  mstore\n  0x04\n  add\n  0x20\n  mload(0x40)\n  dup1\n  dup4\n  sub\n  dup2\n  dup7\n  gas\n  staticcall\n  iszero\n  dup1\n  iszero\n  tag_16\n  jumpi\n  returndatasize\n  0x00\n  dup1\n  returndatacopy\n  revert(0x00, returndatasize)\ntag_16:\n  pop\n  pop\n  pop\n  pop\n  mload(0x40)\n  returndatasize\n  not(0x1f)\n  0x1f\n  dup3\n  add\n  and\n  dup3\n  add\n  dup1\n  0x40\n  mstore\n  pop\n  dup2\n  add\n  swap1\n  tag_17\n  swap2\n  swap1\n  tag_18\n  jump\t// in\ntag_17:\n  sub(shl(0xa0, 0x01), 0x01)\n    /* \"Wrapped-tokens/WXZO.sol\":22231:22300  IUniswapV2Factory(_uniswapV2Router.factory())... */\n  and\n  0xc9c65396\n    /* \"Wrapped-tokens/WXZO.sol\":22309:22313  this */\n  address\n    /* \"Wrapped-tokens/WXZO.sol\":22316:22332  _uniswapV2Router */\n  dup4\n  sub(shl(0xa0, 0x01), 0x01)\n    /* \"Wrapped-tokens/WXZO.sol\":22316:22337  _uniswapV2Router.WETH */\n  and\n  0xad5c4648\n    /* \"Wrapped-tokens/WXZO.sol\":22316:22339  _uniswapV2Router.WETH() */\n  mload(0x40)\n  dup2\n  0xffffffff\n  and\n  0xe0\n  shl\n  dup2\n  mstore\n  0x04\n  add\n  0x20\n  mload(0x40)\n  dup1\n  dup4\n  sub\n  dup2\n  dup7\n  gas\n  staticcall\n  iszero\n  dup1\n  iszero\n  tag_20\n  jumpi\n  returndatasize\n  0x00\n  dup1\n  returndatacopy\n  revert(0x00, returndatasize)\ntag_20:\n  pop\n  pop\n  pop\n  pop\n  mload(0x40)\n  returndatasize\n  not(0x1f)\n  0x1f\n  dup3\n  add\n  and\n  dup3\n  add\n  dup1\n  0x40\n  mstore\n  pop\n  dup2\n  add\n  swap1\n  tag_21\n  swap2\n  swap1\n  tag_18\n  jump\t// in\ntag_21:\n    /* \"Wrapped-tokens/WXZO.sol\":22231:22340  IUniswapV2Factory(_uniswapV2Router.factory())... */\n  mload(0x40)\n  not(sub(shl(0xe0, 0x01), 0x01))\n  0xe0\n  dup6\n  swap1\n  shl\n  and\n  dup2\n  mstore\n  sub(shl(0xa0, 0x01), 0x01)\n    /* \"#utility.yul\":4948:4963   */\n  swap3\n  dup4\n  and\n    /* \"Wrapped-tokens/WXZO.sol\":22231:22340  IUniswapV2Factory(_uniswapV2Router.factory())... */\n  0x04\n  dup3\n  add\n    /* \"#utility.yul\":4930:4964   */\n  mstore\n    /* \"#utility.yul\":5000:5015   */\n  swap2\n  and\n    /* \"#utility.yul\":4980:4998   */\n  0x24\n  dup3\n  add\n    /* \"#utility.yul\":4973:5016   */\n  mstore\n    /* \"#utility.yul\":4865:4883   */\n  0x44\n  add\n    /* \"Wrapped-tokens/WXZO.sol\":22231:22340  IUniswapV2Factory(_uniswapV2Router.factory())... */\n  0x20\n  mload(0x40)\n  dup1\n  dup4\n  sub\n  dup2\n  0x00\n  dup8\n  gas\n  call\n  iszero\n  dup1\n  iszero\n  tag_25\n  jumpi\n  returndatasize\n  0x00\n  dup1\n  returndatacopy\n  revert(0x00, returndatasize)\ntag_25:\n  pop\n  pop\n  pop\n  pop\n  mload(0x40)\n  returndatasize\n  not(0x1f)\n  0x1f\n  dup3\n  add\n  and\n  dup3\n  add\n  dup1\n  0x40\n  mstore\n  pop\n  dup2\n  add\n  swap1\n  tag_26\n  swap2\n  swap1\n  tag_18\n  jump\t// in\ntag_26:\n    /* \"Wrapped-tokens/WXZO.sol\":22215:22228  uniswapV2Pair */\n  0x12\n    /* \"Wrapped-tokens/WXZO.sol\":22215:22340  uniswapV2Pair = IUniswapV2Factory(_uniswapV2Router.factory())... */\n  dup1\n  sload\n  not(sub(shl(0xa0, 0x01), 0x01))\n  swap1\n  dup2\n  and\n  sub(shl(0xa0, 0x01), 0x01)\n  swap4\n  dup5\n  and\n  or\n  swap1\n  swap2\n  sstore\n    /* \"Wrapped-tokens/WXZO.sol\":22350:22365  uniswapV2Router */\n  0x11\n    /* \"Wrapped-tokens/WXZO.sol\":22350:22384  uniswapV2Router = _uniswapV2Router */\n  dup1\n  sload\n  swap1\n  swap2\n  and\n  swap2\n  dup4\n  and\n  swap2\n  swap1\n  swap2\n  or\n  swap1\n  sstore\n    /* \"Wrapped-tokens/WXZO.sol\":22422:22426  this */\n  address\n  0x00\n    /* \"Wrapped-tokens/WXZO.sol\":22395:22428  _isExcludedFromFee[address(this)] */\n  swap1\n  dup2\n  mstore\n    /* \"Wrapped-tokens/WXZO.sol\":22395:22413  _isExcludedFromFee */\n  0x05\n    /* \"Wrapped-tokens/WXZO.sol\":22395:22428  _isExcludedFromFee[address(this)] */\n  0x20\n  dup2\n  swap1\n  mstore\n  0x40\n  dup3\n  keccak256\n    /* \"Wrapped-tokens/WXZO.sol\":22395:22435  _isExcludedFromFee[address(this)] = true */\n  dup1\n  sload\n  not(0xff)\n  and\n  0x01\n  swap1\n  dup2\n  or\n  swap1\n  swap2\n  sstore\n  swap2\n    /* \"Wrapped-tokens/WXZO.sol\":22464:22471  owner() */\n  tag_27\n    /* \"Wrapped-tokens/WXZO.sol\":10447:10454  address */\n  0x00\n    /* \"Wrapped-tokens/WXZO.sol\":10473:10479  _owner */\n  sload\n  sub(shl(0xa0, 0x01), 0x01)\n  and\n  swap1\n    /* \"Wrapped-tokens/WXZO.sol\":10409:10486  function owner() public view returns (address) {... */\n  jump\n    /* \"Wrapped-tokens/WXZO.sol\":22464:22471  owner() */\ntag_27:\n  sub(shl(0xa0, 0x01), 0x01)\n    /* \"Wrapped-tokens/WXZO.sol\":22445:22472  _isExcludedFromFee[owner()] */\n  swap1\n  dup2\n  and\n  dup3\n  mstore\n  0x20\n  dup1\n  dup4\n  add\n  swap4\n  swap1\n  swap4\n  mstore\n  0x40\n  swap2\n  dup3\n  add\n  0x00\n  swap1\n  dup2\n  keccak256\n    /* \"Wrapped-tokens/WXZO.sol\":22445:22479  _isExcludedFromFee[owner()] = true */\n  dup1\n  sload\n  swap6\n  iszero\n  iszero\n  not(0xff)\n  swap7\n  dup8\n  and\n  or\n  swap1\n  sstore\n    /* \"Wrapped-tokens/WXZO.sol\":22508:22522  donationWallet */\n  sload(0x08)\n  dup3\n  and\n    /* \"Wrapped-tokens/WXZO.sol\":22489:22523  _isExcludedFromFee[donationWallet] */\n  dup2\n  mstore\n    /* \"Wrapped-tokens/WXZO.sol\":22489:22507  _isExcludedFromFee */\n  0x05\n    /* \"Wrapped-tokens/WXZO.sol\":22489:22523  _isExcludedFromFee[donationWallet] */\n  dup5\n  mstore\n  dup3\n  dup2\n  keccak256\n    /* \"Wrapped-tokens/WXZO.sol\":22489:22530  _isExcludedFromFee[donationWallet] = true */\n  dup1\n  sload\n  dup7\n  and\n    /* \"Wrapped-tokens/WXZO.sol\":22445:22479  _isExcludedFromFee[owner()] = true */\n  0x01\n    /* \"Wrapped-tokens/WXZO.sol\":22489:22530  _isExcludedFromFee[donationWallet] = true */\n  swap1\n  dup2\n  or\n  swap1\n  swap2\n  sstore\n    /* \"Wrapped-tokens/WXZO.sol\":22564:22577  uniswapV2Pair */\n  sload(0x12)\n  swap1\n  swap3\n  and\n    /* \"Wrapped-tokens/WXZO.sol\":22540:22578  _isAutomaticMarketMaker[uniswapV2Pair] */\n  dup2\n  mstore\n    /* \"Wrapped-tokens/WXZO.sol\":22540:22563  _isAutomaticMarketMaker */\n  0x06\n    /* \"Wrapped-tokens/WXZO.sol\":22540:22578  _isAutomaticMarketMaker[uniswapV2Pair] */\n  swap1\n  swap4\n  mstore\n  swap2\n  keccak256\n    /* \"Wrapped-tokens/WXZO.sol\":22540:22585  _isAutomaticMarketMaker[uniswapV2Pair] = true */\n  dup1\n  sload\n  swap1\n  swap3\n  and\n  or\n  swap1\n  sstore\n    /* \"Wrapped-tokens/WXZO.sol\":22596:22619  _mint(_msgSender(), 10) */\n  tag_29\n    /* \"Wrapped-tokens/WXZO.sol\":22602:22614  _msgSender() */\n  tag_30\n    /* \"Wrapped-tokens/WXZO.sol\":3857:3867  msg.sender */\n  caller\n  swap1\n    /* \"Wrapped-tokens/WXZO.sol\":3778:3874  function _msgSender() internal view virtual returns (address) {... */\n  jump\n    /* \"Wrapped-tokens/WXZO.sol\":22602:22614  _msgSender() */\ntag_30:\n    /* \"Wrapped-tokens/WXZO.sol\":22616:22618  10 */\n  0x0a\n    /* \"Wrapped-tokens/WXZO.sol\":22596:22601  _mint */\n  tag_31\n    /* \"Wrapped-tokens/WXZO.sol\":22596:22619  _mint(_msgSender(), 10) */\n  jump\t// in\ntag_29:\n    /* \"Wrapped-tokens/WXZO.sol\":21919:22626  {... */\n  pop\n    /* \"Wrapped-tokens/WXZO.sol\":20489:31032  contract EXZO is Context, IERC20, IERC20Metadata, Ownable {... */\n  jump(tag_72)\n    /* \"Wrapped-tokens/WXZO.sol\":29452:29972  function _mint(address account, uint256 amount) public virtual onlyOwner {... */\ntag_31:\n    /* \"Wrapped-tokens/WXZO.sol\":10613:10619  _owner */\n  and(sub(shl(0xa0, 0x01), 0x01), sload(0x00))\n    /* \"Wrapped-tokens/WXZO.sol\":3857:3867  msg.sender */\n  caller\n    /* \"Wrapped-tokens/WXZO.sol\":10613:10635  _owner == _msgSender() */\n  eq\n    /* \"Wrapped-tokens/WXZO.sol\":10605:10672  require(_owner == _msgSender(), \"Ownable: caller is not the owner\") */\n  tag_37\n  jumpi\n  mload(0x40)\n  shl(0xe5, 0x461bcd)\n  dup2\n  mstore\n    /* \"#utility.yul\":5229:5231   */\n  0x20\n    /* \"Wrapped-tokens/WXZO.sol\":10605:10672  require(_owner == _msgSender(), \"Ownable: caller is not the owner\") */\n  0x04\n  dup3\n  add\n    /* \"#utility.yul\":5211:5232   */\n  dup2\n  swap1\n  mstore\n    /* \"#utility.yul\":5248:5266   */\n  0x24\n  dup3\n  add\n    /* \"#utility.yul\":5241:5271   */\n  mstore\n    /* \"#utility.yul\":5307:5341   */\n  0x4f776e61626c653a2063616c6c6572206973206e6f7420746865206f776e6572\n    /* \"#utility.yul\":5287:5305   */\n  0x44\n  dup3\n  add\n    /* \"#utility.yul\":5280:5342   */\n  mstore\n    /* \"#utility.yul\":5359:5377   */\n  0x64\n  add\n    /* \"Wrapped-tokens/WXZO.sol\":10605:10672  require(_owner == _msgSender(), \"Ownable: caller is not the owner\") */\ntag_38:\n  mload(0x40)\n  dup1\n  swap2\n  sub\n  swap1\n  revert\ntag_37:\n    /* \"Wrapped-tokens/WXZO.sol\":29565:29574  _decimals */\n  sload(0x0d)\n    /* \"Wrapped-tokens/WXZO.sol\":29535:29549  uint256 Amount */\n  0x00\n  swap1\n    /* \"Wrapped-tokens/WXZO.sol\":29561:29574  10**_decimals */\n  tag_41\n  swap1\n    /* \"Wrapped-tokens/WXZO.sol\":29565:29574  _decimals */\n  0xff\n  and\n    /* \"Wrapped-tokens/WXZO.sol\":29561:29563  10 */\n  0x0a\n    /* \"Wrapped-tokens/WXZO.sol\":29561:29574  10**_decimals */\n  tag_12\n  jump\t// in\ntag_41:\n    /* \"Wrapped-tokens/WXZO.sol\":29552:29574  amount * 10**_decimals */\n  tag_42\n  swap1\n    /* \"Wrapped-tokens/WXZO.sol\":29552:29558  amount */\n  dup4\n    /* \"Wrapped-tokens/WXZO.sol\":29552:29574  amount * 10**_decimals */\n  tag_14\n  jump\t// in\ntag_42:\n    /* \"Wrapped-tokens/WXZO.sol\":29535:29574  uint256 Amount = amount * 10**_decimals */\n  swap1\n  pop\n    /* \"Wrapped-tokens/WXZO.sol\":29633:29642  MaxSupply */\n  sload(0x09)\n    /* \"Wrapped-tokens/WXZO.sol\":29605:29629  _totalSupply.add(Amount) */\n  tag_43\n    /* \"Wrapped-tokens/WXZO.sol\":29622:29628  Amount */\n  dup3\n    /* \"Wrapped-tokens/WXZO.sol\":29605:29617  _totalSupply */\n  sload(0x0a)\n    /* \"Wrapped-tokens/WXZO.sol\":29605:29621  _totalSupply.add */\n  or(tag_0_167, shl(0x20, tag_44))\n  swap1\n    /* \"Wrapped-tokens/WXZO.sol\":29605:29629  _totalSupply.add(Amount) */\n  swap2\n  swap1\n  0x20\n  shr\n  jump\t// in\ntag_43:\n    /* \"Wrapped-tokens/WXZO.sol\":29605:29642  _totalSupply.add(Amount) <= MaxSupply */\n  gt\n  iszero\n    /* \"Wrapped-tokens/WXZO.sol\":29584:29708  require(... */\n  tag_45\n  jumpi\n  mload(0x40)\n  shl(0xe5, 0x461bcd)\n  dup2\n  mstore\n    /* \"#utility.yul\":5590:5592   */\n  0x20\n    /* \"Wrapped-tokens/WXZO.sol\":29584:29708  require(... */\n  0x04\n  dup3\n  add\n    /* \"#utility.yul\":5572:5593   */\n  mstore\n    /* \"#utility.yul\":5629:5631   */\n  0x28\n    /* \"#utility.yul\":5609:5627   */\n  0x24\n  dup3\n  add\n    /* \"#utility.yul\":5602:5632   */\n  mstore\n    /* \"#utility.yul\":5668:5702   */\n  0x45787a6f3a20596f752063616e2774206d696e74206d6f7265207468616e204d\n    /* \"#utility.yul\":5648:5666   */\n  0x44\n  dup3\n  add\n    /* \"#utility.yul\":5641:5703   */\n  mstore\n  shl(0xc0, 0x6178537570706c79)\n    /* \"#utility.yul\":5719:5737   */\n  0x64\n  dup3\n  add\n    /* \"#utility.yul\":5712:5750   */\n  mstore\n    /* \"#utility.yul\":5767:5786   */\n  0x84\n  add\n    /* \"Wrapped-tokens/WXZO.sol\":29584:29708  require(... */\n  tag_38\n    /* \"#utility.yul\":5388:5792   */\n  jump\n    /* \"Wrapped-tokens/WXZO.sol\":29584:29708  require(... */\ntag_45:\n  sub(shl(0xa0, 0x01), 0x01)\n    /* \"Wrapped-tokens/WXZO.sol\":29726:29747  account != address(0) */\n  dup4\n  and\n    /* \"Wrapped-tokens/WXZO.sol\":29718:29782  require(account != address(0), \"Exzo: mint to the zero address\") */\n  tag_48\n  jumpi\n  mload(0x40)\n  shl(0xe5, 0x461bcd)\n  dup2\n  mstore\n    /* \"#utility.yul\":5999:6001   */\n  0x20\n    /* \"Wrapped-tokens/WXZO.sol\":29718:29782  require(account != address(0), \"Exzo: mint to the zero address\") */\n  0x04\n  dup3\n  add\n    /* \"#utility.yul\":5981:6002   */\n  mstore\n    /* \"#utility.yul\":6038:6040   */\n  0x1e\n    /* \"#utility.yul\":6018:6036   */\n  0x24\n  dup3\n  add\n    /* \"#utility.yul\":6011:6041   */\n  mstore\n    /* \"#utility.yul\":6077:6109   */\n  0x45787a6f3a206d696e7420746f20746865207a65726f20616464726573730000\n    /* \"#utility.yul\":6057:6075   */\n  0x44\n  dup3\n  add\n    /* \"#utility.yul\":6050:6110   */\n  mstore\n    /* \"#utility.yul\":6127:6145   */\n  0x64\n  add\n    /* \"Wrapped-tokens/WXZO.sol\":29718:29782  require(account != address(0), \"Exzo: mint to the zero address\") */\n  tag_38\n    /* \"#utility.yul\":5797:6151   */\n  jump\n    /* \"Wrapped-tokens/WXZO.sol\":29718:29782  require(account != address(0), \"Exzo: mint to the zero address\") */\ntag_48:\n    /* \"Wrapped-tokens/WXZO.sol\":29869:29875  Amount */\n  dup1\n    /* \"Wrapped-tokens/WXZO.sol\":29853:29865  _totalSupply */\n  0x0a\n  0x00\n    /* \"Wrapped-tokens/WXZO.sol\":29853:29875  _totalSupply += Amount */\n  dup3\n  dup3\n  sload\n  tag_53\n  swap2\n  swap1\n  tag_54\n  jump\t// in\ntag_53:\n  swap1\n  swap2\n  sstore\n  pop\n  pop\n  sub(shl(0xa0, 0x01), 0x01)\n    /* \"Wrapped-tokens/WXZO.sol\":29885:29903  _balances[account] */\n  dup4\n  and\n  0x00\n  swap1\n  dup2\n  mstore\n    /* \"Wrapped-tokens/WXZO.sol\":29885:29894  _balances */\n  0x03\n    /* \"Wrapped-tokens/WXZO.sol\":29885:29903  _balances[account] */\n  0x20\n  mstore\n  0x40\n  dup2\n  keccak256\n    /* \"Wrapped-tokens/WXZO.sol\":29885:29913  _balances[account] += Amount */\n  dup1\n  sload\n    /* \"Wrapped-tokens/WXZO.sol\":29907:29913  Amount */\n  dup4\n  swap3\n    /* \"Wrapped-tokens/WXZO.sol\":29885:29903  _balances[account] */\n  swap1\n    /* \"Wrapped-tokens/WXZO.sol\":29885:29913  _balances[account] += Amount */\n  tag_55\n  swap1\n    /* \"Wrapped-tokens/WXZO.sol\":29907:29913  Amount */\n  dup5\n  swap1\n    /* \"Wrapped-tokens/WXZO.sol\":29885:29913  _balances[account] += Amount */\n  tag_54\n  jump\t// in\ntag_55:\n  swap1\n  swap2\n  sstore\n  pop\n  pop\n    /* \"Wrapped-tokens/WXZO.sol\":29928:29965  Transfer(address(0), account, Amount) */\n  mload(0x40)\n    /* \"#utility.yul\":6432:6457   */\n  dup2\n  dup2\n  mstore\n  sub(shl(0xa0, 0x01), 0x01)\n    /* \"Wrapped-tokens/WXZO.sol\":29928:29965  Transfer(address(0), account, Amount) */\n  dup5\n  and\n  swap1\n    /* \"Wrapped-tokens/WXZO.sol\":29945:29946  0 */\n  0x00\n  swap1\n    /* \"Wrapped-tokens/WXZO.sol\":29928:29965  Transfer(address(0), account, Amount) */\n  0xddf252ad1be2c89b69c2b068fc378daa952ba7f163c4a11628f55a4df523b3ef\n  swap1\n    /* \"#utility.yul\":6420:6422   */\n  0x20\n    /* \"#utility.yul\":6405:6423   */\n  add\n    /* \"Wrapped-tokens/WXZO.sol\":29928:29965  Transfer(address(0), account, Amount) */\n  mload(0x40)\n  dup1\n  swap2\n  sub\n  swap1\n  log3\n    /* \"Wrapped-tokens/WXZO.sol\":29525:29972  {... */\n  pop\n    /* \"Wrapped-tokens/WXZO.sol\":29452:29972  function _mint(address account, uint256 amount) public virtual onlyOwner {... */\n  pop\n  pop\n  jump\t// out\n    /* \"Wrapped-tokens/WXZO.sol\":4933:5109  function add(uint256 a, uint256 b) internal pure returns (uint256) {... */\ntag_44:\n    /* \"Wrapped-tokens/WXZO.sol\":4991:4998  uint256 */\n  0x00\n  dup1\n    /* \"Wrapped-tokens/WXZO.sol\":5022:5027  a + b */\n  tag_59\n    /* \"Wrapped-tokens/WXZO.sol\":5026:5027  b */\n  dup4\n    /* \"Wrapped-tokens/WXZO.sol\":5022:5023  a */\n  dup6\n    /* \"Wrapped-tokens/WXZO.sol\":5022:5027  a + b */\n  tag_54\n  jump\t// in\ntag_59:\n    /* \"Wrapped-tokens/WXZO.sol\":5010:5027  uint256 c = a + b */\n  swap1\n  pop\n    /* \"Wrapped-tokens/WXZO.sol\":5050:5051  a */\n  dup4\n    /* \"Wrapped-tokens/WXZO.sol\":5045:5046  c */\n  dup2\n    /* \"Wrapped-tokens/WXZO.sol\":5045:5051  c >= a */\n  lt\n  iszero\n    /* \"Wrapped-tokens/WXZO.sol\":5037:5083  require(c >= a, \"SafeMath: addition overflow\") */\n  tag_60\n  jumpi\n  mload(0x40)\n  shl(0xe5, 0x461bcd)\n  dup2\n  mstore\n    /* \"#utility.yul\":6670:6672   */\n  0x20\n    /* \"Wrapped-tokens/WXZO.sol\":5037:5083  require(c >= a, \"SafeMath: addition overflow\") */\n  0x04\n  dup3\n  add\n    /* \"#utility.yul\":6652:6673   */\n  mstore\n    /* \"#utility.yul\":6709:6711   */\n  0x1b\n    /* \"#utility.yul\":6689:6707   */\n  0x24\n  dup3\n  add\n    /* \"#utility.yul\":6682:6712   */\n  mstore\n    /* \"#utility.yul\":6748:6777   */\n  0x536166654d6174683a206164646974696f6e206f766572666c6f770000000000\n    /* \"#utility.yul\":6728:6746   */\n  0x44\n  dup3\n  add\n    /* \"#utility.yul\":6721:6778   */\n  mstore\n    /* \"#utility.yul\":6795:6813   */\n  0x64\n  add\n    /* \"Wrapped-tokens/WXZO.sol\":5037:5083  require(c >= a, \"SafeMath: addition overflow\") */\n  tag_38\n    /* \"#utility.yul\":6468:6819   */\n  jump\n    /* \"Wrapped-tokens/WXZO.sol\":5037:5083  require(c >= a, \"SafeMath: addition overflow\") */\ntag_60:\n    /* \"Wrapped-tokens/WXZO.sol\":5101:5102  c */\n  swap1\n  pop\n    /* \"Wrapped-tokens/WXZO.sol\":4933:5109  function add(uint256 a, uint256 b) internal pure returns (uint256) {... */\ntag_58:\n  swap3\n  swap2\n  pop\n  pop\n  jump\t// out\n    /* \"Wrapped-tokens/WXZO.sol\":30909:31030  function _beforeTokenTransfer(... */\ntag_52:\n  pop\n  pop\n  pop\n  jump\t// out\n    /* \"#utility.yul\":14:141   */\ntag_64:\n    /* \"#utility.yul\":75:85   */\n  0x4e487b71\n    /* \"#utility.yul\":70:73   */\n  0xe0\n    /* \"#utility.yul\":66:86   */\n  shl\n    /* \"#utility.yul\":63:64   */\n  0x00\n    /* \"#utility.yul\":56:87   */\n  mstore\n    /* \"#utility.yul\":106:110   */\n  0x41\n    /* \"#utility.yul\":103:104   */\n  0x04\n    /* \"#utility.yul\":96:111   */\n  mstore\n    /* \"#utility.yul\":130:134   */\n  0x24\n    /* \"#utility.yul\":127:128   */\n  0x00\n    /* \"#utility.yul\":120:135   */\n  revert\n    /* \"#utility.yul\":146:526   */\ntag_65:\n    /* \"#utility.yul\":225:226   */\n  0x01\n    /* \"#utility.yul\":221:233   */\n  dup2\n  dup2\n  shr\n  swap1\n    /* \"#utility.yul\":268:280   */\n  dup3\n  and\n  dup1\n    /* \"#utility.yul\":289:350   */\n  tag_75\n  jumpi\n    /* \"#utility.yul\":343:347   */\n  0x7f\n    /* \"#utility.yul\":335:341   */\n  dup3\n    /* \"#utility.yul\":331:348   */\n  and\n    /* \"#utility.yul\":321:348   */\n  swap2\n  pop\n    /* \"#utility.yul\":289:350   */\ntag_75:\n    /* \"#utility.yul\":396:398   */\n  0x20\n    /* \"#utility.yul\":388:394   */\n  dup3\n    /* \"#utility.yul\":385:399   */\n  lt\n    /* \"#utility.yul\":365:383   */\n  dup2\n    /* \"#utility.yul\":362:400   */\n  sub\n    /* \"#utility.yul\":359:520   */\n  tag_76\n  jumpi\n    /* \"#utility.yul\":442:452   */\n  0x4e487b71\n    /* \"#utility.yul\":437:440   */\n  0xe0\n    /* \"#utility.yul\":433:453   */\n  shl\n    /* \"#utility.yul\":430:431   */\n  0x00\n    /* \"#utility.yul\":423:454   */\n  mstore\n    /* \"#utility.yul\":477:481   */\n  0x22\n    /* \"#utility.yul\":474:475   */\n  0x04\n    /* \"#utility.yul\":467:482   */\n  mstore\n    /* \"#utility.yul\":505:509   */\n  0x24\n    /* \"#utility.yul\":502:503   */\n  0x00\n    /* \"#utility.yul\":495:510   */\n  revert\n    /* \"#utility.yul\":359:520   */\ntag_76:\n  pop\n    /* \"#utility.yul\":146:526   */\n  swap2\n  swap1\n  pop\n  jump\t// out\n    /* \"#utility.yul\":657:1202   */\ntag_67:\n    /* \"#utility.yul\":759:761   */\n  0x1f\n    /* \"#utility.yul\":754:757   */\n  dup3\n    /* \"#utility.yul\":751:762   */\n  gt\n    /* \"#utility.yul\":748:1196   */\n  iszero\n  tag_52\n  jumpi\n    /* \"#utility.yul\":795:796   */\n  0x00\n    /* \"#utility.yul\":820:825   */\n  dup2\n    /* \"#utility.yul\":816:818   */\n  dup2\n    /* \"#utility.yul\":809:826   */\n  mstore\n    /* \"#utility.yul\":865:869   */\n  0x20\n    /* \"#utility.yul\":861:863   */\n  dup2\n    /* \"#utility.yul\":851:870   */\n  keccak256\n    /* \"#utility.yul\":935:937   */\n  0x1f\n    /* \"#utility.yul\":923:933   */\n  dup6\n    /* \"#utility.yul\":919:938   */\n  add\n    /* \"#utility.yul\":916:917   */\n  0x05\n    /* \"#utility.yul\":912:939   */\n  shr\n    /* \"#utility.yul\":906:910   */\n  dup2\n    /* \"#utility.yul\":902:940   */\n  add\n    /* \"#utility.yul\":971:975   */\n  0x20\n    /* \"#utility.yul\":959:969   */\n  dup7\n    /* \"#utility.yul\":956:976   */\n  lt\n    /* \"#utility.yul\":953:1000   */\n  iszero\n  tag_80\n  jumpi\n  pop\n    /* \"#utility.yul\":994:998   */\n  dup1\n    /* \"#utility.yul\":953:1000   */\ntag_80:\n    /* \"#utility.yul\":1049:1051   */\n  0x1f\n    /* \"#utility.yul\":1044:1047   */\n  dup6\n    /* \"#utility.yul\":1040:1052   */\n  add\n    /* \"#utility.yul\":1037:1038   */\n  0x05\n    /* \"#utility.yul\":1033:1053   */\n  shr\n    /* \"#utility.yul\":1027:1031   */\n  dup3\n    /* \"#utility.yul\":1023:1054   */\n  add\n    /* \"#utility.yul\":1013:1054   */\n  swap2\n  pop\n    /* \"#utility.yul\":1104:1186   */\ntag_81:\n    /* \"#utility.yul\":1122:1124   */\n  dup2\n    /* \"#utility.yul\":1115:1120   */\n  dup2\n    /* \"#utility.yul\":1112:1125   */\n  lt\n    /* \"#utility.yul\":1104:1186   */\n  iszero\n  tag_83\n  jumpi\n    /* \"#utility.yul\":1167:1184   */\n  dup3\n  dup2\n  sstore\n    /* \"#utility.yul\":1148:1149   */\n  0x01\n    /* \"#utility.yul\":1137:1150   */\n  add\n    /* \"#utility.yul\":1104:1186   */\n  jump(tag_81)\ntag_83:\n    /* \"#utility.yul\":1108:1111   */\n  pop\n  pop\n  pop\n    /* \"#utility.yul\":657:1202   */\n  pop\n  pop\n  pop\n  jump\t// out\n    /* \"#utility.yul\":1378:2730   */\ntag_9:\n    /* \"#utility.yul\":1498:1508   */\n  dup2\n  mload\n  sub(shl(0x40, 0x01), 0x01)\n    /* \"#utility.yul\":1520:1550   */\n  dup2\n  gt\n    /* \"#utility.yul\":1517:1573   */\n  iszero\n  tag_87\n  jumpi\n    /* \"#utility.yul\":1553:1571   */\n  tag_87\n  tag_64\n  jump\t// in\ntag_87:\n    /* \"#utility.yul\":1582:1679   */\n  tag_88\n    /* \"#utility.yul\":1672:1678   */\n  dup2\n    /* \"#utility.yul\":1632:1670   */\n  tag_89\n    /* \"#utility.yul\":1664:1668   */\n  dup5\n    /* \"#utility.yul\":1658:1669   */\n  sload\n    /* \"#utility.yul\":1632:1670   */\n  tag_65\n  jump\t// in\ntag_89:\n    /* \"#utility.yul\":1626:1630   */\n  dup5\n    /* \"#utility.yul\":1582:1679   */\n  tag_67\n  jump\t// in\ntag_88:\n    /* \"#utility.yul\":1734:1738   */\n  0x20\n  dup1\n    /* \"#utility.yul\":1798:1800   */\n  0x1f\n    /* \"#utility.yul\":1787:1801   */\n  dup4\n  gt\n    /* \"#utility.yul\":1815:1816   */\n  0x01\n    /* \"#utility.yul\":1810:2473   */\n  dup2\n  eq\n  tag_91\n  jumpi\n    /* \"#utility.yul\":2517:2518   */\n  0x00\n    /* \"#utility.yul\":2534:2540   */\n  dup5\n    /* \"#utility.yul\":2531:2620   */\n  iszero\n  tag_92\n  jumpi\n  pop\n    /* \"#utility.yul\":2586:2605   */\n  dup6\n  dup4\n  add\n    /* \"#utility.yul\":2580:2606   */\n  mload\n    /* \"#utility.yul\":2531:2620   */\ntag_92:\n  not(0x00)\n    /* \"#utility.yul\":1335:1336   */\n  0x03\n    /* \"#utility.yul\":1331:1342   */\n  dup7\n  swap1\n  shl\n    /* \"#utility.yul\":1327:1351   */\n  shr\n    /* \"#utility.yul\":1323:1352   */\n  not\n    /* \"#utility.yul\":1313:1353   */\n  and\n    /* \"#utility.yul\":1359:1360   */\n  0x01\n    /* \"#utility.yul\":1355:1366   */\n  dup6\n  swap1\n  shl\n    /* \"#utility.yul\":1310:1367   */\n  or\n    /* \"#utility.yul\":2633:2714   */\n  dup6\n  sstore\n    /* \"#utility.yul\":1780:2724   */\n  jump(tag_83)\n    /* \"#utility.yul\":1810:2473   */\ntag_91:\n    /* \"#utility.yul\":604:605   */\n  0x00\n    /* \"#utility.yul\":597:611   */\n  dup6\n  dup2\n  mstore\n    /* \"#utility.yul\":641:645   */\n  0x20\n    /* \"#utility.yul\":628:646   */\n  dup2\n  keccak256\n  not(0x1f)\n    /* \"#utility.yul\":1846:1866   */\n  dup7\n  and\n  swap2\n    /* \"#utility.yul\":1964:2200   */\ntag_95:\n    /* \"#utility.yul\":1978:1985   */\n  dup3\n    /* \"#utility.yul\":1975:1976   */\n  dup2\n    /* \"#utility.yul\":1972:1986   */\n  lt\n    /* \"#utility.yul\":1964:2200   */\n  iszero\n  tag_97\n  jumpi\n    /* \"#utility.yul\":2067:2086   */\n  dup9\n  dup7\n  add\n    /* \"#utility.yul\":2061:2087   */\n  mload\n    /* \"#utility.yul\":2046:2088   */\n  dup3\n  sstore\n    /* \"#utility.yul\":2159:2186   */\n  swap5\n  dup5\n  add\n  swap5\n    /* \"#utility.yul\":2127:2128   */\n  0x01\n    /* \"#utility.yul\":2115:2129   */\n  swap1\n  swap2\n  add\n  swap1\n    /* \"#utility.yul\":1994:2013   */\n  dup5\n  add\n    /* \"#utility.yul\":1964:2200   */\n  jump(tag_95)\ntag_97:\n    /* \"#utility.yul\":1968:1971   */\n  pop\n    /* \"#utility.yul\":2228:2234   */\n  dup6\n    /* \"#utility.yul\":2219:2226   */\n  dup3\n    /* \"#utility.yul\":2216:2235   */\n  lt\n    /* \"#utility.yul\":2213:2414   */\n  iszero\n  tag_98\n  jumpi\n    /* \"#utility.yul\":2289:2308   */\n  dup8\n  dup6\n  add\n    /* \"#utility.yul\":2283:2309   */\n  mload\n  not(0x00)\n    /* \"#utility.yul\":2372:2373   */\n  0x03\n    /* \"#utility.yul\":2368:2382   */\n  dup9\n  swap1\n  shl\n    /* \"#utility.yul\":2384:2387   */\n  0xf8\n    /* \"#utility.yul\":2364:2388   */\n  and\n    /* \"#utility.yul\":2360:2397   */\n  shr\n    /* \"#utility.yul\":2356:2398   */\n  not\n    /* \"#utility.yul\":2341:2399   */\n  and\n    /* \"#utility.yul\":2326:2400   */\n  dup2\n  sstore\n    /* \"#utility.yul\":2213:2414   */\ntag_98:\n  pop\n  pop\n  pop\n  pop\n  pop\n    /* \"#utility.yul\":2460:2461   */\n  0x01\n    /* \"#utility.yul\":2444:2458   */\n  swap1\n  dup2\n  shl\n    /* \"#utility.yul\":2440:2462   */\n  add\n    /* \"#utility.yul\":2427:2463   */\n  swap1\n  sstore\n  pop\n    /* \"#utility.yul\":1378:2730   */\n  jump\t// out\n    /* \"#utility.yul\":2735:2862   */\ntag_69:\n    /* \"#utility.yul\":2796:2806   */\n  0x4e487b71\n    /* \"#utility.yul\":2791:2794   */\n  0xe0\n    /* \"#utility.yul\":2787:2807   */\n  shl\n    /* \"#utility.yul\":2784:2785   */\n  0x00\n    /* \"#utility.yul\":2777:2808   */\n  mstore\n    /* \"#utility.yul\":2827:2831   */\n  0x11\n    /* \"#utility.yul\":2824:2825   */\n  0x04\n    /* \"#utility.yul\":2817:2832   */\n  mstore\n    /* \"#utility.yul\":2851:2855   */\n  0x24\n    /* \"#utility.yul\":2848:2849   */\n  0x00\n    /* \"#utility.yul\":2841:2856   */\n  revert\n    /* \"#utility.yul\":2867:3289   */\ntag_70:\n    /* \"#utility.yul\":2956:2957   */\n  0x01\n    /* \"#utility.yul\":2999:3004   */\n  dup2\n    /* \"#utility.yul\":2956:2957   */\n  dup2\n    /* \"#utility.yul\":3013:3283   */\ntag_101:\n    /* \"#utility.yul\":3034:3041   */\n  dup1\n    /* \"#utility.yul\":3024:3032   */\n  dup6\n    /* \"#utility.yul\":3021:3042   */\n  gt\n    /* \"#utility.yul\":3013:3283   */\n  iszero\n  tag_103\n  jumpi\n    /* \"#utility.yul\":3093:3097   */\n  dup2\n    /* \"#utility.yul\":3089:3090   */\n  0x00\n    /* \"#utility.yul\":3085:3091   */\n  not\n    /* \"#utility.yul\":3081:3098   */\n  div\n    /* \"#utility.yul\":3075:3079   */\n  dup3\n    /* \"#utility.yul\":3072:3099   */\n  gt\n    /* \"#utility.yul\":3069:3122   */\n  iszero\n  tag_105\n  jumpi\n    /* \"#utility.yul\":3102:3120   */\n  tag_105\n  tag_69\n  jump\t// in\ntag_105:\n    /* \"#utility.yul\":3152:3159   */\n  dup1\n    /* \"#utility.yul\":3142:3150   */\n  dup6\n    /* \"#utility.yul\":3138:3160   */\n  and\n    /* \"#utility.yul\":3135:3190   */\n  iszero\n  tag_106\n  jumpi\n    /* \"#utility.yul\":3172:3188   */\n  swap2\n  dup2\n  mul\n  swap2\n    /* \"#utility.yul\":3135:3190   */\ntag_106:\n    /* \"#utility.yul\":3251:3273   */\n  swap4\n  dup5\n  shr\n  swap4\n    /* \"#utility.yul\":3211:3226   */\n  swap1\n  dup1\n  mul\n  swap1\n    /* \"#utility.yul\":3013:3283   */\n  jump(tag_101)\ntag_103:\n    /* \"#utility.yul\":3017:3020   */\n  pop\n    /* \"#utility.yul\":2867:3289   */\n  swap3\n  pop\n  swap3\n  swap1\n  pop\n  jump\t// out\n    /* \"#utility.yul\":3294:4100   */\ntag_71:\n    /* \"#utility.yul\":3343:3348   */\n  0x00\n    /* \"#utility.yul\":3373:3381   */\n  dup3\n    /* \"#utility.yul\":3363:3443   */\n  tag_108\n  jumpi\n  pop\n    /* \"#utility.yul\":3414:3415   */\n  0x01\n    /* \"#utility.yul\":3428:3433   */\n  jump(tag_58)\n    /* \"#utility.yul\":3363:3443   */\ntag_108:\n    /* \"#utility.yul\":3462:3466   */\n  dup2\n    /* \"#utility.yul\":3452:3528   */\n  tag_109\n  jumpi\n  pop\n    /* \"#utility.yul\":3499:3500   */\n  0x00\n    /* \"#utility.yul\":3513:3518   */\n  jump(tag_58)\n    /* \"#utility.yul\":3452:3528   */\ntag_109:\n    /* \"#utility.yul\":3544:3548   */\n  dup2\n    /* \"#utility.yul\":3562:3563   */\n  0x01\n    /* \"#utility.yul\":3557:3616   */\n  dup2\n  eq\n  tag_111\n  jumpi\n    /* \"#utility.yul\":3630:3631   */\n  0x02\n    /* \"#utility.yul\":3625:3755   */\n  dup2\n  eq\n  tag_112\n  jumpi\n    /* \"#utility.yul\":3537:3755   */\n  jump(tag_110)\n    /* \"#utility.yul\":3557:3616   */\ntag_111:\n    /* \"#utility.yul\":3587:3588   */\n  0x01\n    /* \"#utility.yul\":3578:3588   */\n  swap2\n  pop\n    /* \"#utility.yul\":3601:3606   */\n  pop\n  jump(tag_58)\n    /* \"#utility.yul\":3625:3755   */\ntag_112:\n    /* \"#utility.yul\":3662:3665   */\n  0xff\n    /* \"#utility.yul\":3652:3660   */\n  dup5\n    /* \"#utility.yul\":3649:3666   */\n  gt\n    /* \"#utility.yul\":3646:3689   */\n  iszero\n  tag_114\n  jumpi\n    /* \"#utility.yul\":3669:3687   */\n  tag_114\n  tag_69\n  jump\t// in\ntag_114:\n  pop\n  pop\n    /* \"#utility.yul\":3725:3726   */\n  0x01\n    /* \"#utility.yul\":3711:3727   */\n  dup3\n  shl\n    /* \"#utility.yul\":3740:3745   */\n  jump(tag_58)\n    /* \"#utility.yul\":3537:3755   */\ntag_110:\n  pop\n    /* \"#utility.yul\":3839:3841   */\n  0x20\n    /* \"#utility.yul\":3829:3837   */\n  dup4\n    /* \"#utility.yul\":3826:3842   */\n  lt\n    /* \"#utility.yul\":3820:3823   */\n  0x0133\n    /* \"#utility.yul\":3814:3818   */\n  dup4\n    /* \"#utility.yul\":3811:3824   */\n  lt\n    /* \"#utility.yul\":3807:3843   */\n  and\n    /* \"#utility.yul\":3801:3803   */\n  0x4e\n    /* \"#utility.yul\":3791:3799   */\n  dup5\n    /* \"#utility.yul\":3788:3804   */\n  lt\n    /* \"#utility.yul\":3783:3785   */\n  0x0b\n    /* \"#utility.yul\":3777:3781   */\n  dup5\n    /* \"#utility.yul\":3774:3786   */\n  lt\n    /* \"#utility.yul\":3770:3805   */\n  and\n    /* \"#utility.yul\":3767:3844   */\n  or\n    /* \"#utility.yul\":3764:3923   */\n  iszero\n  tag_115\n  jumpi\n  pop\n    /* \"#utility.yul\":3876:3895   */\n  dup2\n  dup2\n  exp\n    /* \"#utility.yul\":3908:3913   */\n  jump(tag_58)\n    /* \"#utility.yul\":3764:3923   */\ntag_115:\n    /* \"#utility.yul\":3955:3989   */\n  tag_116\n    /* \"#utility.yul\":3980:3988   */\n  dup4\n    /* \"#utility.yul\":3974:3978   */\n  dup4\n    /* \"#utility.yul\":3955:3989   */\n  tag_70\n  jump\t// in\ntag_116:\n    /* \"#utility.yul\":4025:4031   */\n  dup1\n    /* \"#utility.yul\":4021:4022   */\n  0x00\n    /* \"#utility.yul\":4017:4023   */\n  not\n    /* \"#utility.yul\":4013:4032   */\n  div\n    /* \"#utility.yul\":4004:4011   */\n  dup3\n    /* \"#utility.yul\":4001:4033   */\n  gt\n    /* \"#utility.yul\":3998:4056   */\n  iszero\n  tag_118\n  jumpi\n    /* \"#utility.yul\":4036:4054   */\n  tag_118\n  tag_69\n  jump\t// in\ntag_118:\n    /* \"#utility.yul\":4074:4094   */\n  mul\n  swap4\n    /* \"#utility.yul\":3294:4100   */\n  swap3\n  pop\n  pop\n  pop\n  jump\t// out\n    /* \"#utility.yul\":4105:4245   */\ntag_12:\n    /* \"#utility.yul\":4163:4168   */\n  0x00\n    /* \"#utility.yul\":4192:4239   */\n  tag_120\n    /* \"#utility.yul\":4233:4237   */\n  0xff\n    /* \"#utility.yul\":4223:4231   */\n  dup5\n    /* \"#utility.yul\":4219:4238   */\n  and\n    /* \"#utility.yul\":4213:4217   */\n  dup4\n    /* \"#utility.yul\":4192:4239   */\n  tag_71\n  jump\t// in\ntag_120:\n    /* \"#utility.yul\":4183:4239   */\n  swap4\n    /* \"#utility.yul\":4105:4245   */\n  swap3\n  pop\n  pop\n  pop\n  jump\t// out\n    /* \"#utility.yul\":4250:4418   */\ntag_14:\n    /* \"#utility.yul\":4323:4332   */\n  dup1\n  dup3\n  mul\n    /* \"#utility.yul\":4354:4363   */\n  dup2\n  iszero\n    /* \"#utility.yul\":4371:4386   */\n  dup3\n  dup3\n  div\n    /* \"#utility.yul\":4365:4387   */\n  dup5\n  eq\n    /* \"#utility.yul\":4351:4388   */\n  or\n    /* \"#utility.yul\":4341:4412   */\n  tag_58\n  jumpi\n    /* \"#utility.yul\":4392:4410   */\n  tag_58\n  tag_69\n  jump\t// in\n    /* \"#utility.yul\":4423:4713   */\ntag_18:\n    /* \"#utility.yul\":4493:4499   */\n  0x00\n    /* \"#utility.yul\":4546:4548   */\n  0x20\n    /* \"#utility.yul\":4534:4543   */\n  dup3\n    /* \"#utility.yul\":4525:4532   */\n  dup5\n    /* \"#utility.yul\":4521:4544   */\n  sub\n    /* \"#utility.yul\":4517:4549   */\n  slt\n    /* \"#utility.yul\":4514:4566   */\n  iszero\n  tag_125\n  jumpi\n    /* \"#utility.yul\":4562:4563   */\n  0x00\n    /* \"#utility.yul\":4559:4560   */\n  dup1\n    /* \"#utility.yul\":4552:4564   */\n  revert\n    /* \"#utility.yul\":4514:4566   */\ntag_125:\n    /* \"#utility.yul\":4588:4604   */\n  dup2\n  mload\n  sub(shl(0xa0, 0x01), 0x01)\n    /* \"#utility.yul\":4633:4664   */\n  dup2\n  and\n    /* \"#utility.yul\":4623:4665   */\n  dup2\n  eq\n    /* \"#utility.yul\":4613:4683   */\n  tag_60\n  jumpi\n    /* \"#utility.yul\":4679:4680   */\n  0x00\n    /* \"#utility.yul\":4676:4677   */\n  dup1\n    /* \"#utility.yul\":4669:4681   */\n  revert\n    /* \"#utility.yul\":6156:6281   */\ntag_54:\n    /* \"#utility.yul\":6221:6230   */\n  dup1\n  dup3\n  add\n    /* \"#utility.yul\":6242:6252   */\n  dup1\n  dup3\n  gt\n    /* \"#utility.yul\":6239:6275   */\n  iszero\n  tag_58\n  jumpi\n    /* \"#utility.yul\":6255:6273   */\n  tag_58\n  tag_69\n  jump\t// in\n    /* \"#utility.yul\":6468:6819   */\ntag_72:\n    /* \"Wrapped-tokens/WXZO.sol\":20489:31032  contract EXZO is Context, IERC20, IERC20Metadata, Ownable {... */\n  dataSize(sub_0)\n  dup1\n  dataOffset(sub_0)\n  0x00\n  codecopy\n  0x00\n  return\nstop\n\nsub_0: assembly {\n        /* \"Wrapped-tokens/WXZO.sol\":20489:31032  contract EXZO is Context, IERC20, IERC20Metadata, Ownable {... */\n      mstore(0x40, 0x80)\n      callvalue\n      dup1\n      iszero\n      tag_1\n      jumpi\n      0x00\n      dup1\n      revert\n    tag_1:\n      pop\n      jumpi(tag_2, lt(calldatasize, 0x04))\n      shr(0xe0, calldataload(0x00))\n      dup1\n      0x715018a6\n      gt\n      tag_36\n      jumpi\n      dup1\n      0xb36c1284\n      gt\n      tag_37\n      jumpi\n      dup1\n      0xdd62ed3e\n      gt\n      tag_38\n      jumpi\n      dup1\n      0xdd62ed3e\n      eq\n      tag_31\n      jumpi\n      dup1\n      0xe47d6060\n      eq\n      tag_32\n      jumpi\n      dup1\n      0xe7b94df4\n      eq\n      tag_33\n      jumpi\n      dup1\n      0xf2fde38b\n      eq\n      tag_34\n      jumpi\n      dup1\n      0xfaf38f62\n      eq\n      tag_35\n      jumpi\n      0x00\n      dup1\n      revert\n    tag_38:\n      dup1\n      0xb36c1284\n      eq\n      tag_27\n      jumpi\n      dup1\n      0xc0b0fda2\n      eq\n      tag_28\n      jumpi\n      dup1\n      0xc3736882\n      eq\n      tag_29\n      jumpi\n      dup1\n      0xc676af83\n      eq\n      tag_30\n      jumpi\n      0x00\n      dup1\n      revert\n    tag_37:\n      dup1\n      0x9b1f9e74\n      gt\n      tag_39\n      jumpi\n      dup1\n      0x9b1f9e74\n      eq\n      tag_23\n      jumpi\n      dup1\n      0xa457c2d7\n      eq\n      tag_24\n      jumpi\n      dup1\n      0xa9059cbb\n      eq\n      tag_25\n      jumpi\n      dup1\n      0xafc82bd9\n      eq\n      tag_26\n      jumpi\n      0x00\n      dup1\n      revert\n    tag_39:\n      dup1\n      0x715018a6\n      eq\n      tag_19\n      jumpi\n      dup1\n      0x7d1db4a5\n      eq\n      tag_20\n      jumpi\n      dup1\n      0x8da5cb5b\n      eq\n      tag_21\n      jumpi\n      dup1\n      0x95d89b41\n      eq\n      tag_22\n      jumpi\n      0x00\n      dup1\n      revert\n    tag_36:\n      dup1\n      0x39509351\n      gt\n      tag_40\n      jumpi\n      dup1\n      0x5342acb4\n      gt\n      tag_41\n      jumpi\n      dup1\n      0x5342acb4\n      eq\n      tag_15\n      jumpi\n      dup1\n      0x5a96cdd7\n      eq\n      tag_16\n      jumpi\n      dup1\n      0x6bc87c3a\n      eq\n      tag_17\n      jumpi\n      dup1\n      0x70a08231\n      eq\n      tag_18\n      jumpi\n      0x00\n      dup1\n      revert\n    tag_41:\n      dup1\n      0x39509351\n      eq\n      tag_11\n      jumpi\n      dup1\n      0x3979e9ca\n      eq\n      tag_12\n      jumpi\n      dup1\n      0x49bd5a5e\n      eq\n      tag_13\n      jumpi\n      dup1\n      0x4e6ec247\n      eq\n      tag_14\n      jumpi\n      0x00\n      dup1\n      revert\n    tag_40:\n      dup1\n      0x22429085\n      gt\n      tag_42\n      jumpi\n      dup1\n      0x22429085\n      eq\n      tag_7\n      jumpi\n      dup1\n      0x23b872dd\n      eq\n      tag_8\n      jumpi\n      dup1\n      0x28141d5b\n      eq\n      tag_9\n      jumpi\n      dup1\n      0x313ce567\n      eq\n      tag_10\n      jumpi\n      0x00\n      dup1\n      revert\n    tag_42:\n      dup1\n      0x06fdde03\n      eq\n      tag_3\n      jumpi\n      dup1\n      0x095ea7b3\n      eq\n      tag_4\n      jumpi\n      dup1\n      0x1694505e\n      eq\n      tag_5\n      jumpi\n      dup1\n      0x18160ddd\n      eq\n      tag_6\n      jumpi\n    tag_2:\n      0x00\n      dup1\n      revert\n        /* \"Wrapped-tokens/WXZO.sol\":22632:22730  function name() public view virtual override returns (string memory) {... */\n    tag_3:\n      tag_43\n      tag_44\n      jump\t// in\n    tag_43:\n      mload(0x40)\n      tag_45\n      swap2\n      swap1\n      tag_46\n      jump\t// in\n    tag_45:\n      mload(0x40)\n      dup1\n      swap2\n      sub\n      swap1\n      return\n        /* \"Wrapped-tokens/WXZO.sol\":23784:23986  function approve(address spender, uint256 amount)... */\n    tag_4:\n      tag_47\n      tag_48\n      calldatasize\n      0x04\n      tag_49\n      jump\t// in\n    tag_48:\n      tag_50\n      jump\t// in\n    tag_47:\n      mload(0x40)\n        /* \"#utility.yul\":1188:1202   */\n      swap1\n      iszero\n        /* \"#utility.yul\":1181:1203   */\n      iszero\n        /* \"#utility.yul\":1163:1204   */\n      dup2\n      mstore\n        /* \"#utility.yul\":1151:1153   */\n      0x20\n        /* \"#utility.yul\":1136:1154   */\n      add\n        /* \"Wrapped-tokens/WXZO.sol\":23784:23986  function approve(address spender, uint256 amount)... */\n      tag_45\n        /* \"#utility.yul\":1023:1210   */\n      jump\n        /* \"Wrapped-tokens/WXZO.sol\":21418:21459  IUniswapV2Router02 public uniswapV2Router */\n    tag_5:\n      sload(0x11)\n      tag_53\n      swap1\n      sub(shl(0xa0, 0x01), 0x01)\n      and\n      dup2\n      jump\n    tag_53:\n      mload(0x40)\n      sub(shl(0xa0, 0x01), 0x01)\n        /* \"#utility.yul\":1406:1438   */\n      swap1\n      swap2\n      and\n        /* \"#utility.yul\":1388:1439   */\n      dup2\n      mstore\n        /* \"#utility.yul\":1376:1378   */\n      0x20\n        /* \"#utility.yul\":1361:1379   */\n      add\n        /* \"Wrapped-tokens/WXZO.sol\":21418:21459  IUniswapV2Router02 public uniswapV2Router */\n      tag_45\n        /* \"#utility.yul\":1215:1445   */\n      jump\n        /* \"Wrapped-tokens/WXZO.sol\":22948:23054  function totalSupply() public view virtual override returns (uint256) {... */\n    tag_6:\n        /* \"Wrapped-tokens/WXZO.sol\":23035:23047  _totalSupply */\n      sload(0x0a)\n        /* \"Wrapped-tokens/WXZO.sol\":22948:23054  function totalSupply() public view virtual override returns (uint256) {... */\n    tag_57:\n      mload(0x40)\n        /* \"#utility.yul\":1596:1621   */\n      swap1\n      dup2\n      mstore\n        /* \"#utility.yul\":1584:1586   */\n      0x20\n        /* \"#utility.yul\":1569:1587   */\n      add\n        /* \"Wrapped-tokens/WXZO.sol\":22948:23054  function totalSupply() public view virtual override returns (uint256) {... */\n      tag_45\n        /* \"#utility.yul\":1450:1627   */\n      jump\n        /* \"Wrapped-tokens/WXZO.sol\":27915:28372  function updateFees(... */\n    tag_7:\n      tag_61\n      tag_62\n      calldatasize\n      0x04\n      tag_63\n      jump\t// in\n    tag_62:\n      tag_64\n      jump\t// in\n    tag_61:\n      stop\n        /* \"Wrapped-tokens/WXZO.sol\":23992:24709  function transferFrom(... */\n    tag_8:\n      tag_47\n      tag_66\n      calldatasize\n      0x04\n      tag_67\n      jump\t// in\n    tag_66:\n      tag_68\n      jump\t// in\n        /* \"Wrapped-tokens/WXZO.sol\":29125:29446  function setMaxTxPercentage(uint256 maxTxPercentage) external onlyOwner {... */\n    tag_9:\n      tag_61\n      tag_71\n      calldatasize\n      0x04\n      tag_72\n      jump\t// in\n    tag_71:\n      tag_73\n      jump\t// in\n        /* \"Wrapped-tokens/WXZO.sol\":22844:22942  function decimals() public view virtual override returns (uint8) {... */\n    tag_10:\n        /* \"Wrapped-tokens/WXZO.sol\":22926:22935  _decimals */\n      sload(0x0d)\n        /* \"Wrapped-tokens/WXZO.sol\":22844:22942  function decimals() public view virtual override returns (uint8) {... */\n      mload(0x40)\n        /* \"Wrapped-tokens/WXZO.sol\":22926:22935  _decimals */\n      0xff\n      swap1\n      swap2\n      and\n        /* \"#utility.yul\":2741:2777   */\n      dup2\n      mstore\n        /* \"#utility.yul\":2729:2731   */\n      0x20\n        /* \"#utility.yul\":2714:2732   */\n      add\n        /* \"Wrapped-tokens/WXZO.sol\":22844:22942  function decimals() public view virtual override returns (uint8) {... */\n      tag_45\n        /* \"#utility.yul\":2599:2783   */\n      jump\n        /* \"Wrapped-tokens/WXZO.sol\":24715:25001  function increaseAllowance(address spender, uint256 addedValue)... */\n    tag_11:\n      tag_47\n      tag_79\n      calldatasize\n      0x04\n      tag_49\n      jump\t// in\n    tag_79:\n      tag_80\n      jump\t// in\n        /* \"Wrapped-tokens/WXZO.sol\":28750:28888  function isAutomaticMarketMaker(address account) external view returns (bool)... */\n    tag_12:\n      tag_47\n      tag_83\n      calldatasize\n      0x04\n      tag_84\n      jump\t// in\n    tag_83:\n      sub(shl(0xa0, 0x01), 0x01)\n        /* \"Wrapped-tokens/WXZO.sol\":28849:28881  _isAutomaticMarketMaker[account] */\n      and\n        /* \"Wrapped-tokens/WXZO.sol\":28822:28826  bool */\n      0x00\n        /* \"Wrapped-tokens/WXZO.sol\":28849:28881  _isAutomaticMarketMaker[account] */\n      swap1\n      dup2\n      mstore\n        /* \"Wrapped-tokens/WXZO.sol\":28849:28872  _isAutomaticMarketMaker */\n      0x06\n        /* \"Wrapped-tokens/WXZO.sol\":28849:28881  _isAutomaticMarketMaker[account] */\n      0x20\n      mstore\n      0x40\n      swap1\n      keccak256\n      sload\n      0xff\n      and\n      swap1\n        /* \"Wrapped-tokens/WXZO.sol\":28750:28888  function isAutomaticMarketMaker(address account) external view returns (bool)... */\n      jump\n        /* \"Wrapped-tokens/WXZO.sol\":21465:21493  address public uniswapV2Pair */\n    tag_13:\n      sload(0x12)\n      tag_53\n      swap1\n      sub(shl(0xa0, 0x01), 0x01)\n      and\n      dup2\n      jump\n        /* \"Wrapped-tokens/WXZO.sol\":29452:29972  function _mint(address account, uint256 amount) public virtual onlyOwner {... */\n    tag_14:\n      tag_61\n      tag_92\n      calldatasize\n      0x04\n      tag_49\n      jump\t// in\n    tag_92:\n      tag_93\n      jump\t// in\n        /* \"Wrapped-tokens/WXZO.sol\":28620:28744  function isExcludedFromFee(address Account) external view returns (bool) {... */\n    tag_15:\n      tag_47\n      tag_95\n      calldatasize\n      0x04\n      tag_84\n      jump\t// in\n    tag_95:\n      sub(shl(0xa0, 0x01), 0x01)\n        /* \"Wrapped-tokens/WXZO.sol\":28710:28737  _isExcludedFromFee[Account] */\n      and\n        /* \"Wrapped-tokens/WXZO.sol\":28687:28691  bool */\n      0x00\n        /* \"Wrapped-tokens/WXZO.sol\":28710:28737  _isExcludedFromFee[Account] */\n      swap1\n      dup2\n      mstore\n        /* \"Wrapped-tokens/WXZO.sol\":28710:28728  _isExcludedFromFee */\n      0x05\n        /* \"Wrapped-tokens/WXZO.sol\":28710:28737  _isExcludedFromFee[Account] */\n      0x20\n      mstore\n      0x40\n      swap1\n      keccak256\n      sload\n      0xff\n      and\n      swap1\n        /* \"Wrapped-tokens/WXZO.sol\":28620:28744  function isExcludedFromFee(address Account) external view returns (bool) {... */\n      jump\n        /* \"Wrapped-tokens/WXZO.sol\":23060:23190  function setDonationWallet(address payable _donationWallet) external onlyOwner() {... */\n    tag_16:\n      tag_61\n      tag_99\n      calldatasize\n      0x04\n      tag_84\n      jump\t// in\n    tag_99:\n      tag_101\n      jump\t// in\n        /* \"Wrapped-tokens/WXZO.sol\":21127:21159  uint256 public _liquidityFee = 3 */\n    tag_17:\n      tag_57\n      sload(0x0e)\n      dup2\n      jump\n        /* \"Wrapped-tokens/WXZO.sol\":23196:23365  function balanceOf(address account)... */\n    tag_18:\n      tag_57\n      tag_106\n      calldatasize\n      0x04\n      tag_84\n      jump\t// in\n    tag_106:\n      sub(shl(0xa0, 0x01), 0x01)\n        /* \"Wrapped-tokens/WXZO.sol\":23340:23358  _balances[account] */\n      and\n        /* \"Wrapped-tokens/WXZO.sol\":23310:23317  uint256 */\n      0x00\n        /* \"Wrapped-tokens/WXZO.sol\":23340:23358  _balances[account] */\n      swap1\n      dup2\n      mstore\n        /* \"Wrapped-tokens/WXZO.sol\":23340:23349  _balances */\n      0x03\n        /* \"Wrapped-tokens/WXZO.sol\":23340:23358  _balances[account] */\n      0x20\n      mstore\n      0x40\n      swap1\n      keccak256\n      sload\n      swap1\n        /* \"Wrapped-tokens/WXZO.sol\":23196:23365  function balanceOf(address account)... */\n      jump\n        /* \"Wrapped-tokens/WXZO.sol\":11032:11177  function renounceOwnership() public virtual onlyOwner {... */\n    tag_19:\n      tag_61\n      tag_110\n      jump\t// in\n        /* \"Wrapped-tokens/WXZO.sol\":21499:21548  uint256 public _maxTxAmount = 10 * 10**6 * 10**18 */\n    tag_20:\n      tag_57\n      sload(0x13)\n      dup2\n      jump\n        /* \"Wrapped-tokens/WXZO.sol\":10409:10486  function owner() public view returns (address) {... */\n    tag_21:\n        /* \"Wrapped-tokens/WXZO.sol\":10447:10454  address */\n      0x00\n        /* \"Wrapped-tokens/WXZO.sol\":10473:10479  _owner */\n      sload\n      sub(shl(0xa0, 0x01), 0x01)\n      and\n        /* \"Wrapped-tokens/WXZO.sol\":10409:10486  function owner() public view returns (address) {... */\n      jump(tag_53)\n        /* \"Wrapped-tokens/WXZO.sol\":22736:22838  function symbol() public view virtual override returns (string memory) {... */\n    tag_22:\n      tag_43\n      tag_118\n      jump\t// in\n        /* \"Wrapped-tokens/WXZO.sol\":29978:30529  function _burn(uint256 amount) external virtual {... */\n    tag_23:\n      tag_61\n      tag_121\n      calldatasize\n      0x04\n      tag_72\n      jump\t// in\n    tag_121:\n      tag_122\n      jump\t// in\n        /* \"Wrapped-tokens/WXZO.sol\":25007:25439  function decreaseAllowance(address spender, uint256 subtractedValue)... */\n    tag_24:\n      tag_47\n      tag_124\n      calldatasize\n      0x04\n      tag_49\n      jump\t// in\n    tag_124:\n      tag_125\n      jump\t// in\n        /* \"Wrapped-tokens/WXZO.sol\":23371:23579  function transfer(address recipient, uint256 amount)... */\n    tag_25:\n      tag_47\n      tag_128\n      calldatasize\n      0x04\n      tag_49\n      jump\t// in\n    tag_128:\n      tag_129\n      jump\t// in\n        /* \"Wrapped-tokens/WXZO.sol\":27574:27909  function addToBlacklist(... */\n    tag_26:\n      tag_61\n      tag_132\n      calldatasize\n      0x04\n      tag_133\n      jump\t// in\n    tag_132:\n      tag_134\n      jump\t// in\n        /* \"Wrapped-tokens/WXZO.sol\":20979:21003  uint256 public MaxSupply */\n    tag_27:\n      tag_57\n      sload(0x09)\n      dup2\n      jump\n        /* \"Wrapped-tokens/WXZO.sol\":21203:21230  uint256 public _burnFee = 2 */\n    tag_28:\n      tag_57\n      sload(0x10)\n      dup2\n      jump\n        /* \"Wrapped-tokens/WXZO.sol\":28378:28614  function ExcludeOrIncludeFromFee(address Account, bool status)... */\n    tag_29:\n      tag_61\n      tag_142\n      calldatasize\n      0x04\n      tag_143\n      jump\t// in\n    tag_142:\n      tag_144\n      jump\t// in\n        /* \"Wrapped-tokens/WXZO.sol\":28894:29119  function SetAutomaticMarketMaker(address Account, bool status) external onlyOwner... */\n    tag_30:\n      tag_61\n      tag_146\n      calldatasize\n      0x04\n      tag_143\n      jump\t// in\n    tag_146:\n      tag_147\n      jump\t// in\n        /* \"Wrapped-tokens/WXZO.sol\":23585:23778  function allowance(address owner, address spender)... */\n    tag_31:\n      tag_57\n      tag_149\n      calldatasize\n      0x04\n      tag_150\n      jump\t// in\n    tag_149:\n      sub(shl(0xa0, 0x01), 0x01)\n        /* \"Wrapped-tokens/WXZO.sol\":23744:23762  _allowances[owner] */\n      swap2\n      dup3\n      and\n        /* \"Wrapped-tokens/WXZO.sol\":23714:23721  uint256 */\n      0x00\n        /* \"Wrapped-tokens/WXZO.sol\":23744:23762  _allowances[owner] */\n      swap1\n      dup2\n      mstore\n        /* \"Wrapped-tokens/WXZO.sol\":23744:23755  _allowances */\n      0x04\n        /* \"Wrapped-tokens/WXZO.sol\":23744:23762  _allowances[owner] */\n      0x20\n      swap1\n      dup2\n      mstore\n      0x40\n      dup1\n      dup4\n      keccak256\n        /* \"Wrapped-tokens/WXZO.sol\":23744:23771  _allowances[owner][spender] */\n      swap4\n      swap1\n      swap5\n      and\n      dup3\n      mstore\n      swap2\n      swap1\n      swap2\n      mstore\n      keccak256\n      sload\n      swap1\n        /* \"Wrapped-tokens/WXZO.sol\":23585:23778  function allowance(address owner, address spender)... */\n      jump\n        /* \"Wrapped-tokens/WXZO.sol\":20829:20874  mapping(address => bool) public isBlackListed */\n    tag_32:\n      tag_47\n      tag_154\n      calldatasize\n      0x04\n      tag_84\n      jump\t// in\n    tag_154:\n      mstore(0x20, 0x07)\n      0x00\n      swap1\n      dup2\n      mstore\n      0x40\n      swap1\n      keccak256\n      sload\n      0xff\n      and\n      dup2\n      jump\n        /* \"Wrapped-tokens/WXZO.sol\":20881:20972  address payable public donationWallet = payable(0x1816687A332A3d0583Ea06f725E90Dd724b0AFf7) */\n    tag_33:\n      sload(0x08)\n      tag_53\n      swap1\n      sub(shl(0xa0, 0x01), 0x01)\n      and\n      dup2\n      jump\n        /* \"Wrapped-tokens/WXZO.sol\":11326:11600  function transferOwnership(address newOwner) public virtual onlyOwner {... */\n    tag_34:\n      tag_61\n      tag_162\n      calldatasize\n      0x04\n      tag_84\n      jump\t// in\n    tag_162:\n      tag_163\n      jump\t// in\n        /* \"Wrapped-tokens/WXZO.sol\":21165:21197  uint256 public _donationFee = 15 */\n    tag_35:\n      tag_57\n      sload(0x0f)\n      dup2\n      jump\n        /* \"Wrapped-tokens/WXZO.sol\":22632:22730  function name() public view virtual override returns (string memory) {... */\n    tag_44:\n        /* \"Wrapped-tokens/WXZO.sol\":22686:22699  string memory */\n      0x60\n        /* \"Wrapped-tokens/WXZO.sol\":22718:22723  _name */\n      0x0b\n        /* \"Wrapped-tokens/WXZO.sol\":22711:22723  return _name */\n      dup1\n      sload\n      tag_169\n      swap1\n      tag_170\n      jump\t// in\n    tag_169:\n      dup1\n      0x1f\n      add\n      0x20\n      dup1\n      swap2\n      div\n      mul\n      0x20\n      add\n      mload(0x40)\n      swap1\n      dup2\n      add\n      0x40\n      mstore\n      dup1\n      swap3\n      swap2\n      swap1\n      dup2\n      dup2\n      mstore\n      0x20\n      add\n      dup3\n      dup1\n      sload\n      tag_171\n      swap1\n      tag_170\n      jump\t// in\n    tag_171:\n      dup1\n      iszero\n      tag_172\n      jumpi\n      dup1\n      0x1f\n      lt\n      tag_173\n      jumpi\n      0x0100\n      dup1\n      dup4\n      sload\n      div\n      mul\n      dup4\n      mstore\n      swap2\n      0x20\n      add\n      swap2\n      jump(tag_172)\n    tag_173:\n      dup3\n      add\n      swap2\n      swap1\n      0x00\n      mstore\n      keccak256(0x00, 0x20)\n      swap1\n    tag_174:\n      dup2\n      sload\n      dup2\n      mstore\n      swap1\n      0x01\n      add\n      swap1\n      0x20\n      add\n      dup1\n      dup4\n      gt\n      tag_174\n      jumpi\n      dup3\n      swap1\n      sub\n      0x1f\n      and\n      dup3\n      add\n      swap2\n    tag_172:\n      pop\n      pop\n      pop\n      pop\n      pop\n      swap1\n      pop\n        /* \"Wrapped-tokens/WXZO.sol\":22632:22730  function name() public view virtual override returns (string memory) {... */\n      swap1\n      jump\t// out\n        /* \"Wrapped-tokens/WXZO.sol\":23784:23986  function approve(address spender, uint256 amount)... */\n    tag_50:\n        /* \"Wrapped-tokens/WXZO.sol\":23899:23903  bool */\n      0x00\n        /* \"Wrapped-tokens/WXZO.sol\":23919:23958  _approve(_msgSender(), spender, amount) */\n      tag_176\n        /* \"Wrapped-tokens/WXZO.sol\":3857:3867  msg.sender */\n      caller\n        /* \"Wrapped-tokens/WXZO.sol\":23942:23949  spender */\n      dup5\n        /* \"Wrapped-tokens/WXZO.sol\":23951:23957  amount */\n      dup5\n        /* \"Wrapped-tokens/WXZO.sol\":23919:23927  _approve */\n      tag_179\n        /* \"Wrapped-tokens/WXZO.sol\":23919:23958  _approve(_msgSender(), spender, amount) */\n      jump\t// in\n    tag_176:\n      pop\n        /* \"Wrapped-tokens/WXZO.sol\":23975:23979  true */\n      0x01\n        /* \"Wrapped-tokens/WXZO.sol\":23784:23986  function approve(address spender, uint256 amount)... */\n    tag_175:\n      swap3\n      swap2\n      pop\n      pop\n      jump\t// out\n        /* \"Wrapped-tokens/WXZO.sol\":27915:28372  function updateFees(... */\n    tag_64:\n        /* \"Wrapped-tokens/WXZO.sol\":10613:10619  _owner */\n      and(sub(shl(0xa0, 0x01), 0x01), sload(0x00))\n        /* \"Wrapped-tokens/WXZO.sol\":3857:3867  msg.sender */\n      caller\n        /* \"Wrapped-tokens/WXZO.sol\":10613:10635  _owner == _msgSender() */\n      eq\n        /* \"Wrapped-tokens/WXZO.sol\":10605:10672  require(_owner == _msgSender(), \"Ownable: caller is not the owner\") */\n      tag_183\n      jumpi\n      mload(0x40)\n      shl(0xe5, 0x461bcd)\n      dup2\n      mstore\n      0x04\n      add\n      tag_184\n      swap1\n      tag_185\n      jump\t// in\n    tag_184:\n      mload(0x40)\n      dup1\n      swap2\n      sub\n      swap1\n      revert\n    tag_183:\n        /* \"Wrapped-tokens/WXZO.sol\":28121:28125  2500 */\n      0x09c4\n        /* \"Wrapped-tokens/WXZO.sol\":28075:28117  liquidityFee.add(burnFee).add(donationFee) */\n      tag_187\n        /* \"Wrapped-tokens/WXZO.sol\":28105:28116  donationFee */\n      dup3\n        /* \"Wrapped-tokens/WXZO.sol\":28075:28100  liquidityFee.add(burnFee) */\n      tag_188\n        /* \"Wrapped-tokens/WXZO.sol\":28075:28087  liquidityFee */\n      dup7\n        /* \"Wrapped-tokens/WXZO.sol\":28092:28099  burnFee */\n      dup7\n        /* \"Wrapped-tokens/WXZO.sol\":28075:28091  liquidityFee.add */\n      tag_167\n        /* \"Wrapped-tokens/WXZO.sol\":28075:28100  liquidityFee.add(burnFee) */\n      jump\t// in\n    tag_188:\n        /* \"Wrapped-tokens/WXZO.sol\":28075:28104  liquidityFee.add(burnFee).add */\n      swap1\n      tag_167\n        /* \"Wrapped-tokens/WXZO.sol\":28075:28117  liquidityFee.add(burnFee).add(donationFee) */\n      jump\t// in\n    tag_187:\n        /* \"Wrapped-tokens/WXZO.sol\":28075:28125  liquidityFee.add(burnFee).add(donationFee) <= 2500 */\n      gt\n      iszero\n        /* \"Wrapped-tokens/WXZO.sol\":28054:28190  require(... */\n      tag_189\n      jumpi\n      mload(0x40)\n      shl(0xe5, 0x461bcd)\n      dup2\n      mstore\n        /* \"#utility.yul\":6705:6707   */\n      0x20\n        /* \"Wrapped-tokens/WXZO.sol\":28054:28190  require(... */\n      0x04\n      dup3\n      add\n        /* \"#utility.yul\":6687:6708   */\n      mstore\n        /* \"#utility.yul\":6744:6746   */\n      0x27\n        /* \"#utility.yul\":6724:6742   */\n      0x24\n      dup3\n      add\n        /* \"#utility.yul\":6717:6747   */\n      mstore\n        /* \"#utility.yul\":6783:6817   */\n      0x45787a6f3a20596f752063616e6e6f74742073657420666565206d6f72652074\n        /* \"#utility.yul\":6763:6781   */\n      0x44\n      dup3\n      add\n        /* \"#utility.yul\":6756:6818   */\n      mstore\n      shl(0xc8, 0x68616e20323525)\n        /* \"#utility.yul\":6834:6852   */\n      0x64\n      dup3\n      add\n        /* \"#utility.yul\":6827:6864   */\n      mstore\n        /* \"#utility.yul\":6881:6900   */\n      0x84\n      add\n        /* \"Wrapped-tokens/WXZO.sol\":28054:28190  require(... */\n      tag_184\n        /* \"#utility.yul\":6503:6906   */\n      jump\n        /* \"Wrapped-tokens/WXZO.sol\":28054:28190  require(... */\n    tag_189:\n        /* \"Wrapped-tokens/WXZO.sol\":28200:28213  _liquidityFee */\n      0x0e\n        /* \"Wrapped-tokens/WXZO.sol\":28200:28228  _liquidityFee = liquidityFee */\n      dup4\n      swap1\n      sstore\n        /* \"Wrapped-tokens/WXZO.sol\":28238:28246  _burnFee */\n      0x10\n        /* \"Wrapped-tokens/WXZO.sol\":28238:28256  _burnFee = burnFee */\n      dup3\n      swap1\n      sstore\n        /* \"Wrapped-tokens/WXZO.sol\":28266:28278  _donationFee */\n      0x0f\n        /* \"Wrapped-tokens/WXZO.sol\":28266:28292  _donationFee = donationFee */\n      dup2\n      swap1\n      sstore\n        /* \"Wrapped-tokens/WXZO.sol\":28308:28365  TaxFeeUpdated(liquidityFee.add(burnFee).add(donationFee)) */\n      0xaa4b71ac29531fdea0ef1650c76ef91e3771dac25f4a4dd2a561ff3e0b9a5de2\n        /* \"Wrapped-tokens/WXZO.sol\":28322:28364  liquidityFee.add(burnFee).add(donationFee) */\n      tag_192\n        /* \"Wrapped-tokens/WXZO.sol\":28281:28292  donationFee */\n      dup3\n        /* \"Wrapped-tokens/WXZO.sol\":28322:28347  liquidityFee.add(burnFee) */\n      tag_188\n        /* \"Wrapped-tokens/WXZO.sol\":28216:28228  liquidityFee */\n      dup7\n        /* \"Wrapped-tokens/WXZO.sol\":28249:28256  burnFee */\n      dup7\n        /* \"Wrapped-tokens/WXZO.sol\":28322:28338  liquidityFee.add */\n      tag_167\n        /* \"Wrapped-tokens/WXZO.sol\":28322:28347  liquidityFee.add(burnFee) */\n      jump\t// in\n        /* \"Wrapped-tokens/WXZO.sol\":28322:28364  liquidityFee.add(burnFee).add(donationFee) */\n    tag_192:\n        /* \"Wrapped-tokens/WXZO.sol\":28308:28365  TaxFeeUpdated(liquidityFee.add(burnFee).add(donationFee)) */\n      mload(0x40)\n        /* \"#utility.yul\":1596:1621   */\n      swap1\n      dup2\n      mstore\n        /* \"#utility.yul\":1584:1586   */\n      0x20\n        /* \"#utility.yul\":1569:1587   */\n      add\n        /* \"Wrapped-tokens/WXZO.sol\":28308:28365  TaxFeeUpdated(liquidityFee.add(burnFee).add(donationFee)) */\n      mload(0x40)\n      dup1\n      swap2\n      sub\n      swap1\n      log1\n        /* \"Wrapped-tokens/WXZO.sol\":27915:28372  function updateFees(... */\n      pop\n      pop\n      pop\n      jump\t// out\n        /* \"Wrapped-tokens/WXZO.sol\":23992:24709  function transferFrom(... */\n    tag_68:\n        /* \"Wrapped-tokens/WXZO.sol\":24112:24116  bool */\n      0x00\n      sub(shl(0xa0, 0x01), 0x01)\n        /* \"Wrapped-tokens/WXZO.sol\":24136:24152  to != address(0) */\n      dup4\n      and\n      iszero\n      iszero\n      dup1\n        /* \"Wrapped-tokens/WXZO.sol\":24136:24175  to != address(0) || to != address(this) */\n      tag_196\n      jumpi\n      pop\n      sub(shl(0xa0, 0x01), 0x01)\n        /* \"Wrapped-tokens/WXZO.sol\":24156:24175  to != address(this) */\n      dup4\n      and\n        /* \"Wrapped-tokens/WXZO.sol\":24170:24174  this */\n      address\n        /* \"Wrapped-tokens/WXZO.sol\":24156:24175  to != address(this) */\n      eq\n      iszero\n        /* \"Wrapped-tokens/WXZO.sol\":24136:24175  to != address(0) || to != address(this) */\n    tag_196:\n        /* \"Wrapped-tokens/WXZO.sol\":24128:24176  require(to != address(0) || to != address(this)) */\n      tag_197\n      jumpi\n      0x00\n      dup1\n      revert\n    tag_197:\n      sub(shl(0xa0, 0x01), 0x01)\n        /* \"Wrapped-tokens/WXZO.sol\":24190:24208  from != msg.sender */\n      dup5\n      and\n        /* \"Wrapped-tokens/WXZO.sol\":24198:24208  msg.sender */\n      caller\n        /* \"Wrapped-tokens/WXZO.sol\":24190:24208  from != msg.sender */\n      eq\n        /* \"Wrapped-tokens/WXZO.sol\":24186:24646  if (from != msg.sender) {... */\n      tag_198\n      jumpi\n      sub(shl(0xa0, 0x01), 0x01)\n        /* \"Wrapped-tokens/WXZO.sol\":24242:24259  _allowances[from] */\n      dup5\n      and\n        /* \"Wrapped-tokens/WXZO.sol\":24224:24239  uint256 allowed */\n      0x00\n        /* \"Wrapped-tokens/WXZO.sol\":24242:24259  _allowances[from] */\n      swap1\n      dup2\n      mstore\n        /* \"Wrapped-tokens/WXZO.sol\":24242:24253  _allowances */\n      0x04\n        /* \"Wrapped-tokens/WXZO.sol\":24242:24259  _allowances[from] */\n      0x20\n      swap1\n      dup2\n      mstore\n      0x40\n      dup1\n      dup4\n      keccak256\n        /* \"Wrapped-tokens/WXZO.sol\":24260:24270  msg.sender */\n      caller\n        /* \"Wrapped-tokens/WXZO.sol\":24242:24271  _allowances[from][msg.sender] */\n      dup5\n      mstore\n      swap1\n      swap2\n      mstore\n      swap1\n      keccak256\n      sload\n      not(0x00)\n        /* \"Wrapped-tokens/WXZO.sol\":24289:24317  allowed != type(uint256).max */\n      dup2\n      eq\n        /* \"Wrapped-tokens/WXZO.sol\":24285:24636  if (allowed != type(uint256).max) {... */\n      tag_199\n      jumpi\n        /* \"Wrapped-tokens/WXZO.sol\":24377:24382  value */\n      dup3\n        /* \"Wrapped-tokens/WXZO.sol\":24366:24373  allowed */\n      dup2\n        /* \"Wrapped-tokens/WXZO.sol\":24366:24382  allowed >= value */\n      lt\n      iszero\n        /* \"Wrapped-tokens/WXZO.sol\":24337:24455  require(... */\n      tag_200\n      jumpi\n      mload(0x40)\n      shl(0xe5, 0x461bcd)\n      dup2\n      mstore\n        /* \"#utility.yul\":7113:7115   */\n      0x20\n        /* \"Wrapped-tokens/WXZO.sol\":24337:24455  require(... */\n      0x04\n      dup3\n      add\n        /* \"#utility.yul\":7095:7116   */\n      mstore\n        /* \"#utility.yul\":7152:7154   */\n      0x1f\n        /* \"#utility.yul\":7132:7150   */\n      0x24\n      dup3\n      add\n        /* \"#utility.yul\":7125:7155   */\n      mstore\n        /* \"#utility.yul\":7191:7224   */\n      0x45787a6f3a2072657175657374206578636565647320616c6c6f77616e636500\n        /* \"#utility.yul\":7171:7189   */\n      0x44\n      dup3\n      add\n        /* \"#utility.yul\":7164:7225   */\n      mstore\n        /* \"#utility.yul\":7242:7260   */\n      0x64\n      add\n        /* \"Wrapped-tokens/WXZO.sol\":24337:24455  require(... */\n      tag_184\n        /* \"#utility.yul\":6911:7266   */\n      jump\n        /* \"Wrapped-tokens/WXZO.sol\":24337:24455  require(... */\n    tag_200:\n        /* \"Wrapped-tokens/WXZO.sol\":24473:24488  uint256 reduced */\n      0x00\n        /* \"Wrapped-tokens/WXZO.sol\":24491:24506  allowed - value */\n      tag_203\n        /* \"Wrapped-tokens/WXZO.sol\":24501:24506  value */\n      dup5\n        /* \"Wrapped-tokens/WXZO.sol\":24491:24498  allowed */\n      dup4\n        /* \"Wrapped-tokens/WXZO.sol\":24491:24506  allowed - value */\n      tag_204\n      jump\t// in\n    tag_203:\n      sub(shl(0xa0, 0x01), 0x01)\n        /* \"Wrapped-tokens/WXZO.sol\":24524:24541  _allowances[from] */\n      dup8\n      and\n      0x00\n      dup2\n      dup2\n      mstore\n        /* \"Wrapped-tokens/WXZO.sol\":24524:24535  _allowances */\n      0x04\n        /* \"Wrapped-tokens/WXZO.sol\":24524:24541  _allowances[from] */\n      0x20\n      swap1\n      dup2\n      mstore\n      0x40\n      dup1\n      dup4\n      keccak256\n        /* \"Wrapped-tokens/WXZO.sol\":24542:24552  msg.sender */\n      caller\n        /* \"Wrapped-tokens/WXZO.sol\":24524:24553  _allowances[from][msg.sender] */\n      dup1\n      dup6\n      mstore\n      swap1\n      dup4\n      mstore\n      swap3\n      dup2\n      swap1\n      keccak256\n        /* \"Wrapped-tokens/WXZO.sol\":24524:24563  _allowances[from][msg.sender] = reduced */\n      dup6\n      swap1\n      sstore\n        /* \"Wrapped-tokens/WXZO.sol\":24586:24621  Approval(from, msg.sender, reduced) */\n      mload\n        /* \"#utility.yul\":1596:1621   */\n      dup5\n      dup2\n      mstore\n        /* \"Wrapped-tokens/WXZO.sol\":24524:24563  _allowances[from][msg.sender] = reduced */\n      swap4\n      swap5\n      pop\n        /* \"Wrapped-tokens/WXZO.sol\":24542:24552  msg.sender */\n      swap1\n      swap3\n        /* \"Wrapped-tokens/WXZO.sol\":24586:24621  Approval(from, msg.sender, reduced) */\n      0x8c5be1e5ebec7d5bd14f71427d1e84f3dd0314c0f7b2291e5b200ac8c7c3b925\n      swap2\n        /* \"#utility.yul\":1569:1587   */\n      add\n        /* \"Wrapped-tokens/WXZO.sol\":24586:24621  Approval(from, msg.sender, reduced) */\n      mload(0x40)\n      dup1\n      swap2\n      sub\n      swap1\n      log3\n        /* \"Wrapped-tokens/WXZO.sol\":24319:24636  {... */\n      pop\n        /* \"Wrapped-tokens/WXZO.sol\":24285:24636  if (allowed != type(uint256).max) {... */\n    tag_199:\n        /* \"Wrapped-tokens/WXZO.sol\":24210:24646  {... */\n      pop\n        /* \"Wrapped-tokens/WXZO.sol\":24186:24646  if (from != msg.sender) {... */\n    tag_198:\n        /* \"Wrapped-tokens/WXZO.sol\":24655:24681  _transfer(from, to, value) */\n      tag_206\n        /* \"Wrapped-tokens/WXZO.sol\":24665:24669  from */\n      dup5\n        /* \"Wrapped-tokens/WXZO.sol\":24671:24673  to */\n      dup5\n        /* \"Wrapped-tokens/WXZO.sol\":24675:24680  value */\n      dup5\n        /* \"Wrapped-tokens/WXZO.sol\":24655:24664  _transfer */\n      tag_207\n        /* \"Wrapped-tokens/WXZO.sol\":24655:24681  _transfer(from, to, value) */\n      jump\t// in\n    tag_206:\n      pop\n        /* \"Wrapped-tokens/WXZO.sol\":24698:24702  true */\n      0x01\n        /* \"Wrapped-tokens/WXZO.sol\":23992:24709  function transferFrom(... */\n      swap4\n      swap3\n      pop\n      pop\n      pop\n      jump\t// out\n        /* \"Wrapped-tokens/WXZO.sol\":29125:29446  function setMaxTxPercentage(uint256 maxTxPercentage) external onlyOwner {... */\n    tag_73:\n        /* \"Wrapped-tokens/WXZO.sol\":10613:10619  _owner */\n      and(sub(shl(0xa0, 0x01), 0x01), sload(0x00))\n        /* \"Wrapped-tokens/WXZO.sol\":3857:3867  msg.sender */\n      caller\n        /* \"Wrapped-tokens/WXZO.sol\":10613:10635  _owner == _msgSender() */\n      eq\n        /* \"Wrapped-tokens/WXZO.sol\":10605:10672  require(_owner == _msgSender(), \"Ownable: caller is not the owner\") */\n      tag_210\n      jumpi\n      mload(0x40)\n      shl(0xe5, 0x461bcd)\n      dup2\n      mstore\n      0x04\n      add\n      tag_184\n      swap1\n      tag_185\n      jump\t// in\n    tag_210:\n        /* \"Wrapped-tokens/WXZO.sol\":29247:29248  1 */\n      0x01\n        /* \"Wrapped-tokens/WXZO.sol\":29228:29243  maxTxPercentage */\n      dup2\n        /* \"Wrapped-tokens/WXZO.sol\":29228:29248  maxTxPercentage >= 1 */\n      lt\n      iszero\n        /* \"Wrapped-tokens/WXZO.sol\":29207:29323  require(... */\n      tag_213\n      jumpi\n      mload(0x40)\n      shl(0xe5, 0x461bcd)\n      dup2\n      mstore\n        /* \"#utility.yul\":7738:7740   */\n      0x20\n        /* \"Wrapped-tokens/WXZO.sol\":29207:29323  require(... */\n      0x04\n      dup3\n      add\n        /* \"#utility.yul\":7720:7741   */\n      mstore\n        /* \"#utility.yul\":7777:7779   */\n      0x31\n        /* \"#utility.yul\":7757:7775   */\n      0x24\n      dup3\n      add\n        /* \"#utility.yul\":7750:7780   */\n      mstore\n        /* \"#utility.yul\":7816:7850   */\n      0x45787a6f3a2050657263656e746167652073686f756c64206265206772656174\n        /* \"#utility.yul\":7796:7814   */\n      0x44\n      dup3\n      add\n        /* \"#utility.yul\":7789:7851   */\n      mstore\n      shl(0x78, 0x6572206f7220657175616c20746f203121)\n        /* \"#utility.yul\":7867:7885   */\n      0x64\n      dup3\n      add\n        /* \"#utility.yul\":7860:7907   */\n      mstore\n        /* \"#utility.yul\":7924:7943   */\n      0x84\n      add\n        /* \"Wrapped-tokens/WXZO.sol\":29207:29323  require(... */\n      tag_184\n        /* \"#utility.yul\":7536:7949   */\n      jump\n        /* \"Wrapped-tokens/WXZO.sol\":29207:29323  require(... */\n    tag_213:\n        /* \"Wrapped-tokens/WXZO.sol\":29348:29392  _totalSupply.mul(maxTxPercentage).div(10**2) */\n      tag_216\n        /* \"Wrapped-tokens/WXZO.sol\":29386:29391  10**2 */\n      0x64\n        /* \"Wrapped-tokens/WXZO.sol\":29348:29381  _totalSupply.mul(maxTxPercentage) */\n      tag_217\n        /* \"Wrapped-tokens/WXZO.sol\":29365:29380  maxTxPercentage */\n      dup4\n        /* \"Wrapped-tokens/WXZO.sol\":29348:29360  _totalSupply */\n      sload(0x0a)\n        /* \"Wrapped-tokens/WXZO.sol\":29348:29364  _totalSupply.mul */\n      tag_218\n      swap1\n        /* \"Wrapped-tokens/WXZO.sol\":29348:29381  _totalSupply.mul(maxTxPercentage) */\n      swap2\n      swap1\n      0xffffffff\n      and\n      jump\t// in\n    tag_217:\n        /* \"Wrapped-tokens/WXZO.sol\":29348:29385  _totalSupply.mul(maxTxPercentage).div */\n      swap1\n      tag_219\n        /* \"Wrapped-tokens/WXZO.sol\":29348:29392  _totalSupply.mul(maxTxPercentage).div(10**2) */\n      jump\t// in\n    tag_216:\n        /* \"Wrapped-tokens/WXZO.sol\":29333:29345  _maxTxAmount */\n      0x13\n        /* \"Wrapped-tokens/WXZO.sol\":29333:29392  _maxTxAmount = _totalSupply.mul(maxTxPercentage).div(10**2) */\n      dup2\n      swap1\n      sstore\n        /* \"Wrapped-tokens/WXZO.sol\":29407:29439  MaxTxAmountUpdated(_maxTxAmount) */\n      mload(0x40)\n        /* \"#utility.yul\":1596:1621   */\n      swap1\n      dup2\n      mstore\n        /* \"Wrapped-tokens/WXZO.sol\":29407:29439  MaxTxAmountUpdated(_maxTxAmount) */\n      0x947f344d56e1e8c70dc492fb94c4ddddd490c016aab685f5e7e47b2e85cb44cf\n      swap1\n        /* \"#utility.yul\":1584:1586   */\n      0x20\n        /* \"#utility.yul\":1569:1587   */\n      add\n        /* \"Wrapped-tokens/WXZO.sol\":29407:29439  MaxTxAmountUpdated(_maxTxAmount) */\n      mload(0x40)\n      dup1\n      swap2\n      sub\n      swap1\n      log1\n        /* \"Wrapped-tokens/WXZO.sol\":29125:29446  function setMaxTxPercentage(uint256 maxTxPercentage) external onlyOwner {... */\n      pop\n      jump\t// out\n        /* \"Wrapped-tokens/WXZO.sol\":24715:25001  function increaseAllowance(address spender, uint256 addedValue)... */\n    tag_80:\n        /* \"Wrapped-tokens/WXZO.sol\":3857:3867  msg.sender */\n      caller\n        /* \"Wrapped-tokens/WXZO.sol\":24827:24831  bool */\n      0x00\n        /* \"Wrapped-tokens/WXZO.sol\":24916:24941  _allowances[_msgSender()] */\n      dup2\n      dup2\n      mstore\n        /* \"Wrapped-tokens/WXZO.sol\":24916:24927  _allowances */\n      0x04\n        /* \"Wrapped-tokens/WXZO.sol\":24916:24941  _allowances[_msgSender()] */\n      0x20\n      swap1\n      dup2\n      mstore\n      0x40\n      dup1\n      dup4\n      keccak256\n      sub(shl(0xa0, 0x01), 0x01)\n        /* \"Wrapped-tokens/WXZO.sol\":24916:24950  _allowances[_msgSender()][spender] */\n      dup8\n      and\n      dup5\n      mstore\n      swap1\n      swap2\n      mstore\n      dup2\n      keccak256\n      sload\n        /* \"Wrapped-tokens/WXZO.sol\":24827:24831  bool */\n      swap1\n      swap2\n        /* \"Wrapped-tokens/WXZO.sol\":24847:24973  _approve(... */\n      tag_176\n      swap2\n        /* \"Wrapped-tokens/WXZO.sol\":24895:24902  spender */\n      dup6\n      swap1\n        /* \"Wrapped-tokens/WXZO.sol\":24916:24963  _allowances[_msgSender()][spender] + addedValue */\n      tag_226\n      swap1\n        /* \"Wrapped-tokens/WXZO.sol\":24953:24963  addedValue */\n      dup7\n      swap1\n        /* \"Wrapped-tokens/WXZO.sol\":24916:24963  _allowances[_msgSender()][spender] + addedValue */\n      tag_227\n      jump\t// in\n    tag_226:\n        /* \"Wrapped-tokens/WXZO.sol\":24847:24855  _approve */\n      tag_179\n        /* \"Wrapped-tokens/WXZO.sol\":24847:24973  _approve(... */\n      jump\t// in\n        /* \"Wrapped-tokens/WXZO.sol\":29452:29972  function _mint(address account, uint256 amount) public virtual onlyOwner {... */\n    tag_93:\n        /* \"Wrapped-tokens/WXZO.sol\":10613:10619  _owner */\n      and(sub(shl(0xa0, 0x01), 0x01), sload(0x00))\n        /* \"Wrapped-tokens/WXZO.sol\":3857:3867  msg.sender */\n      caller\n        /* \"Wrapped-tokens/WXZO.sol\":10613:10635  _owner == _msgSender() */\n      eq\n        /* \"Wrapped-tokens/WXZO.sol\":10605:10672  require(_owner == _msgSender(), \"Ownable: caller is not the owner\") */\n      tag_231\n      jumpi\n      mload(0x40)\n      shl(0xe5, 0x461bcd)\n      dup2\n      mstore\n      0x04\n      add\n      tag_184\n      swap1\n      tag_185\n      jump\t// in\n    tag_231:\n        /* \"Wrapped-tokens/WXZO.sol\":29565:29574  _decimals */\n      sload(0x0d)\n        /* \"Wrapped-tokens/WXZO.sol\":29535:29549  uint256 Amount */\n      0x00\n      swap1\n        /* \"Wrapped-tokens/WXZO.sol\":29561:29574  10**_decimals */\n      tag_234\n      swap1\n        /* \"Wrapped-tokens/WXZO.sol\":29565:29574  _decimals */\n      0xff\n      and\n        /* \"Wrapped-tokens/WXZO.sol\":29561:29563  10 */\n      0x0a\n        /* \"Wrapped-tokens/WXZO.sol\":29561:29574  10**_decimals */\n      tag_235\n      jump\t// in\n    tag_234:\n        /* \"Wrapped-tokens/WXZO.sol\":29552:29574  amount * 10**_decimals */\n      tag_236\n      swap1\n        /* \"Wrapped-tokens/WXZO.sol\":29552:29558  amount */\n      dup4\n        /* \"Wrapped-tokens/WXZO.sol\":29552:29574  amount * 10**_decimals */\n      tag_237\n      jump\t// in\n    tag_236:\n        /* \"Wrapped-tokens/WXZO.sol\":29535:29574  uint256 Amount = amount * 10**_decimals */\n      swap1\n      pop\n        /* \"Wrapped-tokens/WXZO.sol\":29633:29642  MaxSupply */\n      sload(0x09)\n        /* \"Wrapped-tokens/WXZO.sol\":29605:29629  _totalSupply.add(Amount) */\n      tag_238\n        /* \"Wrapped-tokens/WXZO.sol\":29622:29628  Amount */\n      dup3\n        /* \"Wrapped-tokens/WXZO.sol\":29605:29617  _totalSupply */\n      sload(0x0a)\n        /* \"Wrapped-tokens/WXZO.sol\":29605:29621  _totalSupply.add */\n      tag_167\n      swap1\n        /* \"Wrapped-tokens/WXZO.sol\":29605:29629  _totalSupply.add(Amount) */\n      swap2\n      swap1\n      0xffffffff\n      and\n      jump\t// in\n    tag_238:\n        /* \"Wrapped-tokens/WXZO.sol\":29605:29642  _totalSupply.add(Amount) <= MaxSupply */\n      gt\n      iszero\n        /* \"Wrapped-tokens/WXZO.sol\":29584:29708  require(... */\n      tag_239\n      jumpi\n      mload(0x40)\n      shl(0xe5, 0x461bcd)\n      dup2\n      mstore\n        /* \"#utility.yul\":9842:9844   */\n      0x20\n        /* \"Wrapped-tokens/WXZO.sol\":29584:29708  require(... */\n      0x04\n      dup3\n      add\n        /* \"#utility.yul\":9824:9845   */\n      mstore\n        /* \"#utility.yul\":9881:9883   */\n      0x28\n        /* \"#utility.yul\":9861:9879   */\n      0x24\n      dup3\n      add\n        /* \"#utility.yul\":9854:9884   */\n      mstore\n        /* \"#utility.yul\":9920:9954   */\n      0x45787a6f3a20596f752063616e2774206d696e74206d6f7265207468616e204d\n        /* \"#utility.yul\":9900:9918   */\n      0x44\n      dup3\n      add\n        /* \"#utility.yul\":9893:9955   */\n      mstore\n      shl(0xc0, 0x6178537570706c79)\n        /* \"#utility.yul\":9971:9989   */\n      0x64\n      dup3\n      add\n        /* \"#utility.yul\":9964:10002   */\n      mstore\n        /* \"#utility.yul\":10019:10038   */\n      0x84\n      add\n        /* \"Wrapped-tokens/WXZO.sol\":29584:29708  require(... */\n      tag_184\n        /* \"#utility.yul\":9640:10044   */\n      jump\n        /* \"Wrapped-tokens/WXZO.sol\":29584:29708  require(... */\n    tag_239:\n      sub(shl(0xa0, 0x01), 0x01)\n        /* \"Wrapped-tokens/WXZO.sol\":29726:29747  account != address(0) */\n      dup4\n      and\n        /* \"Wrapped-tokens/WXZO.sol\":29718:29782  require(account != address(0), \"Exzo: mint to the zero address\") */\n      tag_242\n      jumpi\n      mload(0x40)\n      shl(0xe5, 0x461bcd)\n      dup2\n      mstore\n        /* \"#utility.yul\":10251:10253   */\n      0x20\n        /* \"Wrapped-tokens/WXZO.sol\":29718:29782  require(account != address(0), \"Exzo: mint to the zero address\") */\n      0x04\n      dup3\n      add\n        /* \"#utility.yul\":10233:10254   */\n      mstore\n        /* \"#utility.yul\":10290:10292   */\n      0x1e\n        /* \"#utility.yul\":10270:10288   */\n      0x24\n      dup3\n      add\n        /* \"#utility.yul\":10263:10293   */\n      mstore\n        /* \"#utility.yul\":10329:10361   */\n      0x45787a6f3a206d696e7420746f20746865207a65726f20616464726573730000\n        /* \"#utility.yul\":10309:10327   */\n      0x44\n      dup3\n      add\n        /* \"#utility.yul\":10302:10362   */\n      mstore\n        /* \"#utility.yul\":10379:10397   */\n      0x64\n      add\n        /* \"Wrapped-tokens/WXZO.sol\":29718:29782  require(account != address(0), \"Exzo: mint to the zero address\") */\n      tag_184\n        /* \"#utility.yul\":10049:10403   */\n      jump\n        /* \"Wrapped-tokens/WXZO.sol\":29718:29782  require(account != address(0), \"Exzo: mint to the zero address\") */\n    tag_242:\n        /* \"Wrapped-tokens/WXZO.sol\":29869:29875  Amount */\n      dup1\n        /* \"Wrapped-tokens/WXZO.sol\":29853:29865  _totalSupply */\n      0x0a\n      0x00\n        /* \"Wrapped-tokens/WXZO.sol\":29853:29875  _totalSupply += Amount */\n      dup3\n      dup3\n      sload\n      tag_247\n      swap2\n      swap1\n      tag_227\n      jump\t// in\n    tag_247:\n      swap1\n      swap2\n      sstore\n      pop\n      pop\n      sub(shl(0xa0, 0x01), 0x01)\n        /* \"Wrapped-tokens/WXZO.sol\":29885:29903  _balances[account] */\n      dup4\n      and\n      0x00\n      swap1\n      dup2\n      mstore\n        /* \"Wrapped-tokens/WXZO.sol\":29885:29894  _balances */\n      0x03\n        /* \"Wrapped-tokens/WXZO.sol\":29885:29903  _balances[account] */\n      0x20\n      mstore\n      0x40\n      dup2\n      keccak256\n        /* \"Wrapped-tokens/WXZO.sol\":29885:29913  _balances[account] += Amount */\n      dup1\n      sload\n        /* \"Wrapped-tokens/WXZO.sol\":29907:29913  Amount */\n      dup4\n      swap3\n        /* \"Wrapped-tokens/WXZO.sol\":29885:29903  _balances[account] */\n      swap1\n        /* \"Wrapped-tokens/WXZO.sol\":29885:29913  _balances[account] += Amount */\n      tag_248\n      swap1\n        /* \"Wrapped-tokens/WXZO.sol\":29907:29913  Amount */\n      dup5\n      swap1\n        /* \"Wrapped-tokens/WXZO.sol\":29885:29913  _balances[account] += Amount */\n      tag_227\n      jump\t// in\n    tag_248:\n      swap1\n      swap2\n      sstore\n      pop\n      pop\n        /* \"Wrapped-tokens/WXZO.sol\":29928:29965  Transfer(address(0), account, Amount) */\n      mload(0x40)\n        /* \"#utility.yul\":1596:1621   */\n      dup2\n      dup2\n      mstore\n      sub(shl(0xa0, 0x01), 0x01)\n        /* \"Wrapped-tokens/WXZO.sol\":29928:29965  Transfer(address(0), account, Amount) */\n      dup5\n      and\n      swap1\n        /* \"Wrapped-tokens/WXZO.sol\":29945:29946  0 */\n      0x00\n      swap1\n      0x00\n      dup1\n      mload\n      0x20\n      data_ada389e1fc24a8587c776340efb91b36e675792ab631816100d55df0b5cf3cbc\n      dup4\n      codecopy\n      dup2\n      mload\n      swap2\n      mstore\n        /* \"Wrapped-tokens/WXZO.sol\":29928:29965  Transfer(address(0), account, Amount) */\n      swap1\n        /* \"#utility.yul\":1584:1586   */\n      0x20\n        /* \"#utility.yul\":1569:1587   */\n      add\n        /* \"Wrapped-tokens/WXZO.sol\":29928:29965  Transfer(address(0), account, Amount) */\n    tag_249:\n      mload(0x40)\n      dup1\n      swap2\n      sub\n      swap1\n      log3\n        /* \"Wrapped-tokens/WXZO.sol\":29525:29972  {... */\n      pop\n        /* \"Wrapped-tokens/WXZO.sol\":29452:29972  function _mint(address account, uint256 amount) public virtual onlyOwner {... */\n      pop\n      pop\n      jump\t// out\n        /* \"Wrapped-tokens/WXZO.sol\":23060:23190  function setDonationWallet(address payable _donationWallet) external onlyOwner() {... */\n    tag_101:\n        /* \"Wrapped-tokens/WXZO.sol\":10613:10619  _owner */\n      and(sub(shl(0xa0, 0x01), 0x01), sload(0x00))\n        /* \"Wrapped-tokens/WXZO.sol\":3857:3867  msg.sender */\n      caller\n        /* \"Wrapped-tokens/WXZO.sol\":10613:10635  _owner == _msgSender() */\n      eq\n        /* \"Wrapped-tokens/WXZO.sol\":10605:10672  require(_owner == _msgSender(), \"Ownable: caller is not the owner\") */\n      tag_253\n      jumpi\n      mload(0x40)\n      shl(0xe5, 0x461bcd)\n      dup2\n      mstore\n      0x04\n      add\n      tag_184\n      swap1\n      tag_185\n      jump\t// in\n    tag_253:\n        /* \"Wrapped-tokens/WXZO.sol\":23151:23165  donationWallet */\n      0x08\n        /* \"Wrapped-tokens/WXZO.sol\":23151:23183  donationWallet = _donationWallet */\n      dup1\n      sload\n      not(sub(shl(0xa0, 0x01), 0x01))\n      and\n      sub(shl(0xa0, 0x01), 0x01)\n      swap3\n      swap1\n      swap3\n      and\n      swap2\n      swap1\n      swap2\n      or\n      swap1\n      sstore\n        /* \"Wrapped-tokens/WXZO.sol\":23060:23190  function setDonationWallet(address payable _donationWallet) external onlyOwner() {... */\n      jump\t// out\n        /* \"Wrapped-tokens/WXZO.sol\":11032:11177  function renounceOwnership() public virtual onlyOwner {... */\n    tag_110:\n        /* \"Wrapped-tokens/WXZO.sol\":10613:10619  _owner */\n      and(sub(shl(0xa0, 0x01), 0x01), sload(0x00))\n        /* \"Wrapped-tokens/WXZO.sol\":3857:3867  msg.sender */\n      caller\n        /* \"Wrapped-tokens/WXZO.sol\":10613:10635  _owner == _msgSender() */\n      eq\n        /* \"Wrapped-tokens/WXZO.sol\":10605:10672  require(_owner == _msgSender(), \"Ownable: caller is not the owner\") */\n      tag_259\n      jumpi\n      mload(0x40)\n      shl(0xe5, 0x461bcd)\n      dup2\n      mstore\n      0x04\n      add\n      tag_184\n      swap1\n      tag_185\n      jump\t// in\n    tag_259:\n        /* \"Wrapped-tokens/WXZO.sol\":11138:11139  0 */\n      0x00\n        /* \"Wrapped-tokens/WXZO.sol\":11122:11128  _owner */\n      dup1\n      sload\n        /* \"Wrapped-tokens/WXZO.sol\":11101:11141  OwnershipTransferred(_owner, address(0)) */\n      mload(0x40)\n      sub(shl(0xa0, 0x01), 0x01)\n        /* \"Wrapped-tokens/WXZO.sol\":11122:11128  _owner */\n      swap1\n      swap2\n      and\n      swap1\n        /* \"Wrapped-tokens/WXZO.sol\":11101:11141  OwnershipTransferred(_owner, address(0)) */\n      0x8be0079c531659141344cd1fd0a4f28419497f9722a3daafe3b4186f6b6457e0\n      swap1\n        /* \"Wrapped-tokens/WXZO.sol\":11138:11139  0 */\n      dup4\n      swap1\n        /* \"Wrapped-tokens/WXZO.sol\":11101:11141  OwnershipTransferred(_owner, address(0)) */\n      log3\n        /* \"Wrapped-tokens/WXZO.sol\":11168:11169  0 */\n      0x00\n        /* \"Wrapped-tokens/WXZO.sol\":11151:11170  _owner = address(0) */\n      dup1\n      sload\n      not(sub(shl(0xa0, 0x01), 0x01))\n      and\n      swap1\n      sstore\n        /* \"Wrapped-tokens/WXZO.sol\":11032:11177  function renounceOwnership() public virtual onlyOwner {... */\n      jump\t// out\n        /* \"Wrapped-tokens/WXZO.sol\":22736:22838  function symbol() public view virtual override returns (string memory) {... */\n    tag_118:\n        /* \"Wrapped-tokens/WXZO.sol\":22792:22805  string memory */\n      0x60\n        /* \"Wrapped-tokens/WXZO.sol\":22824:22831  _symbol */\n      0x0c\n        /* \"Wrapped-tokens/WXZO.sol\":22817:22831  return _symbol */\n      dup1\n      sload\n      tag_169\n      swap1\n      tag_170\n      jump\t// in\n        /* \"Wrapped-tokens/WXZO.sol\":29978:30529  function _burn(uint256 amount) external virtual {... */\n    tag_122:\n        /* \"Wrapped-tokens/WXZO.sol\":30066:30075  _decimals */\n      sload(0x0d)\n        /* \"Wrapped-tokens/WXZO.sol\":30036:30050  uint256 Amount */\n      0x00\n      swap1\n        /* \"Wrapped-tokens/WXZO.sol\":30062:30075  10**_decimals */\n      tag_270\n      swap1\n        /* \"Wrapped-tokens/WXZO.sol\":30066:30075  _decimals */\n      0xff\n      and\n        /* \"Wrapped-tokens/WXZO.sol\":30062:30064  10 */\n      0x0a\n        /* \"Wrapped-tokens/WXZO.sol\":30062:30075  10**_decimals */\n      tag_235\n      jump\t// in\n    tag_270:\n        /* \"Wrapped-tokens/WXZO.sol\":30053:30075  amount * 10**_decimals */\n      tag_271\n      swap1\n        /* \"Wrapped-tokens/WXZO.sol\":30053:30059  amount */\n      dup4\n        /* \"Wrapped-tokens/WXZO.sol\":30053:30075  amount * 10**_decimals */\n      tag_237\n      jump\t// in\n    tag_271:\n        /* \"Wrapped-tokens/WXZO.sol\":30036:30075  uint256 Amount = amount * 10**_decimals */\n      swap1\n      pop\n        /* \"Wrapped-tokens/WXZO.sol\":30103:30113  msg.sender */\n      caller\n      dup1\n        /* \"Wrapped-tokens/WXZO.sol\":30123:30189  require(account != address(0), \"Exzo: burn from the zero address\") */\n      tag_272\n      jumpi\n      mload(0x40)\n      shl(0xe5, 0x461bcd)\n      dup2\n      mstore\n        /* \"#utility.yul\":10610:10612   */\n      0x20\n        /* \"Wrapped-tokens/WXZO.sol\":30123:30189  require(account != address(0), \"Exzo: burn from the zero address\") */\n      0x04\n      dup3\n      add\n        /* \"#utility.yul\":10592:10613   */\n      dup2\n      swap1\n      mstore\n        /* \"#utility.yul\":10629:10647   */\n      0x24\n      dup3\n      add\n        /* \"#utility.yul\":10622:10652   */\n      mstore\n        /* \"#utility.yul\":10688:10722   */\n      0x45787a6f3a206275726e2066726f6d20746865207a65726f2061646472657373\n        /* \"#utility.yul\":10668:10686   */\n      0x44\n      dup3\n      add\n        /* \"#utility.yul\":10661:10723   */\n      mstore\n        /* \"#utility.yul\":10740:10758   */\n      0x64\n      add\n        /* \"Wrapped-tokens/WXZO.sol\":30123:30189  require(account != address(0), \"Exzo: burn from the zero address\") */\n      tag_184\n        /* \"#utility.yul\":10408:10764   */\n      jump\n        /* \"Wrapped-tokens/WXZO.sol\":30123:30189  require(account != address(0), \"Exzo: burn from the zero address\") */\n    tag_272:\n      sub(shl(0xa0, 0x01), 0x01)\n        /* \"Wrapped-tokens/WXZO.sol\":30285:30303  _balances[account] */\n      dup2\n      and\n        /* \"Wrapped-tokens/WXZO.sol\":30260:30282  uint256 accountBalance */\n      0x00\n        /* \"Wrapped-tokens/WXZO.sol\":30285:30303  _balances[account] */\n      swap1\n      dup2\n      mstore\n        /* \"Wrapped-tokens/WXZO.sol\":30285:30294  _balances */\n      0x03\n        /* \"Wrapped-tokens/WXZO.sol\":30285:30303  _balances[account] */\n      0x20\n      mstore\n      0x40\n      swap1\n      keccak256\n      sload\n        /* \"Wrapped-tokens/WXZO.sol\":30321:30345  accountBalance >= Amount */\n      dup3\n      dup2\n      lt\n      iszero\n        /* \"Wrapped-tokens/WXZO.sol\":30313:30383  require(accountBalance >= Amount, \"Exzo: burn amount exceeds balance\") */\n      tag_276\n      jumpi\n      mload(0x40)\n      shl(0xe5, 0x461bcd)\n      dup2\n      mstore\n        /* \"#utility.yul\":10971:10973   */\n      0x20\n        /* \"Wrapped-tokens/WXZO.sol\":30313:30383  require(accountBalance >= Amount, \"Exzo: burn amount exceeds balance\") */\n      0x04\n      dup3\n      add\n        /* \"#utility.yul\":10953:10974   */\n      mstore\n        /* \"#utility.yul\":11010:11012   */\n      0x21\n        /* \"#utility.yul\":10990:11008   */\n      0x24\n      dup3\n      add\n        /* \"#utility.yul\":10983:11013   */\n      mstore\n        /* \"#utility.yul\":11049:11083   */\n      0x45787a6f3a206275726e20616d6f756e7420657863656564732062616c616e63\n        /* \"#utility.yul\":11029:11047   */\n      0x44\n      dup3\n      add\n        /* \"#utility.yul\":11022:11084   */\n      mstore\n      shl(0xf8, 0x65)\n        /* \"#utility.yul\":11100:11118   */\n      0x64\n      dup3\n      add\n        /* \"#utility.yul\":11093:11124   */\n      mstore\n        /* \"#utility.yul\":11141:11160   */\n      0x84\n      add\n        /* \"Wrapped-tokens/WXZO.sol\":30313:30383  require(accountBalance >= Amount, \"Exzo: burn amount exceeds balance\") */\n      tag_184\n        /* \"#utility.yul\":10769:11166   */\n      jump\n        /* \"Wrapped-tokens/WXZO.sol\":30313:30383  require(accountBalance >= Amount, \"Exzo: burn amount exceeds balance\") */\n    tag_276:\n        /* \"Wrapped-tokens/WXZO.sol\":30414:30437  accountBalance - Amount */\n      tag_279\n        /* \"Wrapped-tokens/WXZO.sol\":30431:30437  Amount */\n      dup4\n        /* \"Wrapped-tokens/WXZO.sol\":30414:30428  accountBalance */\n      dup3\n        /* \"Wrapped-tokens/WXZO.sol\":30414:30437  accountBalance - Amount */\n      tag_204\n      jump\t// in\n    tag_279:\n      sub(shl(0xa0, 0x01), 0x01)\n        /* \"Wrapped-tokens/WXZO.sol\":30393:30411  _balances[account] */\n      dup4\n      and\n      0x00\n      swap1\n      dup2\n      mstore\n        /* \"Wrapped-tokens/WXZO.sol\":30393:30402  _balances */\n      0x03\n        /* \"Wrapped-tokens/WXZO.sol\":30393:30411  _balances[account] */\n      0x20\n      mstore\n      0x40\n      dup2\n      keccak256\n        /* \"Wrapped-tokens/WXZO.sol\":30393:30437  _balances[account] = accountBalance - Amount */\n      swap2\n      swap1\n      swap2\n      sstore\n        /* \"Wrapped-tokens/WXZO.sol\":30447:30459  _totalSupply */\n      0x0a\n        /* \"Wrapped-tokens/WXZO.sol\":30447:30469  _totalSupply -= Amount */\n      dup1\n      sload\n        /* \"Wrapped-tokens/WXZO.sol\":30463:30469  Amount */\n      dup6\n      swap3\n        /* \"Wrapped-tokens/WXZO.sol\":30393:30411  _balances[account] */\n      swap1\n        /* \"Wrapped-tokens/WXZO.sol\":30447:30469  _totalSupply -= Amount */\n      tag_280\n      swap1\n        /* \"Wrapped-tokens/WXZO.sol\":30463:30469  Amount */\n      dup5\n      swap1\n        /* \"Wrapped-tokens/WXZO.sol\":30447:30469  _totalSupply -= Amount */\n      tag_204\n      jump\t// in\n    tag_280:\n      swap1\n      swap2\n      sstore\n      pop\n      pop\n        /* \"Wrapped-tokens/WXZO.sol\":30485:30522  Transfer(account, address(0), Amount) */\n      mload(0x40)\n        /* \"#utility.yul\":1596:1621   */\n      dup4\n      dup2\n      mstore\n        /* \"Wrapped-tokens/WXZO.sol\":30511:30512  0 */\n      0x00\n      swap1\n      sub(shl(0xa0, 0x01), 0x01)\n        /* \"Wrapped-tokens/WXZO.sol\":30485:30522  Transfer(account, address(0), Amount) */\n      dup5\n      and\n      swap1\n      0x00\n      dup1\n      mload\n      0x20\n      data_ada389e1fc24a8587c776340efb91b36e675792ab631816100d55df0b5cf3cbc\n      dup4\n      codecopy\n      dup2\n      mload\n      swap2\n      mstore\n      swap1\n        /* \"#utility.yul\":1584:1586   */\n      0x20\n        /* \"#utility.yul\":1569:1587   */\n      add\n        /* \"Wrapped-tokens/WXZO.sol\":30485:30522  Transfer(account, address(0), Amount) */\n      mload(0x40)\n      dup1\n      swap2\n      sub\n      swap1\n      log3\n        /* \"Wrapped-tokens/WXZO.sol\":30026:30529  {... */\n      pop\n      pop\n      pop\n        /* \"Wrapped-tokens/WXZO.sol\":29978:30529  function _burn(uint256 amount) external virtual {... */\n      pop\n      jump\t// out\n        /* \"Wrapped-tokens/WXZO.sol\":25007:25439  function decreaseAllowance(address spender, uint256 subtractedValue)... */\n    tag_125:\n        /* \"Wrapped-tokens/WXZO.sol\":3857:3867  msg.sender */\n      caller\n        /* \"Wrapped-tokens/WXZO.sol\":25124:25128  bool */\n      0x00\n        /* \"Wrapped-tokens/WXZO.sol\":25171:25196  _allowances[_msgSender()] */\n      swap1\n      dup2\n      mstore\n        /* \"Wrapped-tokens/WXZO.sol\":25171:25182  _allowances */\n      0x04\n        /* \"Wrapped-tokens/WXZO.sol\":25171:25196  _allowances[_msgSender()] */\n      0x20\n      swap1\n      dup2\n      mstore\n      0x40\n      dup1\n      dup4\n      keccak256\n      sub(shl(0xa0, 0x01), 0x01)\n        /* \"Wrapped-tokens/WXZO.sol\":25171:25205  _allowances[_msgSender()][spender] */\n      dup7\n      and\n      dup5\n      mstore\n      swap1\n      swap2\n      mstore\n      dup2\n      keccak256\n      sload\n        /* \"Wrapped-tokens/WXZO.sol\":25236:25271  currentAllowance >= subtractedValue */\n      dup3\n      dup2\n      lt\n      iszero\n        /* \"Wrapped-tokens/WXZO.sol\":25215:25333  require(... */\n      tag_284\n      jumpi\n      mload(0x40)\n      shl(0xe5, 0x461bcd)\n      dup2\n      mstore\n        /* \"#utility.yul\":11373:11375   */\n      0x20\n        /* \"Wrapped-tokens/WXZO.sol\":25215:25333  require(... */\n      0x04\n      dup3\n      add\n        /* \"#utility.yul\":11355:11376   */\n      mstore\n        /* \"#utility.yul\":11412:11414   */\n      0x24\n        /* \"#utility.yul\":11392:11410   */\n      dup1\n      dup3\n      add\n        /* \"#utility.yul\":11385:11415   */\n      mstore\n        /* \"#utility.yul\":11451:11485   */\n      0x45787a6f3a2044656372656173656420616c6c6f77616e63652062656c6f7720\n        /* \"#utility.yul\":11431:11449   */\n      0x44\n      dup3\n      add\n        /* \"#utility.yul\":11424:11486   */\n      mstore\n      shl(0xe0, 0x7a65726f)\n        /* \"#utility.yul\":11502:11520   */\n      0x64\n      dup3\n      add\n        /* \"#utility.yul\":11495:11529   */\n      mstore\n        /* \"#utility.yul\":11546:11565   */\n      0x84\n      add\n        /* \"Wrapped-tokens/WXZO.sol\":25215:25333  require(... */\n      tag_184\n        /* \"#utility.yul\":11171:11571   */\n      jump\n        /* \"Wrapped-tokens/WXZO.sol\":25215:25333  require(... */\n    tag_284:\n        /* \"Wrapped-tokens/WXZO.sol\":25343:25410  _approve(_msgSender(), spender, currentAllowance - subtractedValue) */\n      tag_206\n        /* \"Wrapped-tokens/WXZO.sol\":3857:3867  msg.sender */\n      caller\n        /* \"Wrapped-tokens/WXZO.sol\":25366:25373  spender */\n      dup6\n        /* \"Wrapped-tokens/WXZO.sol\":25375:25409  currentAllowance - subtractedValue */\n      tag_226\n        /* \"Wrapped-tokens/WXZO.sol\":25394:25409  subtractedValue */\n      dup7\n        /* \"Wrapped-tokens/WXZO.sol\":25375:25391  currentAllowance */\n      dup6\n        /* \"Wrapped-tokens/WXZO.sol\":25375:25409  currentAllowance - subtractedValue */\n      tag_204\n      jump\t// in\n        /* \"Wrapped-tokens/WXZO.sol\":23371:23579  function transfer(address recipient, uint256 amount)... */\n    tag_129:\n        /* \"Wrapped-tokens/WXZO.sol\":23489:23493  bool */\n      0x00\n        /* \"Wrapped-tokens/WXZO.sol\":23509:23551  _transfer(_msgSender(), recipient, amount) */\n      tag_176\n        /* \"Wrapped-tokens/WXZO.sol\":3857:3867  msg.sender */\n      caller\n        /* \"Wrapped-tokens/WXZO.sol\":23533:23542  recipient */\n      dup5\n        /* \"Wrapped-tokens/WXZO.sol\":23544:23550  amount */\n      dup5\n        /* \"Wrapped-tokens/WXZO.sol\":23509:23518  _transfer */\n      tag_207\n        /* \"Wrapped-tokens/WXZO.sol\":23509:23551  _transfer(_msgSender(), recipient, amount) */\n      jump\t// in\n        /* \"Wrapped-tokens/WXZO.sol\":27574:27909  function addToBlacklist(... */\n    tag_134:\n        /* \"Wrapped-tokens/WXZO.sol\":10613:10619  _owner */\n      and(sub(shl(0xa0, 0x01), 0x01), sload(0x00))\n        /* \"Wrapped-tokens/WXZO.sol\":3857:3867  msg.sender */\n      caller\n        /* \"Wrapped-tokens/WXZO.sol\":10613:10635  _owner == _msgSender() */\n      eq\n        /* \"Wrapped-tokens/WXZO.sol\":10605:10672  require(_owner == _msgSender(), \"Ownable: caller is not the owner\") */\n      tag_295\n      jumpi\n      mload(0x40)\n      shl(0xe5, 0x461bcd)\n      dup2\n      mstore\n      0x04\n      add\n      tag_184\n      swap1\n      tag_185\n      jump\t// in\n    tag_295:\n        /* \"Wrapped-tokens/WXZO.sol\":27715:27747  _address.length == _value.length */\n      dup3\n      dup2\n      eq\n        /* \"Wrapped-tokens/WXZO.sol\":27707:27788  require(_address.length == _value.length, \"Exzo: Arrays must be the same length\") */\n      tag_298\n      jumpi\n      mload(0x40)\n      shl(0xe5, 0x461bcd)\n      dup2\n      mstore\n        /* \"#utility.yul\":11778:11780   */\n      0x20\n        /* \"Wrapped-tokens/WXZO.sol\":27707:27788  require(_address.length == _value.length, \"Exzo: Arrays must be the same length\") */\n      0x04\n      dup3\n      add\n        /* \"#utility.yul\":11760:11781   */\n      mstore\n        /* \"#utility.yul\":11817:11819   */\n      0x24\n        /* \"#utility.yul\":11797:11815   */\n      dup1\n      dup3\n      add\n        /* \"#utility.yul\":11790:11820   */\n      mstore\n        /* \"#utility.yul\":11856:11890   */\n      0x45787a6f3a20417272617973206d757374206265207468652073616d65206c65\n        /* \"#utility.yul\":11836:11854   */\n      0x44\n      dup3\n      add\n        /* \"#utility.yul\":11829:11891   */\n      mstore\n      shl(0xe3, 0x0dccee8d)\n        /* \"#utility.yul\":11907:11925   */\n      0x64\n      dup3\n      add\n        /* \"#utility.yul\":11900:11934   */\n      mstore\n        /* \"#utility.yul\":11951:11970   */\n      0x84\n      add\n        /* \"Wrapped-tokens/WXZO.sol\":27707:27788  require(_address.length == _value.length, \"Exzo: Arrays must be the same length\") */\n      tag_184\n        /* \"#utility.yul\":11576:11976   */\n      jump\n        /* \"Wrapped-tokens/WXZO.sol\":27707:27788  require(_address.length == _value.length, \"Exzo: Arrays must be the same length\") */\n    tag_298:\n        /* \"Wrapped-tokens/WXZO.sol\":27802:27808  uint i */\n      0x00\n        /* \"Wrapped-tokens/WXZO.sol\":27798:27903  for(uint i = 0; i < _address.length; i++) {... */\n    tag_301:\n        /* \"Wrapped-tokens/WXZO.sol\":27814:27833  i < _address.length */\n      dup4\n      dup2\n      lt\n        /* \"Wrapped-tokens/WXZO.sol\":27798:27903  for(uint i = 0; i < _address.length; i++) {... */\n      iszero\n      tag_302\n      jumpi\n        /* \"Wrapped-tokens/WXZO.sol\":27883:27889  _value */\n      dup3\n      dup3\n        /* \"Wrapped-tokens/WXZO.sol\":27890:27891  i */\n      dup3\n        /* \"Wrapped-tokens/WXZO.sol\":27883:27892  _value[i] */\n      dup2\n      dup2\n      lt\n      tag_305\n      jumpi\n      tag_305\n      tag_306\n      jump\t// in\n    tag_305:\n      swap1\n      pop\n      0x20\n      mul\n      add\n      0x20\n      dup2\n      add\n      swap1\n      tag_307\n      swap2\n      swap1\n      tag_308\n      jump\t// in\n    tag_307:\n        /* \"Wrapped-tokens/WXZO.sol\":27854:27867  isBlackListed */\n      0x07\n        /* \"Wrapped-tokens/WXZO.sol\":27854:27880  isBlackListed[_address[i]] */\n      0x00\n        /* \"Wrapped-tokens/WXZO.sol\":27868:27876  _address */\n      dup8\n      dup8\n        /* \"Wrapped-tokens/WXZO.sol\":27877:27878  i */\n      dup6\n        /* \"Wrapped-tokens/WXZO.sol\":27868:27879  _address[i] */\n      dup2\n      dup2\n      lt\n      tag_310\n      jumpi\n      tag_310\n      tag_306\n      jump\t// in\n    tag_310:\n      swap1\n      pop\n      0x20\n      mul\n      add\n      0x20\n      dup2\n      add\n      swap1\n      tag_311\n      swap2\n      swap1\n      tag_84\n      jump\t// in\n    tag_311:\n      sub(shl(0xa0, 0x01), 0x01)\n        /* \"Wrapped-tokens/WXZO.sol\":27854:27880  isBlackListed[_address[i]] */\n      and\n      dup2\n      mstore\n      0x20\n      dup2\n      add\n      swap2\n      swap1\n      swap2\n      mstore\n      0x40\n      add\n      0x00\n      keccak256\n        /* \"Wrapped-tokens/WXZO.sol\":27854:27892  isBlackListed[_address[i]] = _value[i] */\n      dup1\n      sload\n      not(0xff)\n      and\n      swap2\n      iszero\n      iszero\n      swap2\n      swap1\n      swap2\n      or\n      swap1\n      sstore\n        /* \"Wrapped-tokens/WXZO.sol\":27835:27838  i++ */\n      dup1\n      tag_312\n      dup2\n      tag_313\n      jump\t// in\n    tag_312:\n      swap2\n      pop\n      pop\n        /* \"Wrapped-tokens/WXZO.sol\":27798:27903  for(uint i = 0; i < _address.length; i++) {... */\n      jump(tag_301)\n    tag_302:\n      pop\n        /* \"Wrapped-tokens/WXZO.sol\":27574:27909  function addToBlacklist(... */\n      pop\n      pop\n      pop\n      pop\n      jump\t// out\n        /* \"Wrapped-tokens/WXZO.sol\":28378:28614  function ExcludeOrIncludeFromFee(address Account, bool status)... */\n    tag_144:\n        /* \"Wrapped-tokens/WXZO.sol\":10613:10619  _owner */\n      and(sub(shl(0xa0, 0x01), 0x01), sload(0x00))\n        /* \"Wrapped-tokens/WXZO.sol\":3857:3867  msg.sender */\n      caller\n        /* \"Wrapped-tokens/WXZO.sol\":10613:10635  _owner == _msgSender() */\n      eq\n        /* \"Wrapped-tokens/WXZO.sol\":10605:10672  require(_owner == _msgSender(), \"Ownable: caller is not the owner\") */\n      tag_316\n      jumpi\n      mload(0x40)\n      shl(0xe5, 0x461bcd)\n      dup2\n      mstore\n      0x04\n      add\n      tag_184\n      swap1\n      tag_185\n      jump\t// in\n    tag_316:\n      sub(shl(0xa0, 0x01), 0x01)\n        /* \"Wrapped-tokens/WXZO.sol\":28498:28519  Account != address(0) */\n      dup3\n      and\n        /* \"Wrapped-tokens/WXZO.sol\":28490:28561  require(Account != address(0), \"Exzo: You can't exclude zero address!\") */\n      tag_319\n      jumpi\n      mload(0x40)\n      shl(0xe5, 0x461bcd)\n      dup2\n      mstore\n      0x04\n      add\n      tag_184\n      swap1\n      tag_321\n      jump\t// in\n    tag_319:\n      sub(shl(0xa0, 0x01), 0x01)\n        /* \"Wrapped-tokens/WXZO.sol\":28571:28598  _isExcludedFromFee[Account] */\n      swap2\n      swap1\n      swap2\n      and\n      0x00\n      swap1\n      dup2\n      mstore\n        /* \"Wrapped-tokens/WXZO.sol\":28571:28589  _isExcludedFromFee */\n      0x05\n        /* \"Wrapped-tokens/WXZO.sol\":28571:28598  _isExcludedFromFee[Account] */\n      0x20\n      mstore\n      0x40\n      swap1\n      keccak256\n        /* \"Wrapped-tokens/WXZO.sol\":28571:28607  _isExcludedFromFee[Account] = status */\n      dup1\n      sload\n      not(0xff)\n      and\n      swap2\n      iszero\n      iszero\n      swap2\n      swap1\n      swap2\n      or\n      swap1\n      sstore\n        /* \"Wrapped-tokens/WXZO.sol\":28378:28614  function ExcludeOrIncludeFromFee(address Account, bool status)... */\n      jump\t// out\n        /* \"Wrapped-tokens/WXZO.sol\":28894:29119  function SetAutomaticMarketMaker(address Account, bool status) external onlyOwner... */\n    tag_147:\n        /* \"Wrapped-tokens/WXZO.sol\":10613:10619  _owner */\n      and(sub(shl(0xa0, 0x01), 0x01), sload(0x00))\n        /* \"Wrapped-tokens/WXZO.sol\":3857:3867  msg.sender */\n      caller\n        /* \"Wrapped-tokens/WXZO.sol\":10613:10635  _owner == _msgSender() */\n      eq\n        /* \"Wrapped-tokens/WXZO.sol\":10605:10672  require(_owner == _msgSender(), \"Ownable: caller is not the owner\") */\n      tag_324\n      jumpi\n      mload(0x40)\n      shl(0xe5, 0x461bcd)\n      dup2\n      mstore\n      0x04\n      add\n      tag_184\n      swap1\n      tag_185\n      jump\t// in\n    tag_324:\n      sub(shl(0xa0, 0x01), 0x01)\n        /* \"Wrapped-tokens/WXZO.sol\":28998:29019  Account != address(0) */\n      dup3\n      and\n        /* \"Wrapped-tokens/WXZO.sol\":28990:29061  require(Account != address(0), \"Exzo: You can't exclude zero address!\") */\n      tag_327\n      jumpi\n      mload(0x40)\n      shl(0xe5, 0x461bcd)\n      dup2\n      mstore\n      0x04\n      add\n      tag_184\n      swap1\n      tag_321\n      jump\t// in\n    tag_327:\n      sub(shl(0xa0, 0x01), 0x01)\n        /* \"Wrapped-tokens/WXZO.sol\":29071:29103  _isAutomaticMarketMaker[Account] */\n      swap2\n      swap1\n      swap2\n      and\n      0x00\n      swap1\n      dup2\n      mstore\n        /* \"Wrapped-tokens/WXZO.sol\":29071:29094  _isAutomaticMarketMaker */\n      0x06\n        /* \"Wrapped-tokens/WXZO.sol\":29071:29103  _isAutomaticMarketMaker[Account] */\n      0x20\n      mstore\n      0x40\n      swap1\n      keccak256\n        /* \"Wrapped-tokens/WXZO.sol\":29071:29112  _isAutomaticMarketMaker[Account] = status */\n      dup1\n      sload\n      not(0xff)\n      and\n      swap2\n      iszero\n      iszero\n      swap2\n      swap1\n      swap2\n      or\n      swap1\n      sstore\n        /* \"Wrapped-tokens/WXZO.sol\":28894:29119  function SetAutomaticMarketMaker(address Account, bool status) external onlyOwner... */\n      jump\t// out\n        /* \"Wrapped-tokens/WXZO.sol\":11326:11600  function transferOwnership(address newOwner) public virtual onlyOwner {... */\n    tag_163:\n        /* \"Wrapped-tokens/WXZO.sol\":10613:10619  _owner */\n      and(sub(shl(0xa0, 0x01), 0x01), sload(0x00))\n        /* \"Wrapped-tokens/WXZO.sol\":3857:3867  msg.sender */\n      caller\n        /* \"Wrapped-tokens/WXZO.sol\":10613:10635  _owner == _msgSender() */\n      eq\n        /* \"Wrapped-tokens/WXZO.sol\":10605:10672  require(_owner == _msgSender(), \"Ownable: caller is not the owner\") */\n      tag_332\n      jumpi\n      mload(0x40)\n      shl(0xe5, 0x461bcd)\n      dup2\n      mstore\n      0x04\n      add\n      tag_184\n      swap1\n      tag_185\n      jump\t// in\n    tag_332:\n      sub(shl(0xa0, 0x01), 0x01)\n        /* \"Wrapped-tokens/WXZO.sol\":11427:11449  newOwner != address(0) */\n      dup2\n      and\n        /* \"Wrapped-tokens/WXZO.sol\":11406:11513  require(... */\n      tag_335\n      jumpi\n      mload(0x40)\n      shl(0xe5, 0x461bcd)\n      dup2\n      mstore\n        /* \"#utility.yul\":13046:13048   */\n      0x20\n        /* \"Wrapped-tokens/WXZO.sol\":11406:11513  require(... */\n      0x04\n      dup3\n      add\n        /* \"#utility.yul\":13028:13049   */\n      mstore\n        /* \"#utility.yul\":13085:13087   */\n      0x26\n        /* \"#utility.yul\":13065:13083   */\n      0x24\n      dup3\n      add\n        /* \"#utility.yul\":13058:13088   */\n      mstore\n        /* \"#utility.yul\":13124:13158   */\n      0x4f776e61626c653a206e6577206f776e657220697320746865207a65726f2061\n        /* \"#utility.yul\":13104:13122   */\n      0x44\n      dup3\n      add\n        /* \"#utility.yul\":13097:13159   */\n      mstore\n      shl(0xd0, 0x646472657373)\n        /* \"#utility.yul\":13175:13193   */\n      0x64\n      dup3\n      add\n        /* \"#utility.yul\":13168:13204   */\n      mstore\n        /* \"#utility.yul\":13221:13240   */\n      0x84\n      add\n        /* \"Wrapped-tokens/WXZO.sol\":11406:11513  require(... */\n      tag_184\n        /* \"#utility.yul\":12844:13246   */\n      jump\n        /* \"Wrapped-tokens/WXZO.sol\":11406:11513  require(... */\n    tag_335:\n        /* \"Wrapped-tokens/WXZO.sol\":11549:11555  _owner */\n      0x00\n      dup1\n      sload\n        /* \"Wrapped-tokens/WXZO.sol\":11528:11566  OwnershipTransferred(_owner, newOwner) */\n      mload(0x40)\n      sub(shl(0xa0, 0x01), 0x01)\n      dup1\n      dup6\n      and\n      swap4\n        /* \"Wrapped-tokens/WXZO.sol\":11549:11555  _owner */\n      swap3\n      and\n      swap2\n        /* \"Wrapped-tokens/WXZO.sol\":11528:11566  OwnershipTransferred(_owner, newOwner) */\n      0x8be0079c531659141344cd1fd0a4f28419497f9722a3daafe3b4186f6b6457e0\n      swap2\n      log3\n        /* \"Wrapped-tokens/WXZO.sol\":11576:11582  _owner */\n      0x00\n        /* \"Wrapped-tokens/WXZO.sol\":11576:11593  _owner = newOwner */\n      dup1\n      sload\n      not(sub(shl(0xa0, 0x01), 0x01))\n      and\n      sub(shl(0xa0, 0x01), 0x01)\n      swap3\n      swap1\n      swap3\n      and\n      swap2\n      swap1\n      swap2\n      or\n      swap1\n      sstore\n        /* \"Wrapped-tokens/WXZO.sol\":11326:11600  function transferOwnership(address newOwner) public virtual onlyOwner {... */\n      jump\t// out\n        /* \"Wrapped-tokens/WXZO.sol\":4933:5109  function add(uint256 a, uint256 b) internal pure returns (uint256) {... */\n    tag_167:\n        /* \"Wrapped-tokens/WXZO.sol\":4991:4998  uint256 */\n      0x00\n      dup1\n        /* \"Wrapped-tokens/WXZO.sol\":5022:5027  a + b */\n      tag_339\n        /* \"Wrapped-tokens/WXZO.sol\":5026:5027  b */\n      dup4\n        /* \"Wrapped-tokens/WXZO.sol\":5022:5023  a */\n      dup6\n        /* \"Wrapped-tokens/WXZO.sol\":5022:5027  a + b */\n      tag_227\n      jump\t// in\n    tag_339:\n        /* \"Wrapped-tokens/WXZO.sol\":5010:5027  uint256 c = a + b */\n      swap1\n      pop\n        /* \"Wrapped-tokens/WXZO.sol\":5050:5051  a */\n      dup4\n        /* \"Wrapped-tokens/WXZO.sol\":5045:5046  c */\n      dup2\n        /* \"Wrapped-tokens/WXZO.sol\":5045:5051  c >= a */\n      lt\n      iszero\n        /* \"Wrapped-tokens/WXZO.sol\":5037:5083  require(c >= a, \"SafeMath: addition overflow\") */\n      tag_340\n      jumpi\n      mload(0x40)\n      shl(0xe5, 0x461bcd)\n      dup2\n      mstore\n        /* \"#utility.yul\":13453:13455   */\n      0x20\n        /* \"Wrapped-tokens/WXZO.sol\":5037:5083  require(c >= a, \"SafeMath: addition overflow\") */\n      0x04\n      dup3\n      add\n        /* \"#utility.yul\":13435:13456   */\n      mstore\n        /* \"#utility.yul\":13492:13494   */\n      0x1b\n        /* \"#utility.yul\":13472:13490   */\n      0x24\n      dup3\n      add\n        /* \"#utility.yul\":13465:13495   */\n      mstore\n        /* \"#utility.yul\":13531:13560   */\n      0x536166654d6174683a206164646974696f6e206f766572666c6f770000000000\n        /* \"#utility.yul\":13511:13529   */\n      0x44\n      dup3\n      add\n        /* \"#utility.yul\":13504:13561   */\n      mstore\n        /* \"#utility.yul\":13578:13596   */\n      0x64\n      add\n        /* \"Wrapped-tokens/WXZO.sol\":5037:5083  require(c >= a, \"SafeMath: addition overflow\") */\n      tag_184\n        /* \"#utility.yul\":13251:13602   */\n      jump\n        /* \"Wrapped-tokens/WXZO.sol\":5037:5083  require(c >= a, \"SafeMath: addition overflow\") */\n    tag_340:\n        /* \"Wrapped-tokens/WXZO.sol\":5101:5102  c */\n      swap4\n        /* \"Wrapped-tokens/WXZO.sol\":4933:5109  function add(uint256 a, uint256 b) internal pure returns (uint256) {... */\n      swap3\n      pop\n      pop\n      pop\n      jump\t// out\n        /* \"Wrapped-tokens/WXZO.sol\":30535:30903  function _approve(... */\n    tag_179:\n      sub(shl(0xa0, 0x01), 0x01)\n        /* \"Wrapped-tokens/WXZO.sol\":30666:30685  owner != address(0) */\n      dup4\n      and\n        /* \"Wrapped-tokens/WXZO.sol\":30658:30725  require(owner != address(0), \"Exzo: approve from the zero address\") */\n      tag_345\n      jumpi\n      mload(0x40)\n      shl(0xe5, 0x461bcd)\n      dup2\n      mstore\n        /* \"#utility.yul\":13809:13811   */\n      0x20\n        /* \"Wrapped-tokens/WXZO.sol\":30658:30725  require(owner != address(0), \"Exzo: approve from the zero address\") */\n      0x04\n      dup3\n      add\n        /* \"#utility.yul\":13791:13812   */\n      mstore\n        /* \"#utility.yul\":13848:13850   */\n      0x23\n        /* \"#utility.yul\":13828:13846   */\n      0x24\n      dup3\n      add\n        /* \"#utility.yul\":13821:13851   */\n      mstore\n        /* \"#utility.yul\":13887:13921   */\n      0x45787a6f3a20617070726f76652066726f6d20746865207a65726f2061646472\n        /* \"#utility.yul\":13867:13885   */\n      0x44\n      dup3\n      add\n        /* \"#utility.yul\":13860:13922   */\n      mstore\n      shl(0xe8, 0x657373)\n        /* \"#utility.yul\":13938:13956   */\n      0x64\n      dup3\n      add\n        /* \"#utility.yul\":13931:13964   */\n      mstore\n        /* \"#utility.yul\":13981:14000   */\n      0x84\n      add\n        /* \"Wrapped-tokens/WXZO.sol\":30658:30725  require(owner != address(0), \"Exzo: approve from the zero address\") */\n      tag_184\n        /* \"#utility.yul\":13607:14006   */\n      jump\n        /* \"Wrapped-tokens/WXZO.sol\":30658:30725  require(owner != address(0), \"Exzo: approve from the zero address\") */\n    tag_345:\n      sub(shl(0xa0, 0x01), 0x01)\n        /* \"Wrapped-tokens/WXZO.sol\":30743:30764  spender != address(0) */\n      dup3\n      and\n        /* \"Wrapped-tokens/WXZO.sol\":30735:30802  require(spender != address(0), \"Exzo: approve to the zero address\") */\n      tag_348\n      jumpi\n      mload(0x40)\n      shl(0xe5, 0x461bcd)\n      dup2\n      mstore\n        /* \"#utility.yul\":14213:14215   */\n      0x20\n        /* \"Wrapped-tokens/WXZO.sol\":30735:30802  require(spender != address(0), \"Exzo: approve to the zero address\") */\n      0x04\n      dup3\n      add\n        /* \"#utility.yul\":14195:14216   */\n      mstore\n        /* \"#utility.yul\":14252:14254   */\n      0x21\n        /* \"#utility.yul\":14232:14250   */\n      0x24\n      dup3\n      add\n        /* \"#utility.yul\":14225:14255   */\n      mstore\n        /* \"#utility.yul\":14291:14325   */\n      0x45787a6f3a20617070726f766520746f20746865207a65726f20616464726573\n        /* \"#utility.yul\":14271:14289   */\n      0x44\n      dup3\n      add\n        /* \"#utility.yul\":14264:14326   */\n      mstore\n      shl(0xf8, 0x73)\n        /* \"#utility.yul\":14342:14360   */\n      0x64\n      dup3\n      add\n        /* \"#utility.yul\":14335:14366   */\n      mstore\n        /* \"#utility.yul\":14383:14402   */\n      0x84\n      add\n        /* \"Wrapped-tokens/WXZO.sol\":30735:30802  require(spender != address(0), \"Exzo: approve to the zero address\") */\n      tag_184\n        /* \"#utility.yul\":14011:14408   */\n      jump\n        /* \"Wrapped-tokens/WXZO.sol\":30735:30802  require(spender != address(0), \"Exzo: approve to the zero address\") */\n    tag_348:\n      sub(shl(0xa0, 0x01), 0x01)\n        /* \"Wrapped-tokens/WXZO.sol\":30813:30831  _allowances[owner] */\n      dup4\n      dup2\n      and\n      0x00\n      dup2\n      dup2\n      mstore\n        /* \"Wrapped-tokens/WXZO.sol\":30813:30824  _allowances */\n      0x04\n        /* \"Wrapped-tokens/WXZO.sol\":30813:30831  _allowances[owner] */\n      0x20\n      swap1\n      dup2\n      mstore\n      0x40\n      dup1\n      dup4\n      keccak256\n        /* \"Wrapped-tokens/WXZO.sol\":30813:30840  _allowances[owner][spender] */\n      swap5\n      dup8\n      and\n      dup1\n      dup5\n      mstore\n      swap5\n      dup3\n      mstore\n      swap2\n      dup3\n      swap1\n      keccak256\n        /* \"Wrapped-tokens/WXZO.sol\":30813:30849  _allowances[owner][spender] = amount */\n      dup6\n      swap1\n      sstore\n        /* \"Wrapped-tokens/WXZO.sol\":30864:30896  Approval(owner, spender, amount) */\n      swap1\n      mload\n        /* \"#utility.yul\":1596:1621   */\n      dup5\n      dup2\n      mstore\n        /* \"Wrapped-tokens/WXZO.sol\":30864:30896  Approval(owner, spender, amount) */\n      0x8c5be1e5ebec7d5bd14f71427d1e84f3dd0314c0f7b2291e5b200ac8c7c3b925\n      swap2\n        /* \"#utility.yul\":1569:1587   */\n      add\n        /* \"Wrapped-tokens/WXZO.sol\":30864:30896  Approval(owner, spender, amount) */\n      tag_249\n        /* \"#utility.yul\":1450:1627   */\n      jump\n        /* \"Wrapped-tokens/WXZO.sol\":25445:27568  function _transfer(... */\n    tag_207:\n      sub(shl(0xa0, 0x01), 0x01)\n        /* \"Wrapped-tokens/WXZO.sol\":25580:25600  sender != address(0) */\n      dup4\n      and\n        /* \"Wrapped-tokens/WXZO.sol\":25572:25641  require(sender != address(0), \"Exzo: Transfer from the zero address\") */\n      tag_353\n      jumpi\n      mload(0x40)\n      shl(0xe5, 0x461bcd)\n      dup2\n      mstore\n        /* \"#utility.yul\":14615:14617   */\n      0x20\n        /* \"Wrapped-tokens/WXZO.sol\":25572:25641  require(sender != address(0), \"Exzo: Transfer from the zero address\") */\n      0x04\n      dup3\n      add\n        /* \"#utility.yul\":14597:14618   */\n      mstore\n        /* \"#utility.yul\":14654:14656   */\n      0x24\n        /* \"#utility.yul\":14634:14652   */\n      dup1\n      dup3\n      add\n        /* \"#utility.yul\":14627:14657   */\n      mstore\n        /* \"#utility.yul\":14693:14727   */\n      0x45787a6f3a205472616e736665722066726f6d20746865207a65726f20616464\n        /* \"#utility.yul\":14673:14691   */\n      0x44\n      dup3\n      add\n        /* \"#utility.yul\":14666:14728   */\n      mstore\n      shl(0xe0, 0x72657373)\n        /* \"#utility.yul\":14744:14762   */\n      0x64\n      dup3\n      add\n        /* \"#utility.yul\":14737:14771   */\n      mstore\n        /* \"#utility.yul\":14788:14807   */\n      0x84\n      add\n        /* \"Wrapped-tokens/WXZO.sol\":25572:25641  require(sender != address(0), \"Exzo: Transfer from the zero address\") */\n      tag_184\n        /* \"#utility.yul\":14413:14813   */\n      jump\n        /* \"Wrapped-tokens/WXZO.sol\":25572:25641  require(sender != address(0), \"Exzo: Transfer from the zero address\") */\n    tag_353:\n      sub(shl(0xa0, 0x01), 0x01)\n        /* \"Wrapped-tokens/WXZO.sol\":25659:25682  recipient != address(0) */\n      dup3\n      and\n        /* \"Wrapped-tokens/WXZO.sol\":25651:25721  require(recipient != address(0), \"Exzo: Transfer to the zero address\") */\n      tag_356\n      jumpi\n      mload(0x40)\n      shl(0xe5, 0x461bcd)\n      dup2\n      mstore\n        /* \"#utility.yul\":15020:15022   */\n      0x20\n        /* \"Wrapped-tokens/WXZO.sol\":25651:25721  require(recipient != address(0), \"Exzo: Transfer to the zero address\") */\n      0x04\n      dup3\n      add\n        /* \"#utility.yul\":15002:15023   */\n      mstore\n        /* \"#utility.yul\":15059:15061   */\n      0x22\n        /* \"#utility.yul\":15039:15057   */\n      0x24\n      dup3\n      add\n        /* \"#utility.yul\":15032:15062   */\n      mstore\n        /* \"#utility.yul\":15098:15132   */\n      0x45787a6f3a205472616e7366657220746f20746865207a65726f206164647265\n        /* \"#utility.yul\":15078:15096   */\n      0x44\n      dup3\n      add\n        /* \"#utility.yul\":15071:15133   */\n      mstore\n      shl(0xf0, 0x7373)\n        /* \"#utility.yul\":15149:15167   */\n      0x64\n      dup3\n      add\n        /* \"#utility.yul\":15142:15174   */\n      mstore\n        /* \"#utility.yul\":15191:15210   */\n      0x84\n      add\n        /* \"Wrapped-tokens/WXZO.sol\":25651:25721  require(recipient != address(0), \"Exzo: Transfer to the zero address\") */\n      tag_184\n        /* \"#utility.yul\":14818:15216   */\n      jump\n        /* \"Wrapped-tokens/WXZO.sol\":25651:25721  require(recipient != address(0), \"Exzo: Transfer to the zero address\") */\n    tag_356:\n      sub(shl(0xa0, 0x01), 0x01)\n        /* \"Wrapped-tokens/WXZO.sol\":25739:25760  isBlackListed[sender] */\n      dup4\n      and\n      0x00\n      swap1\n      dup2\n      mstore\n        /* \"Wrapped-tokens/WXZO.sol\":25739:25752  isBlackListed */\n      0x07\n        /* \"Wrapped-tokens/WXZO.sol\":25739:25760  isBlackListed[sender] */\n      0x20\n      mstore\n      0x40\n      swap1\n      keccak256\n      sload\n      0xff\n      and\n        /* \"Wrapped-tokens/WXZO.sol\":25739:25769  isBlackListed[sender] == false */\n      iszero\n        /* \"Wrapped-tokens/WXZO.sol\":25731:25820  require(isBlackListed[sender] == false, \"Exzo: Cannot transfer tokens from this address\") */\n      tag_359\n      jumpi\n      mload(0x40)\n      shl(0xe5, 0x461bcd)\n      dup2\n      mstore\n        /* \"#utility.yul\":15423:15425   */\n      0x20\n        /* \"Wrapped-tokens/WXZO.sol\":25731:25820  require(isBlackListed[sender] == false, \"Exzo: Cannot transfer tokens from this address\") */\n      0x04\n      dup3\n      add\n        /* \"#utility.yul\":15405:15426   */\n      mstore\n        /* \"#utility.yul\":15462:15464   */\n      0x2e\n        /* \"#utility.yul\":15442:15460   */\n      0x24\n      dup3\n      add\n        /* \"#utility.yul\":15435:15465   */\n      mstore\n        /* \"#utility.yul\":15501:15535   */\n      0x45787a6f3a2043616e6e6f74207472616e7366657220746f6b656e732066726f\n        /* \"#utility.yul\":15481:15499   */\n      0x44\n      dup3\n      add\n        /* \"#utility.yul\":15474:15536   */\n      mstore\n      shl(0x90, 0x6d20746869732061646472657373)\n        /* \"#utility.yul\":15552:15570   */\n      0x64\n      dup3\n      add\n        /* \"#utility.yul\":15545:15589   */\n      mstore\n        /* \"#utility.yul\":15606:15625   */\n      0x84\n      add\n        /* \"Wrapped-tokens/WXZO.sol\":25731:25820  require(isBlackListed[sender] == false, \"Exzo: Cannot transfer tokens from this address\") */\n      tag_184\n        /* \"#utility.yul\":15221:15631   */\n      jump\n        /* \"Wrapped-tokens/WXZO.sol\":25731:25820  require(isBlackListed[sender] == false, \"Exzo: Cannot transfer tokens from this address\") */\n    tag_359:\n      sub(shl(0xa0, 0x01), 0x01)\n        /* \"Wrapped-tokens/WXZO.sol\":25838:25862  isBlackListed[recipient] */\n      dup3\n      and\n      0x00\n      swap1\n      dup2\n      mstore\n        /* \"Wrapped-tokens/WXZO.sol\":25838:25851  isBlackListed */\n      0x07\n        /* \"Wrapped-tokens/WXZO.sol\":25838:25862  isBlackListed[recipient] */\n      0x20\n      mstore\n      0x40\n      swap1\n      keccak256\n      sload\n      0xff\n      and\n        /* \"Wrapped-tokens/WXZO.sol\":25838:25871  isBlackListed[recipient] == false */\n      iszero\n        /* \"Wrapped-tokens/WXZO.sol\":25830:25920  require(isBlackListed[recipient] == false, \"Exzo: Cannot transfer tokens to this address\") */\n      tag_362\n      jumpi\n      mload(0x40)\n      shl(0xe5, 0x461bcd)\n      dup2\n      mstore\n        /* \"#utility.yul\":15838:15840   */\n      0x20\n        /* \"Wrapped-tokens/WXZO.sol\":25830:25920  require(isBlackListed[recipient] == false, \"Exzo: Cannot transfer tokens to this address\") */\n      0x04\n      dup3\n      add\n        /* \"#utility.yul\":15820:15841   */\n      mstore\n        /* \"#utility.yul\":15877:15879   */\n      0x2c\n        /* \"#utility.yul\":15857:15875   */\n      0x24\n      dup3\n      add\n        /* \"#utility.yul\":15850:15880   */\n      mstore\n        /* \"#utility.yul\":15916:15950   */\n      0x45787a6f3a2043616e6e6f74207472616e7366657220746f6b656e7320746f20\n        /* \"#utility.yul\":15896:15914   */\n      0x44\n      dup3\n      add\n        /* \"#utility.yul\":15889:15951   */\n      mstore\n      shl(0xa0, 0x746869732061646472657373)\n        /* \"#utility.yul\":15967:15985   */\n      0x64\n      dup3\n      add\n        /* \"#utility.yul\":15960:16002   */\n      mstore\n        /* \"#utility.yul\":16019:16038   */\n      0x84\n      add\n        /* \"Wrapped-tokens/WXZO.sol\":25830:25920  require(isBlackListed[recipient] == false, \"Exzo: Cannot transfer tokens to this address\") */\n      tag_184\n        /* \"#utility.yul\":15636:16044   */\n      jump\n        /* \"Wrapped-tokens/WXZO.sol\":25830:25920  require(isBlackListed[recipient] == false, \"Exzo: Cannot transfer tokens to this address\") */\n    tag_362:\n      sub(shl(0xa0, 0x01), 0x01)\n        /* \"Wrapped-tokens/WXZO.sol\":26035:26066  _isAutomaticMarketMaker[sender] */\n      dup4\n      and\n        /* \"Wrapped-tokens/WXZO.sol\":25931:25951  uint256 _DonationAmt */\n      0x00\n        /* \"Wrapped-tokens/WXZO.sol\":26035:26066  _isAutomaticMarketMaker[sender] */\n      swap1\n      dup2\n      mstore\n        /* \"Wrapped-tokens/WXZO.sol\":26035:26058  _isAutomaticMarketMaker */\n      0x06\n        /* \"Wrapped-tokens/WXZO.sol\":26035:26066  _isAutomaticMarketMaker[sender] */\n      0x20\n      mstore\n      0x40\n      dup2\n      keccak256\n      sload\n        /* \"Wrapped-tokens/WXZO.sol\":25931:25951  uint256 _DonationAmt */\n      dup2\n      swap1\n      dup2\n      swap1\n        /* \"Wrapped-tokens/WXZO.sol\":26035:26066  _isAutomaticMarketMaker[sender] */\n      0xff\n      and\n      dup1\n        /* \"Wrapped-tokens/WXZO.sol\":26035:26116  _isAutomaticMarketMaker[sender] ||... */\n      tag_365\n      jumpi\n      pop\n      sub(shl(0xa0, 0x01), 0x01)\n        /* \"Wrapped-tokens/WXZO.sol\":26082:26116  _isAutomaticMarketMaker[recipient] */\n      dup6\n      and\n      0x00\n      swap1\n      dup2\n      mstore\n        /* \"Wrapped-tokens/WXZO.sol\":26082:26105  _isAutomaticMarketMaker */\n      0x06\n        /* \"Wrapped-tokens/WXZO.sol\":26082:26116  _isAutomaticMarketMaker[recipient] */\n      0x20\n      mstore\n      0x40\n      swap1\n      keccak256\n      sload\n      0xff\n      and\n        /* \"Wrapped-tokens/WXZO.sol\":26035:26116  _isAutomaticMarketMaker[sender] ||... */\n    tag_365:\n        /* \"Wrapped-tokens/WXZO.sol\":26018:26739  if (... */\n      iszero\n      tag_366\n      jumpi\n      sub(shl(0xa0, 0x01), 0x01)\n        /* \"Wrapped-tokens/WXZO.sol\":26145:26171  _isExcludedFromFee[sender] */\n      dup7\n      and\n      0x00\n      swap1\n      dup2\n      mstore\n        /* \"Wrapped-tokens/WXZO.sol\":26145:26163  _isExcludedFromFee */\n      0x05\n        /* \"Wrapped-tokens/WXZO.sol\":26145:26171  _isExcludedFromFee[sender] */\n      0x20\n      mstore\n      0x40\n      swap1\n      keccak256\n      sload\n      0xff\n      and\n      dup1\n        /* \"Wrapped-tokens/WXZO.sol\":26145:26204  _isExcludedFromFee[sender] || _isExcludedFromFee[recipient] */\n      tag_367\n      jumpi\n      pop\n      sub(shl(0xa0, 0x01), 0x01)\n        /* \"Wrapped-tokens/WXZO.sol\":26175:26204  _isExcludedFromFee[recipient] */\n      dup6\n      and\n      0x00\n      swap1\n      dup2\n      mstore\n        /* \"Wrapped-tokens/WXZO.sol\":26175:26193  _isExcludedFromFee */\n      0x05\n        /* \"Wrapped-tokens/WXZO.sol\":26175:26204  _isExcludedFromFee[recipient] */\n      0x20\n      mstore\n      0x40\n      swap1\n      keccak256\n      sload\n      0xff\n      and\n        /* \"Wrapped-tokens/WXZO.sol\":26145:26204  _isExcludedFromFee[sender] || _isExcludedFromFee[recipient] */\n    tag_367:\n        /* \"Wrapped-tokens/WXZO.sol\":26141:26625  if (_isExcludedFromFee[sender] || _isExcludedFromFee[recipient]) {... */\n      iszero\n      tag_368\n      jumpi\n      pop\n        /* \"Wrapped-tokens/WXZO.sol\":26239:26240  0 */\n      0x00\n      swap2\n      pop\n      dup2\n      swap1\n      pop\n      dup1\n        /* \"Wrapped-tokens/WXZO.sol\":26018:26739  if (... */\n      jump(tag_379)\n        /* \"Wrapped-tokens/WXZO.sol\":26141:26625  if (_isExcludedFromFee[sender] || _isExcludedFromFee[recipient]) {... */\n    tag_368:\n        /* \"Wrapped-tokens/WXZO.sol\":26362:26374  _maxTxAmount */\n      sload(0x13)\n        /* \"Wrapped-tokens/WXZO.sol\":26352:26358  amount */\n      dup5\n        /* \"Wrapped-tokens/WXZO.sol\":26352:26374  amount <= _maxTxAmount */\n      gt\n      iszero\n        /* \"Wrapped-tokens/WXZO.sol\":26344:26412  require(amount <= _maxTxAmount, \"Exzo: Transaction limit Exceeded!\") */\n      tag_370\n      jumpi\n      mload(0x40)\n      shl(0xe5, 0x461bcd)\n      dup2\n      mstore\n        /* \"#utility.yul\":16251:16253   */\n      0x20\n        /* \"Wrapped-tokens/WXZO.sol\":26344:26412  require(amount <= _maxTxAmount, \"Exzo: Transaction limit Exceeded!\") */\n      0x04\n      dup3\n      add\n        /* \"#utility.yul\":16233:16254   */\n      mstore\n        /* \"#utility.yul\":16290:16292   */\n      0x21\n        /* \"#utility.yul\":16270:16288   */\n      0x24\n      dup3\n      add\n        /* \"#utility.yul\":16263:16293   */\n      mstore\n        /* \"#utility.yul\":16329:16363   */\n      0x45787a6f3a205472616e73616374696f6e206c696d6974204578636565646564\n        /* \"#utility.yul\":16309:16327   */\n      0x44\n      dup3\n      add\n        /* \"#utility.yul\":16302:16364   */\n      mstore\n      shl(0xf8, 0x21)\n        /* \"#utility.yul\":16380:16398   */\n      0x64\n      dup3\n      add\n        /* \"#utility.yul\":16373:16404   */\n      mstore\n        /* \"#utility.yul\":16421:16440   */\n      0x84\n      add\n        /* \"Wrapped-tokens/WXZO.sol\":26344:26412  require(amount <= _maxTxAmount, \"Exzo: Transaction limit Exceeded!\") */\n      tag_184\n        /* \"#utility.yul\":16049:16446   */\n      jump\n        /* \"Wrapped-tokens/WXZO.sol\":26344:26412  require(amount <= _maxTxAmount, \"Exzo: Transaction limit Exceeded!\") */\n    tag_370:\n        /* \"Wrapped-tokens/WXZO.sol\":26445:26480  amount.mul(_donationFee).div(10000) */\n      tag_373\n        /* \"Wrapped-tokens/WXZO.sol\":26474:26479  10000 */\n      0x2710\n        /* \"Wrapped-tokens/WXZO.sol\":26445:26469  amount.mul(_donationFee) */\n      tag_217\n        /* \"Wrapped-tokens/WXZO.sol\":26456:26468  _donationFee */\n      sload(0x0f)\n        /* \"Wrapped-tokens/WXZO.sol\":26445:26451  amount */\n      dup8\n        /* \"Wrapped-tokens/WXZO.sol\":26445:26455  amount.mul */\n      tag_218\n      swap1\n        /* \"Wrapped-tokens/WXZO.sol\":26445:26469  amount.mul(_donationFee) */\n      swap2\n      swap1\n      0xffffffff\n      and\n      jump\t// in\n        /* \"Wrapped-tokens/WXZO.sol\":26445:26480  amount.mul(_donationFee).div(10000) */\n    tag_373:\n        /* \"Wrapped-tokens/WXZO.sol\":26430:26480  _DonationAmt = amount.mul(_donationFee).div(10000) */\n      swap3\n      pop\n        /* \"Wrapped-tokens/WXZO.sol\":26514:26550  amount.mul(_liquidityFee).div(10000) */\n      tag_375\n        /* \"Wrapped-tokens/WXZO.sol\":26544:26549  10000 */\n      0x2710\n        /* \"Wrapped-tokens/WXZO.sol\":26514:26539  amount.mul(_liquidityFee) */\n      tag_217\n        /* \"Wrapped-tokens/WXZO.sol\":26525:26538  _liquidityFee */\n      sload(0x0e)\n        /* \"Wrapped-tokens/WXZO.sol\":26514:26520  amount */\n      dup8\n        /* \"Wrapped-tokens/WXZO.sol\":26514:26524  amount.mul */\n      tag_218\n      swap1\n        /* \"Wrapped-tokens/WXZO.sol\":26514:26539  amount.mul(_liquidityFee) */\n      swap2\n      swap1\n      0xffffffff\n      and\n      jump\t// in\n        /* \"Wrapped-tokens/WXZO.sol\":26514:26550  amount.mul(_liquidityFee).div(10000) */\n    tag_375:\n        /* \"Wrapped-tokens/WXZO.sol\":26498:26550  _liquidityAmt = amount.mul(_liquidityFee).div(10000) */\n      swap2\n      pop\n        /* \"Wrapped-tokens/WXZO.sol\":26579:26610  amount.mul(_burnFee).div(10000) */\n      tag_377\n        /* \"Wrapped-tokens/WXZO.sol\":26604:26609  10000 */\n      0x2710\n        /* \"Wrapped-tokens/WXZO.sol\":26579:26599  amount.mul(_burnFee) */\n      tag_217\n        /* \"Wrapped-tokens/WXZO.sol\":26590:26598  _burnFee */\n      sload(0x10)\n        /* \"Wrapped-tokens/WXZO.sol\":26579:26585  amount */\n      dup8\n        /* \"Wrapped-tokens/WXZO.sol\":26579:26589  amount.mul */\n      tag_218\n      swap1\n        /* \"Wrapped-tokens/WXZO.sol\":26579:26599  amount.mul(_burnFee) */\n      swap2\n      swap1\n      0xffffffff\n      and\n      jump\t// in\n        /* \"Wrapped-tokens/WXZO.sol\":26579:26610  amount.mul(_burnFee).div(10000) */\n    tag_377:\n        /* \"Wrapped-tokens/WXZO.sol\":26568:26610  _burnAmt = amount.mul(_burnFee).div(10000) */\n      swap1\n      pop\n        /* \"Wrapped-tokens/WXZO.sol\":26018:26739  if (... */\n      jump(tag_379)\n    tag_366:\n      pop\n        /* \"Wrapped-tokens/WXZO.sol\":26670:26671  0 */\n      0x00\n      swap2\n      pop\n      dup2\n      swap1\n      pop\n      dup1\n        /* \"Wrapped-tokens/WXZO.sol\":26018:26739  if (... */\n    tag_379:\n      sub(shl(0xa0, 0x01), 0x01)\n        /* \"Wrapped-tokens/WXZO.sol\":26773:26790  _balances[sender] */\n      dup7\n      and\n        /* \"Wrapped-tokens/WXZO.sol\":26749:26770  uint256 senderBalance */\n      0x00\n        /* \"Wrapped-tokens/WXZO.sol\":26773:26790  _balances[sender] */\n      swap1\n      dup2\n      mstore\n        /* \"Wrapped-tokens/WXZO.sol\":26773:26782  _balances */\n      0x03\n        /* \"Wrapped-tokens/WXZO.sol\":26773:26790  _balances[sender] */\n      0x20\n      mstore\n      0x40\n      swap1\n      keccak256\n      sload\n        /* \"Wrapped-tokens/WXZO.sol\":26821:26844  senderBalance >= amount */\n      dup5\n      dup2\n      lt\n      iszero\n        /* \"Wrapped-tokens/WXZO.sol\":26800:26907  require(... */\n      tag_380\n      jumpi\n      mload(0x40)\n      shl(0xe5, 0x461bcd)\n      dup2\n      mstore\n        /* \"#utility.yul\":16653:16655   */\n      0x20\n        /* \"Wrapped-tokens/WXZO.sol\":26800:26907  require(... */\n      0x04\n      dup3\n      add\n        /* \"#utility.yul\":16635:16656   */\n      mstore\n        /* \"#utility.yul\":16692:16694   */\n      0x25\n        /* \"#utility.yul\":16672:16690   */\n      0x24\n      dup3\n      add\n        /* \"#utility.yul\":16665:16695   */\n      mstore\n        /* \"#utility.yul\":16731:16765   */\n      0x45787a6f3a205472616e7366657220616d6f756e742065786365656473206261\n        /* \"#utility.yul\":16711:16729   */\n      0x44\n      dup3\n      add\n        /* \"#utility.yul\":16704:16766   */\n      mstore\n      shl(0xd8, 0x6c616e6365)\n        /* \"#utility.yul\":16782:16800   */\n      0x64\n      dup3\n      add\n        /* \"#utility.yul\":16775:16810   */\n      mstore\n        /* \"#utility.yul\":16827:16846   */\n      0x84\n      add\n        /* \"Wrapped-tokens/WXZO.sol\":26800:26907  require(... */\n      tag_184\n        /* \"#utility.yul\":16451:16852   */\n      jump\n        /* \"Wrapped-tokens/WXZO.sol\":26800:26907  require(... */\n    tag_380:\n        /* \"Wrapped-tokens/WXZO.sol\":26937:26959  senderBalance - amount */\n      tag_383\n        /* \"Wrapped-tokens/WXZO.sol\":26953:26959  amount */\n      dup6\n        /* \"Wrapped-tokens/WXZO.sol\":26937:26950  senderBalance */\n      dup3\n        /* \"Wrapped-tokens/WXZO.sol\":26937:26959  senderBalance - amount */\n      tag_204\n      jump\t// in\n    tag_383:\n      sub(shl(0xa0, 0x01), 0x01)\n        /* \"Wrapped-tokens/WXZO.sol\":26917:26934  _balances[sender] */\n      dup1\n      dup10\n      and\n      0x00\n      swap1\n      dup2\n      mstore\n        /* \"Wrapped-tokens/WXZO.sol\":26917:26926  _balances */\n      0x03\n        /* \"Wrapped-tokens/WXZO.sol\":26917:26934  _balances[sender] */\n      0x20\n      mstore\n      0x40\n      dup1\n      dup3\n      keccak256\n        /* \"Wrapped-tokens/WXZO.sol\":26917:26959  _balances[sender] = senderBalance - amount */\n      swap4\n      swap1\n      swap4\n      sstore\n        /* \"Wrapped-tokens/WXZO.sol\":26979:26993  donationWallet */\n      sload(0x08)\n      swap1\n      swap2\n      and\n        /* \"Wrapped-tokens/WXZO.sol\":26969:26994  _balances[donationWallet] */\n      dup2\n      mstore\n      swap1\n      dup2\n      keccak256\n        /* \"Wrapped-tokens/WXZO.sol\":26969:27010  _balances[donationWallet] += _DonationAmt */\n      dup1\n      sload\n        /* \"Wrapped-tokens/WXZO.sol\":26998:27010  _DonationAmt */\n      dup7\n      swap3\n        /* \"Wrapped-tokens/WXZO.sol\":26917:26934  _balances[sender] */\n      swap1\n        /* \"Wrapped-tokens/WXZO.sol\":26969:27010  _balances[donationWallet] += _DonationAmt */\n      tag_384\n      swap1\n        /* \"Wrapped-tokens/WXZO.sol\":26998:27010  _DonationAmt */\n      dup5\n      swap1\n        /* \"Wrapped-tokens/WXZO.sol\":26969:27010  _balances[donationWallet] += _DonationAmt */\n      tag_227\n      jump\t// in\n    tag_384:\n      swap1\n      swap2\n      sstore\n      pop\n      pop\n        /* \"Wrapped-tokens/WXZO.sol\":27038:27042  this */\n      address\n        /* \"Wrapped-tokens/WXZO.sol\":27020:27044  _balances[address(this)] */\n      0x00\n      swap1\n      dup2\n      mstore\n        /* \"Wrapped-tokens/WXZO.sol\":27020:27029  _balances */\n      0x03\n        /* \"Wrapped-tokens/WXZO.sol\":27020:27044  _balances[address(this)] */\n      0x20\n      mstore\n      0x40\n      dup2\n      keccak256\n        /* \"Wrapped-tokens/WXZO.sol\":27020:27061  _balances[address(this)] += _liquidityAmt */\n      dup1\n      sload\n        /* \"Wrapped-tokens/WXZO.sol\":27048:27061  _liquidityAmt */\n      dup6\n      swap3\n        /* \"Wrapped-tokens/WXZO.sol\":27020:27044  _balances[address(this)] */\n      swap1\n        /* \"Wrapped-tokens/WXZO.sol\":27020:27061  _balances[address(this)] += _liquidityAmt */\n      tag_385\n      swap1\n        /* \"Wrapped-tokens/WXZO.sol\":27048:27061  _liquidityAmt */\n      dup5\n      swap1\n        /* \"Wrapped-tokens/WXZO.sol\":27020:27061  _balances[address(this)] += _liquidityAmt */\n      tag_227\n      jump\t// in\n    tag_385:\n      swap1\n      swap2\n      sstore\n      pop\n      pop\n        /* \"Wrapped-tokens/WXZO.sol\":27075:27087  _burnAmt > 0 */\n      dup2\n      iszero\n        /* \"Wrapped-tokens/WXZO.sol\":27071:27195  if (_burnAmt > 0) {... */\n      tag_386\n      jumpi\n        /* \"Wrapped-tokens/WXZO.sol\":27119:27127  _burnAmt */\n      dup2\n        /* \"Wrapped-tokens/WXZO.sol\":27103:27115  _totalSupply */\n      0x0a\n      0x00\n        /* \"Wrapped-tokens/WXZO.sol\":27103:27127  _totalSupply -= _burnAmt */\n      dup3\n      dup3\n      sload\n      tag_387\n      swap2\n      swap1\n      tag_204\n      jump\t// in\n    tag_387:\n      swap1\n      swap2\n      sstore\n      pop\n      pop\n        /* \"Wrapped-tokens/WXZO.sol\":27146:27184  Transfer(sender, address(0), _burnAmt) */\n      mload(0x40)\n        /* \"#utility.yul\":1596:1621   */\n      dup3\n      dup2\n      mstore\n        /* \"Wrapped-tokens/WXZO.sol\":27171:27172  0 */\n      0x00\n      swap1\n      sub(shl(0xa0, 0x01), 0x01)\n        /* \"Wrapped-tokens/WXZO.sol\":27146:27184  Transfer(sender, address(0), _burnAmt) */\n      dup10\n      and\n      swap1\n      0x00\n      dup1\n      mload\n      0x20\n      data_ada389e1fc24a8587c776340efb91b36e675792ab631816100d55df0b5cf3cbc\n      dup4\n      codecopy\n      dup2\n      mload\n      swap2\n      mstore\n      swap1\n        /* \"#utility.yul\":1584:1586   */\n      0x20\n        /* \"#utility.yul\":1569:1587   */\n      add\n        /* \"Wrapped-tokens/WXZO.sol\":27146:27184  Transfer(sender, address(0), _burnAmt) */\n      mload(0x40)\n      dup1\n      swap2\n      sub\n      swap1\n      log3\n        /* \"Wrapped-tokens/WXZO.sol\":27071:27195  if (_burnAmt > 0) {... */\n    tag_386:\n        /* \"Wrapped-tokens/WXZO.sol\":27228:27307  amount.sub(_DonationAmt).sub(_liquidityAmt).sub(... */\n      tag_389\n        /* \"Wrapped-tokens/WXZO.sol\":27289:27297  _burnAmt */\n      dup3\n        /* \"Wrapped-tokens/WXZO.sol\":27228:27271  amount.sub(_DonationAmt).sub(_liquidityAmt) */\n      tag_391\n        /* \"Wrapped-tokens/WXZO.sol\":27257:27270  _liquidityAmt */\n      dup6\n        /* \"Wrapped-tokens/WXZO.sol\":27228:27271  amount.sub(_DonationAmt).sub(_liquidityAmt) */\n      dup2\n        /* \"Wrapped-tokens/WXZO.sol\":27228:27234  amount */\n      dup10\n        /* \"Wrapped-tokens/WXZO.sol\":27239:27251  _DonationAmt */\n      dup10\n        /* \"Wrapped-tokens/WXZO.sol\":27228:27238  amount.sub */\n      tag_392\n        /* \"Wrapped-tokens/WXZO.sol\":27228:27252  amount.sub(_DonationAmt) */\n      jump\t// in\n    tag_391:\n        /* \"Wrapped-tokens/WXZO.sol\":27228:27256  amount.sub(_DonationAmt).sub */\n      swap1\n      tag_392\n        /* \"Wrapped-tokens/WXZO.sol\":27228:27271  amount.sub(_DonationAmt).sub(_liquidityAmt) */\n      jump\t// in\n        /* \"Wrapped-tokens/WXZO.sol\":27228:27307  amount.sub(_DonationAmt).sub(_liquidityAmt).sub(... */\n    tag_389:\n      sub(shl(0xa0, 0x01), 0x01)\n        /* \"Wrapped-tokens/WXZO.sol\":27204:27224  _balances[recipient] */\n      dup8\n      and\n      0x00\n      swap1\n      dup2\n      mstore\n        /* \"Wrapped-tokens/WXZO.sol\":27204:27213  _balances */\n      0x03\n        /* \"Wrapped-tokens/WXZO.sol\":27204:27224  _balances[recipient] */\n      0x20\n      mstore\n      0x40\n      dup2\n      keccak256\n        /* \"Wrapped-tokens/WXZO.sol\":27204:27307  _balances[recipient] += amount.sub(_DonationAmt).sub(_liquidityAmt).sub(... */\n      dup1\n      sload\n        /* \"Wrapped-tokens/WXZO.sol\":27204:27224  _balances[recipient] */\n      swap1\n      swap2\n      swap1\n        /* \"Wrapped-tokens/WXZO.sol\":27204:27307  _balances[recipient] += amount.sub(_DonationAmt).sub(_liquidityAmt).sub(... */\n      tag_393\n      swap1\n      dup5\n      swap1\n      tag_227\n      jump\t// in\n    tag_393:\n      swap1\n      swap2\n      sstore\n      pop\n      pop\n        /* \"Wrapped-tokens/WXZO.sol\":27321:27337  _DonationAmt > 0 */\n      dup4\n      iszero\n        /* \"Wrapped-tokens/WXZO.sol\":27317:27415  if (_DonationAmt > 0) {... */\n      tag_394\n      jumpi\n        /* \"Wrapped-tokens/WXZO.sol\":27375:27389  donationWallet */\n      sload(0x08)\n        /* \"Wrapped-tokens/WXZO.sol\":27358:27404  Transfer(sender, donationWallet, _DonationAmt) */\n      mload(0x40)\n        /* \"#utility.yul\":1596:1621   */\n      dup6\n      dup2\n      mstore\n      sub(shl(0xa0, 0x01), 0x01)\n        /* \"Wrapped-tokens/WXZO.sol\":27375:27389  donationWallet */\n      swap2\n      dup3\n      and\n      swap2\n        /* \"Wrapped-tokens/WXZO.sol\":27358:27404  Transfer(sender, donationWallet, _DonationAmt) */\n      dup10\n      and\n      swap1\n      0x00\n      dup1\n      mload\n      0x20\n      data_ada389e1fc24a8587c776340efb91b36e675792ab631816100d55df0b5cf3cbc\n      dup4\n      codecopy\n      dup2\n      mload\n      swap2\n      mstore\n      swap1\n        /* \"#utility.yul\":1584:1586   */\n      0x20\n        /* \"#utility.yul\":1569:1587   */\n      add\n        /* \"Wrapped-tokens/WXZO.sol\":27358:27404  Transfer(sender, donationWallet, _DonationAmt) */\n      mload(0x40)\n      dup1\n      swap2\n      sub\n      swap1\n      log3\n        /* \"Wrapped-tokens/WXZO.sol\":27317:27415  if (_DonationAmt > 0) {... */\n    tag_394:\n      sub(shl(0xa0, 0x01), 0x01)\n        /* \"Wrapped-tokens/WXZO.sol\":27429:27561  Transfer(... */\n      dup1\n      dup8\n      and\n      swap1\n      dup9\n      and\n      0x00\n      dup1\n      mload\n      0x20\n      data_ada389e1fc24a8587c776340efb91b36e675792ab631816100d55df0b5cf3cbc\n      dup4\n      codecopy\n      dup2\n      mload\n      swap2\n      mstore\n        /* \"Wrapped-tokens/WXZO.sol\":27494:27551  amount.sub(_DonationAmt).sub(_liquidityAmt).sub(_burnAmt) */\n      tag_396\n        /* \"Wrapped-tokens/WXZO.sol\":27542:27550  _burnAmt */\n      dup6\n        /* \"Wrapped-tokens/WXZO.sol\":27494:27537  amount.sub(_DonationAmt).sub(_liquidityAmt) */\n      tag_391\n        /* \"Wrapped-tokens/WXZO.sol\":27523:27536  _liquidityAmt */\n      dup9\n        /* \"Wrapped-tokens/WXZO.sol\":27494:27537  amount.sub(_DonationAmt).sub(_liquidityAmt) */\n      dup2\n        /* \"Wrapped-tokens/WXZO.sol\":27494:27500  amount */\n      dup13\n        /* \"Wrapped-tokens/WXZO.sol\":27505:27517  _DonationAmt */\n      dup13\n        /* \"Wrapped-tokens/WXZO.sol\":27494:27504  amount.sub */\n      tag_392\n        /* \"Wrapped-tokens/WXZO.sol\":27494:27518  amount.sub(_DonationAmt) */\n      jump\t// in\n        /* \"Wrapped-tokens/WXZO.sol\":27494:27551  amount.sub(_DonationAmt).sub(_liquidityAmt).sub(_burnAmt) */\n    tag_396:\n        /* \"Wrapped-tokens/WXZO.sol\":27429:27561  Transfer(... */\n      mload(0x40)\n        /* \"#utility.yul\":1596:1621   */\n      swap1\n      dup2\n      mstore\n        /* \"#utility.yul\":1584:1586   */\n      0x20\n        /* \"#utility.yul\":1569:1587   */\n      add\n        /* \"Wrapped-tokens/WXZO.sol\":27429:27561  Transfer(... */\n      mload(0x40)\n      dup1\n      swap2\n      sub\n      swap1\n      log3\n        /* \"Wrapped-tokens/WXZO.sol\":25562:27568  {... */\n      pop\n      pop\n      pop\n      pop\n        /* \"Wrapped-tokens/WXZO.sol\":25445:27568  function _transfer(... */\n      pop\n      pop\n      pop\n      jump\t// out\n        /* \"Wrapped-tokens/WXZO.sol\":6269:6728  function mul(uint256 a, uint256 b) internal pure returns (uint256) {... */\n    tag_218:\n        /* \"Wrapped-tokens/WXZO.sol\":6327:6334  uint256 */\n      0x00\n        /* \"Wrapped-tokens/WXZO.sol\":6568:6569  a */\n      dup3\n        /* \"Wrapped-tokens/WXZO.sol\":6573:6574  0 */\n      0x00\n        /* \"Wrapped-tokens/WXZO.sol\":6568:6574  a == 0 */\n      sub\n        /* \"Wrapped-tokens/WXZO.sol\":6564:6609  if (a == 0) {... */\n      tag_401\n      jumpi\n      pop\n        /* \"Wrapped-tokens/WXZO.sol\":6597:6598  0 */\n      0x00\n        /* \"Wrapped-tokens/WXZO.sol\":6590:6598  return 0 */\n      jump(tag_175)\n        /* \"Wrapped-tokens/WXZO.sol\":6564:6609  if (a == 0) {... */\n    tag_401:\n        /* \"Wrapped-tokens/WXZO.sol\":6619:6628  uint256 c */\n      0x00\n        /* \"Wrapped-tokens/WXZO.sol\":6631:6636  a * b */\n      tag_402\n        /* \"Wrapped-tokens/WXZO.sol\":6635:6636  b */\n      dup4\n        /* \"Wrapped-tokens/WXZO.sol\":6631:6632  a */\n      dup6\n        /* \"Wrapped-tokens/WXZO.sol\":6631:6636  a * b */\n      tag_237\n      jump\t// in\n    tag_402:\n        /* \"Wrapped-tokens/WXZO.sol\":6619:6636  uint256 c = a * b */\n      swap1\n      pop\n        /* \"Wrapped-tokens/WXZO.sol\":6663:6664  b */\n      dup3\n        /* \"Wrapped-tokens/WXZO.sol\":6654:6659  c / a */\n      tag_403\n        /* \"Wrapped-tokens/WXZO.sol\":6658:6659  a */\n      dup6\n        /* \"Wrapped-tokens/WXZO.sol\":6619:6636  uint256 c = a * b */\n      dup4\n        /* \"Wrapped-tokens/WXZO.sol\":6654:6659  c / a */\n      tag_404\n      jump\t// in\n    tag_403:\n        /* \"Wrapped-tokens/WXZO.sol\":6654:6664  c / a == b */\n      eq\n        /* \"Wrapped-tokens/WXZO.sol\":6646:6702  require(c / a == b, \"SafeMath: multiplication overflow\") */\n      tag_340\n      jumpi\n      mload(0x40)\n      shl(0xe5, 0x461bcd)\n      dup2\n      mstore\n        /* \"#utility.yul\":17281:17283   */\n      0x20\n        /* \"Wrapped-tokens/WXZO.sol\":6646:6702  require(c / a == b, \"SafeMath: multiplication overflow\") */\n      0x04\n      dup3\n      add\n        /* \"#utility.yul\":17263:17284   */\n      mstore\n        /* \"#utility.yul\":17320:17322   */\n      0x21\n        /* \"#utility.yul\":17300:17318   */\n      0x24\n      dup3\n      add\n        /* \"#utility.yul\":17293:17323   */\n      mstore\n        /* \"#utility.yul\":17359:17393   */\n      0x536166654d6174683a206d756c7469706c69636174696f6e206f766572666c6f\n        /* \"#utility.yul\":17339:17357   */\n      0x44\n      dup3\n      add\n        /* \"#utility.yul\":17332:17394   */\n      mstore\n      shl(0xf8, 0x77)\n        /* \"#utility.yul\":17410:17428   */\n      0x64\n      dup3\n      add\n        /* \"#utility.yul\":17403:17434   */\n      mstore\n        /* \"#utility.yul\":17451:17470   */\n      0x84\n      add\n        /* \"Wrapped-tokens/WXZO.sol\":6646:6702  require(c / a == b, \"SafeMath: multiplication overflow\") */\n      tag_184\n        /* \"#utility.yul\":17079:17476   */\n      jump\n        /* \"Wrapped-tokens/WXZO.sol\":7190:7320  function div(uint256 a, uint256 b) internal pure returns (uint256) {... */\n    tag_219:\n        /* \"Wrapped-tokens/WXZO.sol\":7248:7255  uint256 */\n      0x00\n        /* \"Wrapped-tokens/WXZO.sol\":7274:7313  div(a, b, \"SafeMath: division by zero\") */\n      tag_340\n        /* \"Wrapped-tokens/WXZO.sol\":7278:7279  a */\n      dup4\n        /* \"Wrapped-tokens/WXZO.sol\":7281:7282  b */\n      dup4\n        /* \"Wrapped-tokens/WXZO.sol\":7274:7313  div(a, b, \"SafeMath: division by zero\") */\n      mload(0x40)\n      dup1\n      0x40\n      add\n      0x40\n      mstore\n      dup1\n      0x1a\n      dup2\n      mstore\n      0x20\n      add\n      0x536166654d6174683a206469766973696f6e206279207a65726f000000000000\n      dup2\n      mstore\n      pop\n        /* \"Wrapped-tokens/WXZO.sol\":7274:7277  div */\n      tag_410\n        /* \"Wrapped-tokens/WXZO.sol\":7274:7313  div(a, b, \"SafeMath: division by zero\") */\n      jump\t// in\n        /* \"Wrapped-tokens/WXZO.sol\":5380:5514  function sub(uint256 a, uint256 b) internal pure returns (uint256) {... */\n    tag_392:\n        /* \"Wrapped-tokens/WXZO.sol\":5438:5445  uint256 */\n      0x00\n        /* \"Wrapped-tokens/WXZO.sol\":5464:5507  sub(a, b, \"SafeMath: subtraction overflow\") */\n      tag_340\n        /* \"Wrapped-tokens/WXZO.sol\":5468:5469  a */\n      dup4\n        /* \"Wrapped-tokens/WXZO.sol\":5471:5472  b */\n      dup4\n        /* \"Wrapped-tokens/WXZO.sol\":5464:5507  sub(a, b, \"SafeMath: subtraction overflow\") */\n      mload(0x40)\n      dup1\n      0x40\n      add\n      0x40\n      mstore\n      dup1\n      0x1e\n      dup2\n      mstore\n      0x20\n      add\n      0x536166654d6174683a207375627472616374696f6e206f766572666c6f770000\n      dup2\n      mstore\n      pop\n        /* \"Wrapped-tokens/WXZO.sol\":5464:5467  sub */\n      tag_414\n        /* \"Wrapped-tokens/WXZO.sol\":5464:5507  sub(a, b, \"SafeMath: subtraction overflow\") */\n      jump\t// in\n        /* \"Wrapped-tokens/WXZO.sol\":7802:8104  function div(... */\n    tag_410:\n        /* \"Wrapped-tokens/WXZO.sol\":7918:7925  uint256 */\n      0x00\n        /* \"Wrapped-tokens/WXZO.sol\":7952:7964  errorMessage */\n      dup2\n        /* \"Wrapped-tokens/WXZO.sol\":7945:7950  b > 0 */\n      dup4\n        /* \"Wrapped-tokens/WXZO.sol\":7937:7965  require(b > 0, errorMessage) */\n      tag_416\n      jumpi\n      mload(0x40)\n      shl(0xe5, 0x461bcd)\n      dup2\n      mstore\n      0x04\n      add\n      tag_184\n      swap2\n      swap1\n      tag_46\n      jump\t// in\n    tag_416:\n      pop\n        /* \"Wrapped-tokens/WXZO.sol\":7975:7984  uint256 c */\n      0x00\n        /* \"Wrapped-tokens/WXZO.sol\":7987:7992  a / b */\n      tag_418\n        /* \"Wrapped-tokens/WXZO.sol\":7991:7992  b */\n      dup5\n        /* \"Wrapped-tokens/WXZO.sol\":7987:7988  a */\n      dup7\n        /* \"Wrapped-tokens/WXZO.sol\":7987:7992  a / b */\n      tag_404\n      jump\t// in\n    tag_418:\n        /* \"Wrapped-tokens/WXZO.sol\":7975:7992  uint256 c = a / b */\n      swap6\n        /* \"Wrapped-tokens/WXZO.sol\":7802:8104  function div(... */\n      swap5\n      pop\n      pop\n      pop\n      pop\n      pop\n      jump\t// out\n        /* \"Wrapped-tokens/WXZO.sol\":5805:6022  function sub(... */\n    tag_414:\n        /* \"Wrapped-tokens/WXZO.sol\":5921:5928  uint256 */\n      0x00\n        /* \"Wrapped-tokens/WXZO.sol\":5956:5968  errorMessage */\n      dup2\n        /* \"Wrapped-tokens/WXZO.sol\":5948:5954  b <= a */\n      dup5\n      dup5\n      gt\n      iszero\n        /* \"Wrapped-tokens/WXZO.sol\":5940:5969  require(b <= a, errorMessage) */\n      tag_420\n      jumpi\n      mload(0x40)\n      shl(0xe5, 0x461bcd)\n      dup2\n      mstore\n      0x04\n      add\n      tag_184\n      swap2\n      swap1\n      tag_46\n      jump\t// in\n    tag_420:\n      pop\n        /* \"Wrapped-tokens/WXZO.sol\":5979:5988  uint256 c */\n      0x00\n        /* \"Wrapped-tokens/WXZO.sol\":5991:5996  a - b */\n      tag_418\n        /* \"Wrapped-tokens/WXZO.sol\":5995:5996  b */\n      dup5\n        /* \"Wrapped-tokens/WXZO.sol\":5991:5992  a */\n      dup7\n        /* \"Wrapped-tokens/WXZO.sol\":5991:5996  a - b */\n      tag_204\n      jump\t// in\n        /* \"#utility.yul\":14:562   */\n    tag_46:\n        /* \"#utility.yul\":126:130   */\n      0x00\n        /* \"#utility.yul\":155:157   */\n      0x20\n        /* \"#utility.yul\":184:186   */\n      dup1\n        /* \"#utility.yul\":173:182   */\n      dup4\n        /* \"#utility.yul\":166:187   */\n      mstore\n        /* \"#utility.yul\":216:222   */\n      dup4\n        /* \"#utility.yul\":210:223   */\n      mload\n        /* \"#utility.yul\":259:265   */\n      dup1\n        /* \"#utility.yul\":254:256   */\n      dup3\n        /* \"#utility.yul\":243:252   */\n      dup6\n        /* \"#utility.yul\":239:257   */\n      add\n        /* \"#utility.yul\":232:266   */\n      mstore\n        /* \"#utility.yul\":284:285   */\n      0x00\n        /* \"#utility.yul\":294:434   */\n    tag_431:\n        /* \"#utility.yul\":308:314   */\n      dup2\n        /* \"#utility.yul\":305:306   */\n      dup2\n        /* \"#utility.yul\":302:315   */\n      lt\n        /* \"#utility.yul\":294:434   */\n      iszero\n      tag_433\n      jumpi\n        /* \"#utility.yul\":403:417   */\n      dup6\n      dup2\n      add\n        /* \"#utility.yul\":399:422   */\n      dup4\n      add\n        /* \"#utility.yul\":393:423   */\n      mload\n        /* \"#utility.yul\":369:386   */\n      dup6\n      dup3\n      add\n        /* \"#utility.yul\":388:390   */\n      0x40\n        /* \"#utility.yul\":365:391   */\n      add\n        /* \"#utility.yul\":358:424   */\n      mstore\n        /* \"#utility.yul\":323:333   */\n      dup3\n      add\n        /* \"#utility.yul\":294:434   */\n      jump(tag_431)\n    tag_433:\n        /* \"#utility.yul\":298:301   */\n      pop\n        /* \"#utility.yul\":483:484   */\n      0x00\n        /* \"#utility.yul\":478:480   */\n      0x40\n        /* \"#utility.yul\":469:475   */\n      dup3\n        /* \"#utility.yul\":458:467   */\n      dup7\n        /* \"#utility.yul\":454:476   */\n      add\n        /* \"#utility.yul\":450:481   */\n      add\n        /* \"#utility.yul\":443:485   */\n      mstore\n        /* \"#utility.yul\":553:555   */\n      0x40\n        /* \"#utility.yul\":546:548   */\n      0x1f\n        /* \"#utility.yul\":542:549   */\n      not\n        /* \"#utility.yul\":537:539   */\n      0x1f\n        /* \"#utility.yul\":529:535   */\n      dup4\n        /* \"#utility.yul\":525:540   */\n      add\n        /* \"#utility.yul\":521:550   */\n      and\n        /* \"#utility.yul\":510:519   */\n      dup6\n        /* \"#utility.yul\":506:551   */\n      add\n        /* \"#utility.yul\":502:556   */\n      add\n        /* \"#utility.yul\":494:556   */\n      swap3\n      pop\n      pop\n      pop\n        /* \"#utility.yul\":14:562   */\n      swap3\n      swap2\n      pop\n      pop\n      jump\t// out\n        /* \"#utility.yul\":567:698   */\n    tag_423:\n      sub(shl(0xa0, 0x01), 0x01)\n        /* \"#utility.yul\":642:673   */\n      dup2\n      and\n        /* \"#utility.yul\":632:674   */\n      dup2\n      eq\n        /* \"#utility.yul\":622:692   */\n      tag_435\n      jumpi\n        /* \"#utility.yul\":688:689   */\n      0x00\n        /* \"#utility.yul\":685:686   */\n      dup1\n        /* \"#utility.yul\":678:690   */\n      revert\n        /* \"#utility.yul\":622:692   */\n    tag_435:\n        /* \"#utility.yul\":567:698   */\n      pop\n      jump\t// out\n        /* \"#utility.yul\":703:1018   */\n    tag_49:\n        /* \"#utility.yul\":771:777   */\n      0x00\n        /* \"#utility.yul\":779:785   */\n      dup1\n        /* \"#utility.yul\":832:834   */\n      0x40\n        /* \"#utility.yul\":820:829   */\n      dup4\n        /* \"#utility.yul\":811:818   */\n      dup6\n        /* \"#utility.yul\":807:830   */\n      sub\n        /* \"#utility.yul\":803:835   */\n      slt\n        /* \"#utility.yul\":800:852   */\n      iszero\n      tag_437\n      jumpi\n        /* \"#utility.yul\":848:849   */\n      0x00\n        /* \"#utility.yul\":845:846   */\n      dup1\n        /* \"#utility.yul\":838:850   */\n      revert\n        /* \"#utility.yul\":800:852   */\n    tag_437:\n        /* \"#utility.yul\":887:896   */\n      dup3\n        /* \"#utility.yul\":874:897   */\n      calldataload\n        /* \"#utility.yul\":906:937   */\n      tag_438\n        /* \"#utility.yul\":931:936   */\n      dup2\n        /* \"#utility.yul\":906:937   */\n      tag_423\n      jump\t// in\n    tag_438:\n        /* \"#utility.yul\":956:961   */\n      swap5\n        /* \"#utility.yul\":1008:1010   */\n      0x20\n        /* \"#utility.yul\":993:1011   */\n      swap4\n      swap1\n      swap4\n      add\n        /* \"#utility.yul\":980:1012   */\n      calldataload\n      swap4\n      pop\n      pop\n      pop\n        /* \"#utility.yul\":703:1018   */\n      jump\t// out\n        /* \"#utility.yul\":1632:1948   */\n    tag_63:\n        /* \"#utility.yul\":1709:1715   */\n      0x00\n        /* \"#utility.yul\":1717:1723   */\n      dup1\n        /* \"#utility.yul\":1725:1731   */\n      0x00\n        /* \"#utility.yul\":1778:1780   */\n      0x60\n        /* \"#utility.yul\":1766:1775   */\n      dup5\n        /* \"#utility.yul\":1757:1764   */\n      dup7\n        /* \"#utility.yul\":1753:1776   */\n      sub\n        /* \"#utility.yul\":1749:1781   */\n      slt\n        /* \"#utility.yul\":1746:1798   */\n      iszero\n      tag_443\n      jumpi\n        /* \"#utility.yul\":1794:1795   */\n      0x00\n        /* \"#utility.yul\":1791:1792   */\n      dup1\n        /* \"#utility.yul\":1784:1796   */\n      revert\n        /* \"#utility.yul\":1746:1798   */\n    tag_443:\n      pop\n      pop\n        /* \"#utility.yul\":1817:1840   */\n      dup2\n      calldataload\n      swap4\n        /* \"#utility.yul\":1887:1889   */\n      0x20\n        /* \"#utility.yul\":1872:1890   */\n      dup4\n      add\n        /* \"#utility.yul\":1859:1891   */\n      calldataload\n      swap4\n      pop\n        /* \"#utility.yul\":1938:1940   */\n      0x40\n        /* \"#utility.yul\":1923:1941   */\n      swap1\n      swap3\n      add\n        /* \"#utility.yul\":1910:1942   */\n      calldataload\n      swap2\n        /* \"#utility.yul\":1632:1948   */\n      swap1\n      pop\n      jump\t// out\n        /* \"#utility.yul\":1953:2409   */\n    tag_67:\n        /* \"#utility.yul\":2030:2036   */\n      0x00\n        /* \"#utility.yul\":2038:2044   */\n      dup1\n        /* \"#utility.yul\":2046:2052   */\n      0x00\n        /* \"#utility.yul\":2099:2101   */\n      0x60\n        /* \"#utility.yul\":2087:2096   */\n      dup5\n        /* \"#utility.yul\":2078:2085   */\n      dup7\n        /* \"#utility.yul\":2074:2097   */\n      sub\n        /* \"#utility.yul\":2070:2102   */\n      slt\n        /* \"#utility.yul\":2067:2119   */\n      iszero\n      tag_445\n      jumpi\n        /* \"#utility.yul\":2115:2116   */\n      0x00\n        /* \"#utility.yul\":2112:2113   */\n      dup1\n        /* \"#utility.yul\":2105:2117   */\n      revert\n        /* \"#utility.yul\":2067:2119   */\n    tag_445:\n        /* \"#utility.yul\":2154:2163   */\n      dup4\n        /* \"#utility.yul\":2141:2164   */\n      calldataload\n        /* \"#utility.yul\":2173:2204   */\n      tag_446\n        /* \"#utility.yul\":2198:2203   */\n      dup2\n        /* \"#utility.yul\":2173:2204   */\n      tag_423\n      jump\t// in\n    tag_446:\n        /* \"#utility.yul\":2223:2228   */\n      swap3\n      pop\n        /* \"#utility.yul\":2280:2282   */\n      0x20\n        /* \"#utility.yul\":2265:2283   */\n      dup5\n      add\n        /* \"#utility.yul\":2252:2284   */\n      calldataload\n        /* \"#utility.yul\":2293:2326   */\n      tag_447\n        /* \"#utility.yul\":2252:2284   */\n      dup2\n        /* \"#utility.yul\":2293:2326   */\n      tag_423\n      jump\t// in\n    tag_447:\n        /* \"#utility.yul\":1953:2409   */\n      swap3\n      swap6\n        /* \"#utility.yul\":2345:2352   */\n      swap3\n      swap5\n      pop\n      pop\n      pop\n        /* \"#utility.yul\":2399:2401   */\n      0x40\n        /* \"#utility.yul\":2384:2402   */\n      swap2\n      swap1\n      swap2\n      add\n        /* \"#utility.yul\":2371:2403   */\n      calldataload\n      swap1\n        /* \"#utility.yul\":1953:2409   */\n      jump\t// out\n        /* \"#utility.yul\":2414:2594   */\n    tag_72:\n        /* \"#utility.yul\":2473:2479   */\n      0x00\n        /* \"#utility.yul\":2526:2528   */\n      0x20\n        /* \"#utility.yul\":2514:2523   */\n      dup3\n        /* \"#utility.yul\":2505:2512   */\n      dup5\n        /* \"#utility.yul\":2501:2524   */\n      sub\n        /* \"#utility.yul\":2497:2529   */\n      slt\n        /* \"#utility.yul\":2494:2546   */\n      iszero\n      tag_449\n      jumpi\n        /* \"#utility.yul\":2542:2543   */\n      0x00\n        /* \"#utility.yul\":2539:2540   */\n      dup1\n        /* \"#utility.yul\":2532:2544   */\n      revert\n        /* \"#utility.yul\":2494:2546   */\n    tag_449:\n      pop\n        /* \"#utility.yul\":2565:2588   */\n      calldataload\n      swap2\n        /* \"#utility.yul\":2414:2594   */\n      swap1\n      pop\n      jump\t// out\n        /* \"#utility.yul\":2788:3035   */\n    tag_84:\n        /* \"#utility.yul\":2847:2853   */\n      0x00\n        /* \"#utility.yul\":2900:2902   */\n      0x20\n        /* \"#utility.yul\":2888:2897   */\n      dup3\n        /* \"#utility.yul\":2879:2886   */\n      dup5\n        /* \"#utility.yul\":2875:2898   */\n      sub\n        /* \"#utility.yul\":2871:2903   */\n      slt\n        /* \"#utility.yul\":2868:2920   */\n      iszero\n      tag_452\n      jumpi\n        /* \"#utility.yul\":2916:2917   */\n      0x00\n        /* \"#utility.yul\":2913:2914   */\n      dup1\n        /* \"#utility.yul\":2906:2918   */\n      revert\n        /* \"#utility.yul\":2868:2920   */\n    tag_452:\n        /* \"#utility.yul\":2955:2964   */\n      dup2\n        /* \"#utility.yul\":2942:2965   */\n      calldataload\n        /* \"#utility.yul\":2974:3005   */\n      tag_340\n        /* \"#utility.yul\":2999:3004   */\n      dup2\n        /* \"#utility.yul\":2974:3005   */\n      tag_423\n      jump\t// in\n        /* \"#utility.yul\":3508:3875   */\n    tag_424:\n        /* \"#utility.yul\":3571:3579   */\n      0x00\n        /* \"#utility.yul\":3581:3587   */\n      dup1\n        /* \"#utility.yul\":3635:3638   */\n      dup4\n        /* \"#utility.yul\":3628:3632   */\n      0x1f\n        /* \"#utility.yul\":3620:3626   */\n      dup5\n        /* \"#utility.yul\":3616:3633   */\n      add\n        /* \"#utility.yul\":3612:3639   */\n      slt\n        /* \"#utility.yul\":3602:3657   */\n      tag_459\n      jumpi\n        /* \"#utility.yul\":3653:3654   */\n      0x00\n        /* \"#utility.yul\":3650:3651   */\n      dup1\n        /* \"#utility.yul\":3643:3655   */\n      revert\n        /* \"#utility.yul\":3602:3657   */\n    tag_459:\n      pop\n        /* \"#utility.yul\":3676:3696   */\n      dup2\n      calldataload\n        /* \"#utility.yul\":3719:3737   */\n      0xffffffffffffffff\n        /* \"#utility.yul\":3708:3738   */\n      dup2\n      gt\n        /* \"#utility.yul\":3705:3755   */\n      iszero\n      tag_460\n      jumpi\n        /* \"#utility.yul\":3751:3752   */\n      0x00\n        /* \"#utility.yul\":3748:3749   */\n      dup1\n        /* \"#utility.yul\":3741:3753   */\n      revert\n        /* \"#utility.yul\":3705:3755   */\n    tag_460:\n        /* \"#utility.yul\":3788:3792   */\n      0x20\n        /* \"#utility.yul\":3780:3786   */\n      dup4\n        /* \"#utility.yul\":3776:3793   */\n      add\n        /* \"#utility.yul\":3764:3793   */\n      swap2\n      pop\n        /* \"#utility.yul\":3848:3851   */\n      dup4\n        /* \"#utility.yul\":3841:3845   */\n      0x20\n        /* \"#utility.yul\":3831:3837   */\n      dup3\n        /* \"#utility.yul\":3828:3829   */\n      0x05\n        /* \"#utility.yul\":3824:3838   */\n      shl\n        /* \"#utility.yul\":3816:3822   */\n      dup6\n        /* \"#utility.yul\":3812:3839   */\n      add\n        /* \"#utility.yul\":3808:3846   */\n      add\n        /* \"#utility.yul\":3805:3852   */\n      gt\n        /* \"#utility.yul\":3802:3869   */\n      iszero\n      tag_461\n      jumpi\n        /* \"#utility.yul\":3865:3866   */\n      0x00\n        /* \"#utility.yul\":3862:3863   */\n      dup1\n        /* \"#utility.yul\":3855:3867   */\n      revert\n        /* \"#utility.yul\":3802:3869   */\n    tag_461:\n        /* \"#utility.yul\":3508:3875   */\n      swap3\n      pop\n      swap3\n      swap1\n      pop\n      jump\t// out\n        /* \"#utility.yul\":3880:4650   */\n    tag_133:\n        /* \"#utility.yul\":3999:4005   */\n      0x00\n        /* \"#utility.yul\":4007:4013   */\n      dup1\n        /* \"#utility.yul\":4015:4021   */\n      0x00\n        /* \"#utility.yul\":4023:4029   */\n      dup1\n        /* \"#utility.yul\":4076:4078   */\n      0x40\n        /* \"#utility.yul\":4064:4073   */\n      dup6\n        /* \"#utility.yul\":4055:4062   */\n      dup8\n        /* \"#utility.yul\":4051:4074   */\n      sub\n        /* \"#utility.yul\":4047:4079   */\n      slt\n        /* \"#utility.yul\":4044:4096   */\n      iszero\n      tag_463\n      jumpi\n        /* \"#utility.yul\":4092:4093   */\n      0x00\n        /* \"#utility.yul\":4089:4090   */\n      dup1\n        /* \"#utility.yul\":4082:4094   */\n      revert\n        /* \"#utility.yul\":4044:4096   */\n    tag_463:\n        /* \"#utility.yul\":4132:4141   */\n      dup5\n        /* \"#utility.yul\":4119:4142   */\n      calldataload\n        /* \"#utility.yul\":4161:4179   */\n      0xffffffffffffffff\n        /* \"#utility.yul\":4202:4204   */\n      dup1\n        /* \"#utility.yul\":4194:4200   */\n      dup3\n        /* \"#utility.yul\":4191:4205   */\n      gt\n        /* \"#utility.yul\":4188:4222   */\n      iszero\n      tag_464\n      jumpi\n        /* \"#utility.yul\":4218:4219   */\n      0x00\n        /* \"#utility.yul\":4215:4216   */\n      dup1\n        /* \"#utility.yul\":4208:4220   */\n      revert\n        /* \"#utility.yul\":4188:4222   */\n    tag_464:\n        /* \"#utility.yul\":4257:4327   */\n      tag_465\n        /* \"#utility.yul\":4319:4326   */\n      dup9\n        /* \"#utility.yul\":4310:4316   */\n      dup4\n        /* \"#utility.yul\":4299:4308   */\n      dup10\n        /* \"#utility.yul\":4295:4317   */\n      add\n        /* \"#utility.yul\":4257:4327   */\n      tag_424\n      jump\t// in\n    tag_465:\n        /* \"#utility.yul\":4346:4354   */\n      swap1\n      swap7\n      pop\n        /* \"#utility.yul\":4231:4327   */\n      swap5\n      pop\n        /* \"#utility.yul\":4434:4436   */\n      0x20\n        /* \"#utility.yul\":4419:4437   */\n      dup8\n      add\n        /* \"#utility.yul\":4406:4438   */\n      calldataload\n      swap2\n      pop\n        /* \"#utility.yul\":4450:4466   */\n      dup1\n      dup3\n      gt\n        /* \"#utility.yul\":4447:4483   */\n      iszero\n      tag_466\n      jumpi\n        /* \"#utility.yul\":4479:4480   */\n      0x00\n        /* \"#utility.yul\":4476:4477   */\n      dup1\n        /* \"#utility.yul\":4469:4481   */\n      revert\n        /* \"#utility.yul\":4447:4483   */\n    tag_466:\n      pop\n        /* \"#utility.yul\":4518:4590   */\n      tag_467\n        /* \"#utility.yul\":4582:4589   */\n      dup8\n        /* \"#utility.yul\":4571:4579   */\n      dup3\n        /* \"#utility.yul\":4560:4569   */\n      dup9\n        /* \"#utility.yul\":4556:4580   */\n      add\n        /* \"#utility.yul\":4518:4590   */\n      tag_424\n      jump\t// in\n    tag_467:\n        /* \"#utility.yul\":3880:4650   */\n      swap6\n      swap9\n      swap5\n      swap8\n      pop\n        /* \"#utility.yul\":4609:4617   */\n      swap6\n      pop\n      pop\n      pop\n      pop\n        /* \"#utility.yul\":3880:4650   */\n      jump\t// out\n        /* \"#utility.yul\":4655:4815   */\n    tag_425:\n        /* \"#utility.yul\":4720:4740   */\n      dup1\n      calldataload\n        /* \"#utility.yul\":4776:4789   */\n      dup1\n      iszero\n        /* \"#utility.yul\":4769:4790   */\n      iszero\n        /* \"#utility.yul\":4759:4791   */\n      dup2\n      eq\n        /* \"#utility.yul\":4749:4809   */\n      tag_469\n      jumpi\n        /* \"#utility.yul\":4805:4806   */\n      0x00\n        /* \"#utility.yul\":4802:4803   */\n      dup1\n        /* \"#utility.yul\":4795:4807   */\n      revert\n        /* \"#utility.yul\":4749:4809   */\n    tag_469:\n        /* \"#utility.yul\":4655:4815   */\n      swap2\n      swap1\n      pop\n      jump\t// out\n        /* \"#utility.yul\":4820:5135   */\n    tag_143:\n        /* \"#utility.yul\":4885:4891   */\n      0x00\n        /* \"#utility.yul\":4893:4899   */\n      dup1\n        /* \"#utility.yul\":4946:4948   */\n      0x40\n        /* \"#utility.yul\":4934:4943   */\n      dup4\n        /* \"#utility.yul\":4925:4932   */\n      dup6\n        /* \"#utility.yul\":4921:4944   */\n      sub\n        /* \"#utility.yul\":4917:4949   */\n      slt\n        /* \"#utility.yul\":4914:4966   */\n      iszero\n      tag_471\n      jumpi\n        /* \"#utility.yul\":4962:4963   */\n      0x00\n        /* \"#utility.yul\":4959:4960   */\n      dup1\n        /* \"#utility.yul\":4952:4964   */\n      revert\n        /* \"#utility.yul\":4914:4966   */\n    tag_471:\n        /* \"#utility.yul\":5001:5010   */\n      dup3\n        /* \"#utility.yul\":4988:5011   */\n      calldataload\n        /* \"#utility.yul\":5020:5051   */\n      tag_472\n        /* \"#utility.yul\":5045:5050   */\n      dup2\n        /* \"#utility.yul\":5020:5051   */\n      tag_423\n      jump\t// in\n    tag_472:\n        /* \"#utility.yul\":5070:5075   */\n      swap2\n      pop\n        /* \"#utility.yul\":5094:5129   */\n      tag_473\n        /* \"#utility.yul\":5125:5127   */\n      0x20\n        /* \"#utility.yul\":5110:5128   */\n      dup5\n      add\n        /* \"#utility.yul\":5094:5129   */\n      tag_425\n      jump\t// in\n    tag_473:\n        /* \"#utility.yul\":5084:5129   */\n      swap1\n      pop\n        /* \"#utility.yul\":4820:5135   */\n      swap3\n      pop\n      swap3\n      swap1\n      pop\n      jump\t// out\n        /* \"#utility.yul\":5140:5528   */\n    tag_150:\n        /* \"#utility.yul\":5208:5214   */\n      0x00\n        /* \"#utility.yul\":5216:5222   */\n      dup1\n        /* \"#utility.yul\":5269:5271   */\n      0x40\n        /* \"#utility.yul\":5257:5266   */\n      dup4\n        /* \"#utility.yul\":5248:5255   */\n      dup6\n        /* \"#utility.yul\":5244:5267   */\n      sub\n        /* \"#utility.yul\":5240:5272   */\n      slt\n        /* \"#utility.yul\":5237:5289   */\n      iszero\n      tag_475\n      jumpi\n        /* \"#utility.yul\":5285:5286   */\n      0x00\n        /* \"#utility.yul\":5282:5283   */\n      dup1\n        /* \"#utility.yul\":5275:5287   */\n      revert\n        /* \"#utility.yul\":5237:5289   */\n    tag_475:\n        /* \"#utility.yul\":5324:5333   */\n      dup3\n        /* \"#utility.yul\":5311:5334   */\n      calldataload\n        /* \"#utility.yul\":5343:5374   */\n      tag_476\n        /* \"#utility.yul\":5368:5373   */\n      dup2\n        /* \"#utility.yul\":5343:5374   */\n      tag_423\n      jump\t// in\n    tag_476:\n        /* \"#utility.yul\":5393:5398   */\n      swap2\n      pop\n        /* \"#utility.yul\":5450:5452   */\n      0x20\n        /* \"#utility.yul\":5435:5453   */\n      dup4\n      add\n        /* \"#utility.yul\":5422:5454   */\n      calldataload\n        /* \"#utility.yul\":5463:5496   */\n      tag_477\n        /* \"#utility.yul\":5422:5454   */\n      dup2\n        /* \"#utility.yul\":5463:5496   */\n      tag_423\n      jump\t// in\n    tag_477:\n        /* \"#utility.yul\":5515:5522   */\n      dup1\n        /* \"#utility.yul\":5505:5522   */\n      swap2\n      pop\n      pop\n        /* \"#utility.yul\":5140:5528   */\n      swap3\n      pop\n      swap3\n      swap1\n      pop\n      jump\t// out\n        /* \"#utility.yul\":5757:6137   */\n    tag_170:\n        /* \"#utility.yul\":5836:5837   */\n      0x01\n        /* \"#utility.yul\":5832:5844   */\n      dup2\n      dup2\n      shr\n      swap1\n        /* \"#utility.yul\":5879:5891   */\n      dup3\n      and\n      dup1\n        /* \"#utility.yul\":5900:5961   */\n      tag_480\n      jumpi\n        /* \"#utility.yul\":5954:5958   */\n      0x7f\n        /* \"#utility.yul\":5946:5952   */\n      dup3\n        /* \"#utility.yul\":5942:5959   */\n      and\n        /* \"#utility.yul\":5932:5959   */\n      swap2\n      pop\n        /* \"#utility.yul\":5900:5961   */\n    tag_480:\n        /* \"#utility.yul\":6007:6009   */\n      0x20\n        /* \"#utility.yul\":5999:6005   */\n      dup3\n        /* \"#utility.yul\":5996:6010   */\n      lt\n        /* \"#utility.yul\":5976:5994   */\n      dup2\n        /* \"#utility.yul\":5973:6011   */\n      sub\n        /* \"#utility.yul\":5970:6131   */\n      tag_481\n      jumpi\n        /* \"#utility.yul\":6053:6063   */\n      0x4e487b71\n        /* \"#utility.yul\":6048:6051   */\n      0xe0\n        /* \"#utility.yul\":6044:6064   */\n      shl\n        /* \"#utility.yul\":6041:6042   */\n      0x00\n        /* \"#utility.yul\":6034:6065   */\n      mstore\n        /* \"#utility.yul\":6088:6092   */\n      0x22\n        /* \"#utility.yul\":6085:6086   */\n      0x04\n        /* \"#utility.yul\":6078:6093   */\n      mstore\n        /* \"#utility.yul\":6116:6120   */\n      0x24\n        /* \"#utility.yul\":6113:6114   */\n      0x00\n        /* \"#utility.yul\":6106:6121   */\n      revert\n        /* \"#utility.yul\":5970:6131   */\n    tag_481:\n      pop\n        /* \"#utility.yul\":5757:6137   */\n      swap2\n      swap1\n      pop\n      jump\t// out\n        /* \"#utility.yul\":6142:6498   */\n    tag_185:\n        /* \"#utility.yul\":6344:6346   */\n      0x20\n        /* \"#utility.yul\":6326:6347   */\n      dup1\n      dup3\n      mstore\n        /* \"#utility.yul\":6363:6381   */\n      dup2\n      dup2\n      add\n        /* \"#utility.yul\":6356:6386   */\n      mstore\n        /* \"#utility.yul\":6422:6456   */\n      0x4f776e61626c653a2063616c6c6572206973206e6f7420746865206f776e6572\n        /* \"#utility.yul\":6417:6419   */\n      0x40\n        /* \"#utility.yul\":6402:6420   */\n      dup3\n      add\n        /* \"#utility.yul\":6395:6457   */\n      mstore\n        /* \"#utility.yul\":6489:6491   */\n      0x60\n        /* \"#utility.yul\":6474:6492   */\n      add\n      swap1\n        /* \"#utility.yul\":6142:6498   */\n      jump\t// out\n        /* \"#utility.yul\":7271:7398   */\n    tag_426:\n        /* \"#utility.yul\":7332:7342   */\n      0x4e487b71\n        /* \"#utility.yul\":7327:7330   */\n      0xe0\n        /* \"#utility.yul\":7323:7343   */\n      shl\n        /* \"#utility.yul\":7320:7321   */\n      0x00\n        /* \"#utility.yul\":7313:7344   */\n      mstore\n        /* \"#utility.yul\":7363:7367   */\n      0x11\n        /* \"#utility.yul\":7360:7361   */\n      0x04\n        /* \"#utility.yul\":7353:7368   */\n      mstore\n        /* \"#utility.yul\":7387:7391   */\n      0x24\n        /* \"#utility.yul\":7384:7385   */\n      0x00\n        /* \"#utility.yul\":7377:7392   */\n      revert\n        /* \"#utility.yul\":7403:7531   */\n    tag_204:\n        /* \"#utility.yul\":7470:7479   */\n      dup2\n      dup2\n      sub\n        /* \"#utility.yul\":7491:7502   */\n      dup2\n      dup2\n      gt\n        /* \"#utility.yul\":7488:7525   */\n      iszero\n      tag_175\n      jumpi\n        /* \"#utility.yul\":7505:7523   */\n      tag_175\n      tag_426\n      jump\t// in\n        /* \"#utility.yul\":7954:8079   */\n    tag_227:\n        /* \"#utility.yul\":8019:8028   */\n      dup1\n      dup3\n      add\n        /* \"#utility.yul\":8040:8050   */\n      dup1\n      dup3\n      gt\n        /* \"#utility.yul\":8037:8073   */\n      iszero\n      tag_175\n      jumpi\n        /* \"#utility.yul\":8053:8071   */\n      tag_175\n      tag_426\n      jump\t// in\n        /* \"#utility.yul\":8084:8506   */\n    tag_427:\n        /* \"#utility.yul\":8173:8174   */\n      0x01\n        /* \"#utility.yul\":8216:8221   */\n      dup2\n        /* \"#utility.yul\":8173:8174   */\n      dup2\n        /* \"#utility.yul\":8230:8500   */\n    tag_494:\n        /* \"#utility.yul\":8251:8258   */\n      dup1\n        /* \"#utility.yul\":8241:8249   */\n      dup6\n        /* \"#utility.yul\":8238:8259   */\n      gt\n        /* \"#utility.yul\":8230:8500   */\n      iszero\n      tag_496\n      jumpi\n        /* \"#utility.yul\":8310:8314   */\n      dup2\n        /* \"#utility.yul\":8306:8307   */\n      0x00\n        /* \"#utility.yul\":8302:8308   */\n      not\n        /* \"#utility.yul\":8298:8315   */\n      div\n        /* \"#utility.yul\":8292:8296   */\n      dup3\n        /* \"#utility.yul\":8289:8316   */\n      gt\n        /* \"#utility.yul\":8286:8339   */\n      iszero\n      tag_498\n      jumpi\n        /* \"#utility.yul\":8319:8337   */\n      tag_498\n      tag_426\n      jump\t// in\n    tag_498:\n        /* \"#utility.yul\":8369:8376   */\n      dup1\n        /* \"#utility.yul\":8359:8367   */\n      dup6\n        /* \"#utility.yul\":8355:8377   */\n      and\n        /* \"#utility.yul\":8352:8407   */\n      iszero\n      tag_499\n      jumpi\n        /* \"#utility.yul\":8389:8405   */\n      swap2\n      dup2\n      mul\n      swap2\n        /* \"#utility.yul\":8352:8407   */\n    tag_499:\n        /* \"#utility.yul\":8468:8490   */\n      swap4\n      dup5\n      shr\n      swap4\n        /* \"#utility.yul\":8428:8443   */\n      swap1\n      dup1\n      mul\n      swap1\n        /* \"#utility.yul\":8230:8500   */\n      jump(tag_494)\n    tag_496:\n        /* \"#utility.yul\":8234:8237   */\n      pop\n        /* \"#utility.yul\":8084:8506   */\n      swap3\n      pop\n      swap3\n      swap1\n      pop\n      jump\t// out\n        /* \"#utility.yul\":8511:9317   */\n    tag_428:\n        /* \"#utility.yul\":8560:8565   */\n      0x00\n        /* \"#utility.yul\":8590:8598   */\n      dup3\n        /* \"#utility.yul\":8580:8660   */\n      tag_501\n      jumpi\n      pop\n        /* \"#utility.yul\":8631:8632   */\n      0x01\n        /* \"#utility.yul\":8645:8650   */\n      jump(tag_175)\n        /* \"#utility.yul\":8580:8660   */\n    tag_501:\n        /* \"#utility.yul\":8679:8683   */\n      dup2\n        /* \"#utility.yul\":8669:8745   */\n      tag_502\n      jumpi\n      pop\n        /* \"#utility.yul\":8716:8717   */\n      0x00\n        /* \"#utility.yul\":8730:8735   */\n      jump(tag_175)\n        /* \"#utility.yul\":8669:8745   */\n    tag_502:\n        /* \"#utility.yul\":8761:8765   */\n      dup2\n        /* \"#utility.yul\":8779:8780   */\n      0x01\n        /* \"#utility.yul\":8774:8833   */\n      dup2\n      eq\n      tag_504\n      jumpi\n        /* \"#utility.yul\":8847:8848   */\n      0x02\n        /* \"#utility.yul\":8842:8972   */\n      dup2\n      eq\n      tag_505\n      jumpi\n        /* \"#utility.yul\":8754:8972   */\n      jump(tag_503)\n        /* \"#utility.yul\":8774:8833   */\n    tag_504:\n        /* \"#utility.yul\":8804:8805   */\n      0x01\n        /* \"#utility.yul\":8795:8805   */\n      swap2\n      pop\n        /* \"#utility.yul\":8818:8823   */\n      pop\n      jump(tag_175)\n        /* \"#utility.yul\":8842:8972   */\n    tag_505:\n        /* \"#utility.yul\":8879:8882   */\n      0xff\n        /* \"#utility.yul\":8869:8877   */\n      dup5\n        /* \"#utility.yul\":8866:8883   */\n      gt\n        /* \"#utility.yul\":8863:8906   */\n      iszero\n      tag_507\n      jumpi\n        /* \"#utility.yul\":8886:8904   */\n      tag_507\n      tag_426\n      jump\t// in\n    tag_507:\n      pop\n      pop\n        /* \"#utility.yul\":8942:8943   */\n      0x01\n        /* \"#utility.yul\":8928:8944   */\n      dup3\n      shl\n        /* \"#utility.yul\":8957:8962   */\n      jump(tag_175)\n        /* \"#utility.yul\":8754:8972   */\n    tag_503:\n      pop\n        /* \"#utility.yul\":9056:9058   */\n      0x20\n        /* \"#utility.yul\":9046:9054   */\n      dup4\n        /* \"#utility.yul\":9043:9059   */\n      lt\n        /* \"#utility.yul\":9037:9040   */\n      0x0133\n        /* \"#utility.yul\":9031:9035   */\n      dup4\n        /* \"#utility.yul\":9028:9041   */\n      lt\n        /* \"#utility.yul\":9024:9060   */\n      and\n        /* \"#utility.yul\":9018:9020   */\n      0x4e\n        /* \"#utility.yul\":9008:9016   */\n      dup5\n        /* \"#utility.yul\":9005:9021   */\n      lt\n        /* \"#utility.yul\":9000:9002   */\n      0x0b\n        /* \"#utility.yul\":8994:8998   */\n      dup5\n        /* \"#utility.yul\":8991:9003   */\n      lt\n        /* \"#utility.yul\":8987:9022   */\n      and\n        /* \"#utility.yul\":8984:9061   */\n      or\n        /* \"#utility.yul\":8981:9140   */\n      iszero\n      tag_508\n      jumpi\n      pop\n        /* \"#utility.yul\":9093:9112   */\n      dup2\n      dup2\n      exp\n        /* \"#utility.yul\":9125:9130   */\n      jump(tag_175)\n        /* \"#utility.yul\":8981:9140   */\n    tag_508:\n        /* \"#utility.yul\":9172:9206   */\n      tag_509\n        /* \"#utility.yul\":9197:9205   */\n      dup4\n        /* \"#utility.yul\":9191:9195   */\n      dup4\n        /* \"#utility.yul\":9172:9206   */\n      tag_427\n      jump\t// in\n    tag_509:\n        /* \"#utility.yul\":9242:9248   */\n      dup1\n        /* \"#utility.yul\":9238:9239   */\n      0x00\n        /* \"#utility.yul\":9234:9240   */\n      not\n        /* \"#utility.yul\":9230:9249   */\n      div\n        /* \"#utility.yul\":9221:9228   */\n      dup3\n        /* \"#utility.yul\":9218:9250   */\n      gt\n        /* \"#utility.yul\":9215:9273   */\n      iszero\n      tag_511\n      jumpi\n        /* \"#utility.yul\":9253:9271   */\n      tag_511\n      tag_426\n      jump\t// in\n    tag_511:\n        /* \"#utility.yul\":9291:9311   */\n      mul\n      swap4\n        /* \"#utility.yul\":8511:9317   */\n      swap3\n      pop\n      pop\n      pop\n      jump\t// out\n        /* \"#utility.yul\":9322:9462   */\n    tag_235:\n        /* \"#utility.yul\":9380:9385   */\n      0x00\n        /* \"#utility.yul\":9409:9456   */\n      tag_340\n        /* \"#utility.yul\":9450:9454   */\n      0xff\n        /* \"#utility.yul\":9440:9448   */\n      dup5\n        /* \"#utility.yul\":9436:9455   */\n      and\n        /* \"#utility.yul\":9430:9434   */\n      dup4\n        /* \"#utility.yul\":9409:9456   */\n      tag_428\n      jump\t// in\n        /* \"#utility.yul\":9467:9635   */\n    tag_237:\n        /* \"#utility.yul\":9540:9549   */\n      dup1\n      dup3\n      mul\n        /* \"#utility.yul\":9571:9580   */\n      dup2\n      iszero\n        /* \"#utility.yul\":9588:9603   */\n      dup3\n      dup3\n      div\n        /* \"#utility.yul\":9582:9604   */\n      dup5\n      eq\n        /* \"#utility.yul\":9568:9605   */\n      or\n        /* \"#utility.yul\":9558:9629   */\n      tag_175\n      jumpi\n        /* \"#utility.yul\":9609:9627   */\n      tag_175\n      tag_426\n      jump\t// in\n        /* \"#utility.yul\":11981:12108   */\n    tag_306:\n        /* \"#utility.yul\":12042:12052   */\n      0x4e487b71\n        /* \"#utility.yul\":12037:12040   */\n      0xe0\n        /* \"#utility.yul\":12033:12053   */\n      shl\n        /* \"#utility.yul\":12030:12031   */\n      0x00\n        /* \"#utility.yul\":12023:12054   */\n      mstore\n        /* \"#utility.yul\":12073:12077   */\n      0x32\n        /* \"#utility.yul\":12070:12071   */\n      0x04\n        /* \"#utility.yul\":12063:12078   */\n      mstore\n        /* \"#utility.yul\":12097:12101   */\n      0x24\n        /* \"#utility.yul\":12094:12095   */\n      0x00\n        /* \"#utility.yul\":12087:12102   */\n      revert\n        /* \"#utility.yul\":12113:12293   */\n    tag_308:\n        /* \"#utility.yul\":12169:12175   */\n      0x00\n        /* \"#utility.yul\":12222:12224   */\n      0x20\n        /* \"#utility.yul\":12210:12219   */\n      dup3\n        /* \"#utility.yul\":12201:12208   */\n      dup5\n        /* \"#utility.yul\":12197:12220   */\n      sub\n        /* \"#utility.yul\":12193:12225   */\n      slt\n        /* \"#utility.yul\":12190:12242   */\n      iszero\n      tag_525\n      jumpi\n        /* \"#utility.yul\":12238:12239   */\n      0x00\n        /* \"#utility.yul\":12235:12236   */\n      dup1\n        /* \"#utility.yul\":12228:12240   */\n      revert\n        /* \"#utility.yul\":12190:12242   */\n    tag_525:\n        /* \"#utility.yul\":12261:12287   */\n      tag_340\n        /* \"#utility.yul\":12277:12286   */\n      dup3\n        /* \"#utility.yul\":12261:12287   */\n      tag_425\n      jump\t// in\n        /* \"#utility.yul\":12298:12433   */\n    tag_313:\n        /* \"#utility.yul\":12337:12340   */\n      0x00\n        /* \"#utility.yul\":12358:12375   */\n      0x01\n      dup3\n      add\n        /* \"#utility.yul\":12355:12398   */\n      tag_529\n      jumpi\n        /* \"#utility.yul\":12378:12396   */\n      tag_529\n      tag_426\n      jump\t// in\n    tag_529:\n      pop\n        /* \"#utility.yul\":12425:12426   */\n      0x01\n        /* \"#utility.yul\":12414:12427   */\n      add\n      swap1\n        /* \"#utility.yul\":12298:12433   */\n      jump\t// out\n        /* \"#utility.yul\":12438:12839   */\n    tag_321:\n        /* \"#utility.yul\":12640:12642   */\n      0x20\n        /* \"#utility.yul\":12622:12643   */\n      dup1\n      dup3\n      mstore\n        /* \"#utility.yul\":12679:12681   */\n      0x25\n        /* \"#utility.yul\":12659:12677   */\n      swap1\n      dup3\n      add\n        /* \"#utility.yul\":12652:12682   */\n      mstore\n        /* \"#utility.yul\":12718:12752   */\n      0x45787a6f3a20596f752063616e2774206578636c756465207a65726f20616464\n        /* \"#utility.yul\":12713:12715   */\n      0x40\n        /* \"#utility.yul\":12698:12716   */\n      dup3\n      add\n        /* \"#utility.yul\":12691:12753   */\n      mstore\n      shl(0xd8, 0x7265737321)\n        /* \"#utility.yul\":12784:12786   */\n      0x60\n        /* \"#utility.yul\":12769:12787   */\n      dup3\n      add\n        /* \"#utility.yul\":12762:12797   */\n      mstore\n        /* \"#utility.yul\":12829:12832   */\n      0x80\n        /* \"#utility.yul\":12814:12833   */\n      add\n      swap1\n        /* \"#utility.yul\":12438:12839   */\n      jump\t// out\n        /* \"#utility.yul\":16857:17074   */\n    tag_404:\n        /* \"#utility.yul\":16897:16898   */\n      0x00\n        /* \"#utility.yul\":16923:16924   */\n      dup3\n        /* \"#utility.yul\":16913:17045   */\n      tag_542\n      jumpi\n        /* \"#utility.yul\":16967:16977   */\n      0x4e487b71\n        /* \"#utility.yul\":16962:16965   */\n      0xe0\n        /* \"#utility.yul\":16958:16978   */\n      shl\n        /* \"#utility.yul\":16955:16956   */\n      0x00\n        /* \"#utility.yul\":16948:16979   */\n      mstore\n        /* \"#utility.yul\":17002:17006   */\n      0x12\n        /* \"#utility.yul\":16999:17000   */\n      0x04\n        /* \"#utility.yul\":16992:17007   */\n      mstore\n        /* \"#utility.yul\":17030:17034   */\n      0x24\n        /* \"#utility.yul\":17027:17028   */\n      0x00\n        /* \"#utility.yul\":17020:17035   */\n      revert\n        /* \"#utility.yul\":16913:17045   */\n    tag_542:\n      pop\n        /* \"#utility.yul\":17059:17068   */\n      div\n      swap1\n        /* \"#utility.yul\":16857:17074   */\n      jump\t// out\n    stop\n    data_ada389e1fc24a8587c776340efb91b36e675792ab631816100d55df0b5cf3cbc ddf252ad1be2c89b69c2b068fc378daa952ba7f163c4a11628f55a4df523b3ef\n\n    auxdata: 0xa264697066735822122069070598e956bdab63b91ec9b227834b0666b9b715781ef6fc2bb3250af6a83864736f6c63430008120033\n}\n",
				"bytecode": {
					"linkReferences": {},
					"object": "6080604052600880546001600160a01b031916731816687a332a3d0583ea06f725e90dd724b0aff71790556003600e55600f805560026010556a084595161401484a0000006013553480156200005457600080fd5b50600080546001600160a01b031916339081178255604051909182917f8be0079c531659141344cd1fd0a4f28419497f9722a3daafe3b4186f6b6457e0908290a35060408051808201909152600c81526b577261707065642045787a6f60a01b6020820152600b90620000c8908262000668565b5060408051808201909152600481526357585a4f60e01b6020820152600c90620000f3908262000668565b50600d805460ff191660129081179091556200011190600a62000847565b620001219063080befc06200085f565b6009819055506000737a250d5630b4cf539739df2c5dacb4c659f2488d9050806001600160a01b031663c45a01556040518163ffffffff1660e01b8152600401602060405180830381865afa1580156200017f573d6000803e3d6000fd5b505050506040513d601f19601f82011682018060405250810190620001a5919062000879565b6001600160a01b031663c9c6539630836001600160a01b031663ad5c46486040518163ffffffff1660e01b8152600401602060405180830381865afa158015620001f3573d6000803e3d6000fd5b505050506040513d601f19601f8201168201806040525081019062000219919062000879565b6040516001600160e01b031960e085901b1681526001600160a01b039283166004820152911660248201526044016020604051808303816000875af115801562000267573d6000803e3d6000fd5b505050506040513d601f19601f820116820180604052508101906200028d919062000879565b601280546001600160a01b03199081166001600160a01b0393841617909155601180549091169183169190911790553060009081526005602081905260408220805460ff1916600190811790915591620002ef6000546001600160a01b031690565b6001600160a01b03908116825260208083019390935260409182016000908120805495151560ff1996871617905560085482168152600584528281208054861660019081179091556012549092168152600690935291208054909216179055620003626200035a3390565b600a62000369565b50620008ba565b6000546001600160a01b03163314620003c95760405162461bcd60e51b815260206004820181905260248201527f4f776e61626c653a2063616c6c6572206973206e6f7420746865206f776e657260448201526064015b60405180910390fd5b600d54600090620003df9060ff16600a62000847565b620003eb90836200085f565b90506009546200040c82600a546200055360201b620010391790919060201c565b11156200046d5760405162461bcd60e51b815260206004820152602860248201527f45787a6f3a20596f752063616e2774206d696e74206d6f7265207468616e204d6044820152676178537570706c7960c01b6064820152608401620003c0565b6001600160a01b038316620004c55760405162461bcd60e51b815260206004820152601e60248201527f45787a6f3a206d696e7420746f20746865207a65726f206164647265737300006044820152606401620003c0565b80600a6000828254620004d99190620008a4565b90915550506001600160a01b0383166000908152600360205260408120805483929062000508908490620008a4565b90915550506040518181526001600160a01b038416906000907fddf252ad1be2c89b69c2b068fc378daa952ba7f163c4a11628f55a4df523b3ef9060200160405180910390a3505050565b600080620005628385620008a4565b905083811015620005b65760405162461bcd60e51b815260206004820152601b60248201527f536166654d6174683a206164646974696f6e206f766572666c6f7700000000006044820152606401620003c0565b90505b92915050565b505050565b634e487b7160e01b600052604160045260246000fd5b600181811c90821680620005ef57607f821691505b6020821081036200061057634e487b7160e01b600052602260045260246000fd5b50919050565b601f821115620005bf57600081815260208120601f850160051c810160208610156200063f5750805b601f850160051c820191505b8181101562000660578281556001016200064b565b505050505050565b81516001600160401b03811115620006845762000684620005c4565b6200069c81620006958454620005da565b8462000616565b602080601f831160018114620006d45760008415620006bb5750858301515b600019600386901b1c1916600185901b17855562000660565b600085815260208120601f198616915b828110156200070557888601518255948401946001909101908401620006e4565b5085821015620007245787850151600019600388901b60f8161c191681555b5050505050600190811b01905550565b634e487b7160e01b600052601160045260246000fd5b600181815b808511156200078b5781600019048211156200076f576200076f62000734565b808516156200077d57918102915b93841c93908002906200074f565b509250929050565b600082620007a457506001620005b9565b81620007b357506000620005b9565b8160018114620007cc5760028114620007d757620007f7565b6001915050620005b9565b60ff841115620007eb57620007eb62000734565b50506001821b620005b9565b5060208310610133831016604e8410600b84101617156200081c575081810a620005b9565b6200082883836200074a565b80600019048211156200083f576200083f62000734565b029392505050565b60006200085860ff84168362000793565b9392505050565b8082028115828204841417620005b957620005b962000734565b6000602082840312156200088c57600080fd5b81516001600160a01b0381168114620005b657600080fd5b80820180821115620005b957620005b962000734565b611d6580620008ca6000396000f3fe608060405234801561001057600080fd5b50600436106101fb5760003560e01c8063715018a61161011a578063b36c1284116100ad578063dd62ed3e1161007c578063dd62ed3e14610452578063e47d60601461048b578063e7b94df4146104ae578063f2fde38b146104c1578063faf38f62146104d457600080fd5b8063b36c12841461041a578063c0b0fda214610423578063c37368821461042c578063c676af831461043f57600080fd5b80639b1f9e74116100e95780639b1f9e74146103ce578063a457c2d7146103e1578063a9059cbb146103f4578063afc82bd91461040757600080fd5b8063715018a6146103a45780637d1db4a5146103ac5780638da5cb5b146103b557806395d89b41146103c657600080fd5b806339509351116101925780635342acb4116101615780635342acb4146103335780635a96cdd71461035f5780636bc87c3a1461037257806370a082311461037b57600080fd5b806339509351146102ce5780633979e9ca146102e157806349bd5a5e1461030d5780634e6ec2471461032057600080fd5b806322429085116101ce578063224290851461027e57806323b872dd1461029357806328141d5b146102a6578063313ce567146102b957600080fd5b806306fdde0314610200578063095ea7b31461021e5780631694505e1461024157806318160ddd1461026c575b600080fd5b6102086104dd565b6040516102159190611839565b60405180910390f35b61023161022c36600461189f565b61056f565b6040519015158152602001610215565b601154610254906001600160a01b031681565b6040516001600160a01b039091168152602001610215565b600a545b604051908152602001610215565b61029161028c3660046118cb565b610586565b005b6102316102a13660046118f7565b610682565b6102916102b4366004611938565b6107bc565b600d5460405160ff9091168152602001610215565b6102316102dc36600461189f565b6108ac565b6102316102ef366004611951565b6001600160a01b031660009081526006602052604090205460ff1690565b601254610254906001600160a01b031681565b61029161032e36600461189f565b6108e8565b610231610341366004611951565b6001600160a01b031660009081526005602052604090205460ff1690565b61029161036d366004611951565b610a78565b610270600e5481565b610270610389366004611951565b6001600160a01b031660009081526003602052604090205490565b610291610ac4565b61027060135481565b6000546001600160a01b0316610254565b610208610b38565b6102916103dc366004611938565b610b47565b6102316103ef36600461189f565b610c9a565b61023161040236600461189f565b610d29565b6102916104153660046119ba565b610d36565b61027060095481565b61027060105481565b61029161043a366004611a3b565b610e59565b61029161044d366004611a3b565b610ed4565b610270610460366004611a70565b6001600160a01b03918216600090815260046020908152604080832093909416825291909152205490565b610231610499366004611951565b60076020526000908152604090205460ff1681565b600854610254906001600160a01b031681565b6102916104cf366004611951565b610f4f565b610270600f5481565b6060600b80546104ec90611aa9565b80601f016020809104026020016040519081016040528092919081815260200182805461051890611aa9565b80156105655780601f1061053a57610100808354040283529160200191610565565b820191906000526020600020905b81548152906001019060200180831161054857829003601f168201915b5050505050905090565b600061057c33848461109f565b5060015b92915050565b6000546001600160a01b031633146105b95760405162461bcd60e51b81526004016105b090611ae3565b60405180910390fd5b6109c46105d0826105ca8686611039565b90611039565b111561062e5760405162461bcd60e51b815260206004820152602760248201527f45787a6f3a20596f752063616e6e6f74742073657420666565206d6f7265207460448201526668616e2032352560c81b60648201526084016105b0565b600e8390556010829055600f8190557faa4b71ac29531fdea0ef1650c76ef91e3771dac25f4a4dd2a561ff3e0b9a5de261066c826105ca8686611039565b60405190815260200160405180910390a1505050565b60006001600160a01b0383161515806106a457506001600160a01b0383163014155b6106ad57600080fd5b6001600160a01b03841633146107a7576001600160a01b038416600090815260046020908152604080832033845290915290205460001981146107a5578281101561073a5760405162461bcd60e51b815260206004820152601f60248201527f45787a6f3a2072657175657374206578636565647320616c6c6f77616e63650060448201526064016105b0565b60006107468483611b2e565b6001600160a01b038716600081815260046020908152604080832033808552908352928190208590555184815293945090927f8c5be1e5ebec7d5bd14f71427d1e84f3dd0314c0f7b2291e5b200ac8c7c3b925910160405180910390a3505b505b6107b28484846111ba565b5060019392505050565b6000546001600160a01b031633146107e65760405162461bcd60e51b81526004016105b090611ae3565b60018110156108515760405162461bcd60e51b815260206004820152603160248201527f45787a6f3a2050657263656e746167652073686f756c642062652067726561746044820152706572206f7220657175616c20746f20312160781b60648201526084016105b0565b610871606461086b83600a546116cb90919063ffffffff16565b9061174d565b60138190556040519081527f947f344d56e1e8c70dc492fb94c4ddddd490c016aab685f5e7e47b2e85cb44cf9060200160405180910390a150565b3360008181526004602090815260408083206001600160a01b0387168452909152812054909161057c9185906108e3908690611b41565b61109f565b6000546001600160a01b031633146109125760405162461bcd60e51b81526004016105b090611ae3565b600d546000906109269060ff16600a611c38565b6109309083611c47565b905060095461094a82600a5461103990919063ffffffff16565b11156109a95760405162461bcd60e51b815260206004820152602860248201527f45787a6f3a20596f752063616e2774206d696e74206d6f7265207468616e204d6044820152676178537570706c7960c01b60648201526084016105b0565b6001600160a01b0383166109ff5760405162461bcd60e51b815260206004820152601e60248201527f45787a6f3a206d696e7420746f20746865207a65726f2061646472657373000060448201526064016105b0565b80600a6000828254610a119190611b41565b90915550506001600160a01b03831660009081526003602052604081208054839290610a3e908490611b41565b90915550506040518181526001600160a01b03841690600090600080516020611d10833981519152906020015b60405180910390a3505050565b6000546001600160a01b03163314610aa25760405162461bcd60e51b81526004016105b090611ae3565b600880546001600160a01b0319166001600160a01b0392909216919091179055565b6000546001600160a01b03163314610aee5760405162461bcd60e51b81526004016105b090611ae3565b600080546040516001600160a01b03909116907f8be0079c531659141344cd1fd0a4f28419497f9722a3daafe3b4186f6b6457e0908390a3600080546001600160a01b0319169055565b6060600c80546104ec90611aa9565b600d54600090610b5b9060ff16600a611c38565b610b659083611c47565b90503380610bb55760405162461bcd60e51b815260206004820181905260248201527f45787a6f3a206275726e2066726f6d20746865207a65726f206164647265737360448201526064016105b0565b6001600160a01b03811660009081526003602052604090205482811015610c285760405162461bcd60e51b815260206004820152602160248201527f45787a6f3a206275726e20616d6f756e7420657863656564732062616c616e636044820152606560f81b60648201526084016105b0565b610c328382611b2e565b6001600160a01b038316600090815260036020526040812091909155600a8054859290610c60908490611b2e565b90915550506040518381526000906001600160a01b03841690600080516020611d108339815191529060200160405180910390a350505050565b3360009081526004602090815260408083206001600160a01b038616845290915281205482811015610d1a5760405162461bcd60e51b8152602060048201526024808201527f45787a6f3a2044656372656173656420616c6c6f77616e63652062656c6f77206044820152637a65726f60e01b60648201526084016105b0565b6107b233856108e38685611b2e565b600061057c3384846111ba565b6000546001600160a01b03163314610d605760405162461bcd60e51b81526004016105b090611ae3565b828114610dbb5760405162461bcd60e51b8152602060048201526024808201527f45787a6f3a20417272617973206d757374206265207468652073616d65206c656044820152630dccee8d60e31b60648201526084016105b0565b60005b83811015610e5257828282818110610dd857610dd8611c5e565b9050602002016020810190610ded9190611c74565b60076000878785818110610e0357610e03611c5e565b9050602002016020810190610e189190611951565b6001600160a01b031681526020810191909152604001600020805460ff191691151591909117905580610e4a81611c8f565b915050610dbe565b5050505050565b6000546001600160a01b03163314610e835760405162461bcd60e51b81526004016105b090611ae3565b6001600160a01b038216610ea95760405162461bcd60e51b81526004016105b090611ca8565b6001600160a01b03919091166000908152600560205260409020805460ff1916911515919091179055565b6000546001600160a01b03163314610efe5760405162461bcd60e51b81526004016105b090611ae3565b6001600160a01b038216610f245760405162461bcd60e51b81526004016105b090611ca8565b6001600160a01b03919091166000908152600660205260409020805460ff1916911515919091179055565b6000546001600160a01b03163314610f795760405162461bcd60e51b81526004016105b090611ae3565b6001600160a01b038116610fde5760405162461bcd60e51b815260206004820152602660248201527f4f776e61626c653a206e6577206f776e657220697320746865207a65726f206160448201526564647265737360d01b60648201526084016105b0565b600080546040516001600160a01b03808516939216917f8be0079c531659141344cd1fd0a4f28419497f9722a3daafe3b4186f6b6457e091a3600080546001600160a01b0319166001600160a01b0392909216919091179055565b6000806110468385611b41565b9050838110156110985760405162461bcd60e51b815260206004820152601b60248201527f536166654d6174683a206164646974696f6e206f766572666c6f77000000000060448201526064016105b0565b9392505050565b6001600160a01b0383166111015760405162461bcd60e51b815260206004820152602360248201527f45787a6f3a20617070726f76652066726f6d20746865207a65726f206164647260448201526265737360e81b60648201526084016105b0565b6001600160a01b0382166111615760405162461bcd60e51b815260206004820152602160248201527f45787a6f3a20617070726f766520746f20746865207a65726f206164647265736044820152607360f81b60648201526084016105b0565b6001600160a01b0383811660008181526004602090815260408083209487168084529482529182902085905590518481527f8c5be1e5ebec7d5bd14f71427d1e84f3dd0314c0f7b2291e5b200ac8c7c3b9259101610a6b565b6001600160a01b03831661121c5760405162461bcd60e51b8152602060048201526024808201527f45787a6f3a205472616e736665722066726f6d20746865207a65726f206164646044820152637265737360e01b60648201526084016105b0565b6001600160a01b03821661127d5760405162461bcd60e51b815260206004820152602260248201527f45787a6f3a205472616e7366657220746f20746865207a65726f206164647265604482015261737360f01b60648201526084016105b0565b6001600160a01b03831660009081526007602052604090205460ff16156112fd5760405162461bcd60e51b815260206004820152602e60248201527f45787a6f3a2043616e6e6f74207472616e7366657220746f6b656e732066726f60448201526d6d2074686973206164647265737360901b60648201526084016105b0565b6001600160a01b03821660009081526007602052604090205460ff161561137b5760405162461bcd60e51b815260206004820152602c60248201527f45787a6f3a2043616e6e6f74207472616e7366657220746f6b656e7320746f2060448201526b74686973206164647265737360a01b60648201526084016105b0565b6001600160a01b0383166000908152600660205260408120548190819060ff16806113be57506001600160a01b03851660009081526006602052604090205460ff165b156114cd576001600160a01b03861660009081526005602052604090205460ff168061140257506001600160a01b03851660009081526005602052604090205460ff165b15611415575060009150819050806114d7565b6013548411156114715760405162461bcd60e51b815260206004820152602160248201527f45787a6f3a205472616e73616374696f6e206c696d69742045786365656465646044820152602160f81b60648201526084016105b0565b61148c61271061086b600f54876116cb90919063ffffffff16565b92506114a961271061086b600e54876116cb90919063ffffffff16565b91506114c661271061086b601054876116cb90919063ffffffff16565b90506114d7565b5060009150819050805b6001600160a01b0386166000908152600360205260409020548481101561154e5760405162461bcd60e51b815260206004820152602560248201527f45787a6f3a205472616e7366657220616d6f756e7420657863656564732062616044820152646c616e636560d81b60648201526084016105b0565b6115588582611b2e565b6001600160a01b038089166000908152600360205260408082209390935560085490911681529081208054869290611591908490611b41565b909155505030600090815260036020526040812080548592906115b5908490611b41565b909155505081156116075781600a60008282546115d29190611b2e565b90915550506040518281526000906001600160a01b03891690600080516020611d108339815191529060200160405180910390a35b61161d826116178581898961178f565b9061178f565b6001600160a01b03871660009081526003602052604081208054909190611645908490611b41565b90915550508315611684576008546040518581526001600160a01b0391821691891690600080516020611d108339815191529060200160405180910390a35b6001600160a01b03808716908816600080516020611d108339815191526116b18561161788818c8c61178f565b60405190815260200160405180910390a350505050505050565b6000826000036116dd57506000610580565b60006116e98385611c47565b9050826116f68583611ced565b146110985760405162461bcd60e51b815260206004820152602160248201527f536166654d6174683a206d756c7469706c69636174696f6e206f766572666c6f6044820152607760f81b60648201526084016105b0565b600061109883836040518060400160405280601a81526020017f536166654d6174683a206469766973696f6e206279207a65726f0000000000008152506117d1565b600061109883836040518060400160405280601e81526020017f536166654d6174683a207375627472616374696f6e206f766572666c6f770000815250611808565b600081836117f25760405162461bcd60e51b81526004016105b09190611839565b5060006117ff8486611ced565b95945050505050565b6000818484111561182c5760405162461bcd60e51b81526004016105b09190611839565b5060006117ff8486611b2e565b600060208083528351808285015260005b818110156118665785810183015185820160400152820161184a565b506000604082860101526040601f19601f8301168501019250505092915050565b6001600160a01b038116811461189c57600080fd5b50565b600080604083850312156118b257600080fd5b82356118bd81611887565b946020939093013593505050565b6000806000606084860312156118e057600080fd5b505081359360208301359350604090920135919050565b60008060006060848603121561190c57600080fd5b833561191781611887565b9250602084013561192781611887565b929592945050506040919091013590565b60006020828403121561194a57600080fd5b5035919050565b60006020828403121561196357600080fd5b813561109881611887565b60008083601f84011261198057600080fd5b50813567ffffffffffffffff81111561199857600080fd5b6020830191508360208260051b85010111156119b357600080fd5b9250929050565b600080600080604085870312156119d057600080fd5b843567ffffffffffffffff808211156119e857600080fd5b6119f48883890161196e565b90965094506020870135915080821115611a0d57600080fd5b50611a1a8782880161196e565b95989497509550505050565b80358015158114611a3657600080fd5b919050565b60008060408385031215611a4e57600080fd5b8235611a5981611887565b9150611a6760208401611a26565b90509250929050565b60008060408385031215611a8357600080fd5b8235611a8e81611887565b91506020830135611a9e81611887565b809150509250929050565b600181811c90821680611abd57607f821691505b602082108103611add57634e487b7160e01b600052602260045260246000fd5b50919050565b6020808252818101527f4f776e61626c653a2063616c6c6572206973206e6f7420746865206f776e6572604082015260600190565b634e487b7160e01b600052601160045260246000fd5b8181038181111561058057610580611b18565b8082018082111561058057610580611b18565b600181815b80851115611b8f578160001904821115611b7557611b75611b18565b80851615611b8257918102915b93841c9390800290611b59565b509250929050565b600082611ba657506001610580565b81611bb357506000610580565b8160018114611bc95760028114611bd357611bef565b6001915050610580565b60ff841115611be457611be4611b18565b50506001821b610580565b5060208310610133831016604e8410600b8410161715611c12575081810a610580565b611c1c8383611b54565b8060001904821115611c3057611c30611b18565b029392505050565b600061109860ff841683611b97565b808202811582820484141761058057610580611b18565b634e487b7160e01b600052603260045260246000fd5b600060208284031215611c8657600080fd5b61109882611a26565b600060018201611ca157611ca1611b18565b5060010190565b60208082526025908201527f45787a6f3a20596f752063616e2774206578636c756465207a65726f20616464604082015264726573732160d81b606082015260800190565b600082611d0a57634e487b7160e01b600052601260045260246000fd5b50049056feddf252ad1be2c89b69c2b068fc378daa952ba7f163c4a11628f55a4df523b3efa264697066735822122069070598e956bdab63b91ec9b227834b0666b9b715781ef6fc2bb3250af6a83864736f6c63430008120033",
					"opcodes": "PUSH1 0x80 PUSH1 0x40 MSTORE PUSH1 0x8 DUP1 SLOAD PUSH1 0x1 PUSH1 0x1 PUSH1 0xA0 SHL SUB NOT AND PUSH20 0x1816687A332A3D0583EA06F725E90DD724B0AFF7 OR SWAP1 SSTORE PUSH1 0x3 PUSH1 0xE SSTORE PUSH1 0xF DUP1 SSTORE PUSH1 0x2 PUSH1 0x10 SSTORE PUSH11 0x84595161401484A000000 PUSH1 0x13 SSTORE CALLVALUE DUP1 ISZERO PUSH3 0x54 JUMPI PUSH1 0x0 DUP1 REVERT JUMPDEST POP PUSH1 0x0 DUP1 SLOAD PUSH1 0x1 PUSH1 0x1 PUSH1 0xA0 SHL SUB NOT AND CALLER SWAP1 DUP2 OR DUP3 SSTORE PUSH1 0x40 MLOAD SWAP1 SWAP2 DUP3 SWAP2 PUSH32 0x8BE0079C531659141344CD1FD0A4F28419497F9722A3DAAFE3B4186F6B6457E0 SWAP1 DUP3 SWAP1 LOG3 POP PUSH1 0x40 DUP1 MLOAD DUP1 DUP3 ADD SWAP1 SWAP2 MSTORE PUSH1 0xC DUP2 MSTORE PUSH12 0x577261707065642045787A6F PUSH1 0xA0 SHL PUSH1 0x20 DUP3 ADD MSTORE PUSH1 0xB SWAP1 PUSH3 0xC8 SWAP1 DUP3 PUSH3 0x668 JUMP JUMPDEST POP PUSH1 0x40 DUP1 MLOAD DUP1 DUP3 ADD SWAP1 SWAP2 MSTORE PUSH1 0x4 DUP2 MSTORE PUSH4 0x57585A4F PUSH1 0xE0 SHL PUSH1 0x20 DUP3 ADD MSTORE PUSH1 0xC SWAP1 PUSH3 0xF3 SWAP1 DUP3 PUSH3 0x668 JUMP JUMPDEST POP PUSH1 0xD DUP1 SLOAD PUSH1 0xFF NOT AND PUSH1 0x12 SWAP1 DUP2 OR SWAP1 SWAP2 SSTORE PUSH3 0x111 SWAP1 PUSH1 0xA PUSH3 0x847 JUMP JUMPDEST PUSH3 0x121 SWAP1 PUSH4 0x80BEFC0 PUSH3 0x85F JUMP JUMPDEST PUSH1 0x9 DUP2 SWAP1 SSTORE POP PUSH1 0x0 PUSH20 0x7A250D5630B4CF539739DF2C5DACB4C659F2488D SWAP1 POP DUP1 PUSH1 0x1 PUSH1 0x1 PUSH1 0xA0 SHL SUB AND PUSH4 0xC45A0155 PUSH1 0x40 MLOAD DUP2 PUSH4 0xFFFFFFFF AND PUSH1 0xE0 SHL DUP2 MSTORE PUSH1 0x4 ADD PUSH1 0x20 PUSH1 0x40 MLOAD DUP1 DUP4 SUB DUP2 DUP7 GAS STATICCALL ISZERO DUP1 ISZERO PUSH3 0x17F JUMPI RETURNDATASIZE PUSH1 0x0 DUP1 RETURNDATACOPY RETURNDATASIZE PUSH1 0x0 REVERT JUMPDEST POP POP POP POP PUSH1 0x40 MLOAD RETURNDATASIZE PUSH1 0x1F NOT PUSH1 0x1F DUP3 ADD AND DUP3 ADD DUP1 PUSH1 0x40 MSTORE POP DUP2 ADD SWAP1 PUSH3 0x1A5 SWAP2 SWAP1 PUSH3 0x879 JUMP JUMPDEST PUSH1 0x1 PUSH1 0x1 PUSH1 0xA0 SHL SUB AND PUSH4 0xC9C65396 ADDRESS DUP4 PUSH1 0x1 PUSH1 0x1 PUSH1 0xA0 SHL SUB AND PUSH4 0xAD5C4648 PUSH1 0x40 MLOAD DUP2 PUSH4 0xFFFFFFFF AND PUSH1 0xE0 SHL DUP2 MSTORE PUSH1 0x4 ADD PUSH1 0x20 PUSH1 0x40 MLOAD DUP1 DUP4 SUB DUP2 DUP7 GAS STATICCALL ISZERO DUP1 ISZERO PUSH3 0x1F3 JUMPI RETURNDATASIZE PUSH1 0x0 DUP1 RETURNDATACOPY RETURNDATASIZE PUSH1 0x0 REVERT JUMPDEST POP POP POP POP PUSH1 0x40 MLOAD RETURNDATASIZE PUSH1 0x1F NOT PUSH1 0x1F DUP3 ADD AND DUP3 ADD DUP1 PUSH1 0x40 MSTORE POP DUP2 ADD SWAP1 PUSH3 0x219 SWAP2 SWAP1 PUSH3 0x879 JUMP JUMPDEST PUSH1 0x40 MLOAD PUSH1 0x1 PUSH1 0x1 PUSH1 0xE0 SHL SUB NOT PUSH1 0xE0 DUP6 SWAP1 SHL AND DUP2 MSTORE PUSH1 0x1 PUSH1 0x1 PUSH1 0xA0 SHL SUB SWAP3 DUP4 AND PUSH1 0x4 DUP3 ADD MSTORE SWAP2 AND PUSH1 0x24 DUP3 ADD MSTORE PUSH1 0x44 ADD PUSH1 0x20 PUSH1 0x40 MLOAD DUP1 DUP4 SUB DUP2 PUSH1 0x0 DUP8 GAS CALL ISZERO DUP1 ISZERO PUSH3 0x267 JUMPI RETURNDATASIZE PUSH1 0x0 DUP1 RETURNDATACOPY RETURNDATASIZE PUSH1 0x0 REVERT JUMPDEST POP POP POP POP PUSH1 0x40 MLOAD RETURNDATASIZE PUSH1 0x1F NOT PUSH1 0x1F DUP3 ADD AND DUP3 ADD DUP1 PUSH1 0x40 MSTORE POP DUP2 ADD SWAP1 PUSH3 0x28D SWAP2 SWAP1 PUSH3 0x879 JUMP JUMPDEST PUSH1 0x12 DUP1 SLOAD PUSH1 0x1 PUSH1 0x1 PUSH1 0xA0 SHL SUB NOT SWAP1 DUP2 AND PUSH1 0x1 PUSH1 0x1 PUSH1 0xA0 SHL SUB SWAP4 DUP5 AND OR SWAP1 SWAP2 SSTORE PUSH1 0x11 DUP1 SLOAD SWAP1 SWAP2 AND SWAP2 DUP4 AND SWAP2 SWAP1 SWAP2 OR SWAP1 SSTORE ADDRESS PUSH1 0x0 SWAP1 DUP2 MSTORE PUSH1 0x5 PUSH1 0x20 DUP2 SWAP1 MSTORE PUSH1 0x40 DUP3 KECCAK256 DUP1 SLOAD PUSH1 0xFF NOT AND PUSH1 0x1 SWAP1 DUP2 OR SWAP1 SWAP2 SSTORE SWAP2 PUSH3 0x2EF PUSH1 0x0 SLOAD PUSH1 0x1 PUSH1 0x1 PUSH1 0xA0 SHL SUB AND SWAP1 JUMP JUMPDEST PUSH1 0x1 PUSH1 0x1 PUSH1 0xA0 SHL SUB SWAP1 DUP2 AND DUP3 MSTORE PUSH1 0x20 DUP1 DUP4 ADD SWAP4 SWAP1 SWAP4 MSTORE PUSH1 0x40 SWAP2 DUP3 ADD PUSH1 0x0 SWAP1 DUP2 KECCAK256 DUP1 SLOAD SWAP6 ISZERO ISZERO PUSH1 0xFF NOT SWAP7 DUP8 AND OR SWAP1 SSTORE PUSH1 0x8 SLOAD DUP3 AND DUP2 MSTORE PUSH1 0x5 DUP5 MSTORE DUP3 DUP2 KECCAK256 DUP1 SLOAD DUP7 AND PUSH1 0x1 SWAP1 DUP2 OR SWAP1 SWAP2 SSTORE PUSH1 0x12 SLOAD SWAP1 SWAP3 AND DUP2 MSTORE PUSH1 0x6 SWAP1 SWAP4 MSTORE SWAP2 KECCAK256 DUP1 SLOAD SWAP1 SWAP3 AND OR SWAP1 SSTORE PUSH3 0x362 PUSH3 0x35A CALLER SWAP1 JUMP JUMPDEST PUSH1 0xA PUSH3 0x369 JUMP JUMPDEST POP PUSH3 0x8BA JUMP JUMPDEST PUSH1 0x0 SLOAD PUSH1 0x1 PUSH1 0x1 PUSH1 0xA0 SHL SUB AND CALLER EQ PUSH3 0x3C9 JUMPI PUSH1 0x40 MLOAD PUSH3 0x461BCD PUSH1 0xE5 SHL DUP2 MSTORE PUSH1 0x20 PUSH1 0x4 DUP3 ADD DUP2 SWAP1 MSTORE PUSH1 0x24 DUP3 ADD MSTORE PUSH32 0x4F776E61626C653A2063616C6C6572206973206E6F7420746865206F776E6572 PUSH1 0x44 DUP3 ADD MSTORE PUSH1 0x64 ADD JUMPDEST PUSH1 0x40 MLOAD DUP1 SWAP2 SUB SWAP1 REVERT JUMPDEST PUSH1 0xD SLOAD PUSH1 0x0 SWAP1 PUSH3 0x3DF SWAP1 PUSH1 0xFF AND PUSH1 0xA PUSH3 0x847 JUMP JUMPDEST PUSH3 0x3EB SWAP1 DUP4 PUSH3 0x85F JUMP JUMPDEST SWAP1 POP PUSH1 0x9 SLOAD PUSH3 0x40C DUP3 PUSH1 0xA SLOAD PUSH3 0x553 PUSH1 0x20 SHL PUSH3 0x1039 OR SWAP1 SWAP2 SWAP1 PUSH1 0x20 SHR JUMP JUMPDEST GT ISZERO PUSH3 0x46D JUMPI PUSH1 0x40 MLOAD PUSH3 0x461BCD PUSH1 0xE5 SHL DUP2 MSTORE PUSH1 0x20 PUSH1 0x4 DUP3 ADD MSTORE PUSH1 0x28 PUSH1 0x24 DUP3 ADD MSTORE PUSH32 0x45787A6F3A20596F752063616E2774206D696E74206D6F7265207468616E204D PUSH1 0x44 DUP3 ADD MSTORE PUSH8 0x6178537570706C79 PUSH1 0xC0 SHL PUSH1 0x64 DUP3 ADD MSTORE PUSH1 0x84 ADD PUSH3 0x3C0 JUMP JUMPDEST PUSH1 0x1 PUSH1 0x1 PUSH1 0xA0 SHL SUB DUP4 AND PUSH3 0x4C5 JUMPI PUSH1 0x40 MLOAD PUSH3 0x461BCD PUSH1 0xE5 SHL DUP2 MSTORE PUSH1 0x20 PUSH1 0x4 DUP3 ADD MSTORE PUSH1 0x1E PUSH1 0x24 DUP3 ADD MSTORE PUSH32 0x45787A6F3A206D696E7420746F20746865207A65726F20616464726573730000 PUSH1 0x44 DUP3 ADD MSTORE PUSH1 0x64 ADD PUSH3 0x3C0 JUMP JUMPDEST DUP1 PUSH1 0xA PUSH1 0x0 DUP3 DUP3 SLOAD PUSH3 0x4D9 SWAP2 SWAP1 PUSH3 0x8A4 JUMP JUMPDEST SWAP1 SWAP2 SSTORE POP POP PUSH1 0x1 PUSH1 0x1 PUSH1 0xA0 SHL SUB DUP4 AND PUSH1 0x0 SWAP1 DUP2 MSTORE PUSH1 0x3 PUSH1 0x20 MSTORE PUSH1 0x40 DUP2 KECCAK256 DUP1 SLOAD DUP4 SWAP3 SWAP1 PUSH3 0x508 SWAP1 DUP5 SWAP1 PUSH3 0x8A4 JUMP JUMPDEST SWAP1 SWAP2 SSTORE POP POP PUSH1 0x40 MLOAD DUP2 DUP2 MSTORE PUSH1 0x1 PUSH1 0x1 PUSH1 0xA0 SHL SUB DUP5 AND SWAP1 PUSH1 0x0 SWAP1 PUSH32 0xDDF252AD1BE2C89B69C2B068FC378DAA952BA7F163C4A11628F55A4DF523B3EF SWAP1 PUSH1 0x20 ADD PUSH1 0x40 MLOAD DUP1 SWAP2 SUB SWAP1 LOG3 POP POP POP JUMP JUMPDEST PUSH1 0x0 DUP1 PUSH3 0x562 DUP4 DUP6 PUSH3 0x8A4 JUMP JUMPDEST SWAP1 POP DUP4 DUP2 LT ISZERO PUSH3 0x5B6 JUMPI PUSH1 0x40 MLOAD PUSH3 0x461BCD PUSH1 0xE5 SHL DUP2 MSTORE PUSH1 0x20 PUSH1 0x4 DUP3 ADD MSTORE PUSH1 0x1B PUSH1 0x24 DUP3 ADD MSTORE PUSH32 0x536166654D6174683A206164646974696F6E206F766572666C6F770000000000 PUSH1 0x44 DUP3 ADD MSTORE PUSH1 0x64 ADD PUSH3 0x3C0 JUMP JUMPDEST SWAP1 POP JUMPDEST SWAP3 SWAP2 POP POP JUMP JUMPDEST POP POP POP JUMP JUMPDEST PUSH4 0x4E487B71 PUSH1 0xE0 SHL PUSH1 0x0 MSTORE PUSH1 0x41 PUSH1 0x4 MSTORE PUSH1 0x24 PUSH1 0x0 REVERT JUMPDEST PUSH1 0x1 DUP2 DUP2 SHR SWAP1 DUP3 AND DUP1 PUSH3 0x5EF JUMPI PUSH1 0x7F DUP3 AND SWAP2 POP JUMPDEST PUSH1 0x20 DUP3 LT DUP2 SUB PUSH3 0x610 JUMPI PUSH4 0x4E487B71 PUSH1 0xE0 SHL PUSH1 0x0 MSTORE PUSH1 0x22 PUSH1 0x4 MSTORE PUSH1 0x24 PUSH1 0x0 REVERT JUMPDEST POP SWAP2 SWAP1 POP JUMP JUMPDEST PUSH1 0x1F DUP3 GT ISZERO PUSH3 0x5BF JUMPI PUSH1 0x0 DUP2 DUP2 MSTORE PUSH1 0x20 DUP2 KECCAK256 PUSH1 0x1F DUP6 ADD PUSH1 0x5 SHR DUP2 ADD PUSH1 0x20 DUP7 LT ISZERO PUSH3 0x63F JUMPI POP DUP1 JUMPDEST PUSH1 0x1F DUP6 ADD PUSH1 0x5 SHR DUP3 ADD SWAP2 POP JUMPDEST DUP2 DUP2 LT ISZERO PUSH3 0x660 JUMPI DUP3 DUP2 SSTORE PUSH1 0x1 ADD PUSH3 0x64B JUMP JUMPDEST POP POP POP POP POP POP JUMP JUMPDEST DUP2 MLOAD PUSH1 0x1 PUSH1 0x1 PUSH1 0x40 SHL SUB DUP2 GT ISZERO PUSH3 0x684 JUMPI PUSH3 0x684 PUSH3 0x5C4 JUMP JUMPDEST PUSH3 0x69C DUP2 PUSH3 0x695 DUP5 SLOAD PUSH3 0x5DA JUMP JUMPDEST DUP5 PUSH3 0x616 JUMP JUMPDEST PUSH1 0x20 DUP1 PUSH1 0x1F DUP4 GT PUSH1 0x1 DUP2 EQ PUSH3 0x6D4 JUMPI PUSH1 0x0 DUP5 ISZERO PUSH3 0x6BB JUMPI POP DUP6 DUP4 ADD MLOAD JUMPDEST PUSH1 0x0 NOT PUSH1 0x3 DUP7 SWAP1 SHL SHR NOT AND PUSH1 0x1 DUP6 SWAP1 SHL OR DUP6 SSTORE PUSH3 0x660 JUMP JUMPDEST PUSH1 0x0 DUP6 DUP2 MSTORE PUSH1 0x20 DUP2 KECCAK256 PUSH1 0x1F NOT DUP7 AND SWAP2 JUMPDEST DUP3 DUP2 LT ISZERO PUSH3 0x705 JUMPI DUP9 DUP7 ADD MLOAD DUP3 SSTORE SWAP5 DUP5 ADD SWAP5 PUSH1 0x1 SWAP1 SWAP2 ADD SWAP1 DUP5 ADD PUSH3 0x6E4 JUMP JUMPDEST POP DUP6 DUP3 LT ISZERO PUSH3 0x724 JUMPI DUP8 DUP6 ADD MLOAD PUSH1 0x0 NOT PUSH1 0x3 DUP9 SWAP1 SHL PUSH1 0xF8 AND SHR NOT AND DUP2 SSTORE JUMPDEST POP POP POP POP POP PUSH1 0x1 SWAP1 DUP2 SHL ADD SWAP1 SSTORE POP JUMP JUMPDEST PUSH4 0x4E487B71 PUSH1 0xE0 SHL PUSH1 0x0 MSTORE PUSH1 0x11 PUSH1 0x4 MSTORE PUSH1 0x24 PUSH1 0x0 REVERT JUMPDEST PUSH1 0x1 DUP2 DUP2 JUMPDEST DUP1 DUP6 GT ISZERO PUSH3 0x78B JUMPI DUP2 PUSH1 0x0 NOT DIV DUP3 GT ISZERO PUSH3 0x76F JUMPI PUSH3 0x76F PUSH3 0x734 JUMP JUMPDEST DUP1 DUP6 AND ISZERO PUSH3 0x77D JUMPI SWAP2 DUP2 MUL SWAP2 JUMPDEST SWAP4 DUP5 SHR SWAP4 SWAP1 DUP1 MUL SWAP1 PUSH3 0x74F JUMP JUMPDEST POP SWAP3 POP SWAP3 SWAP1 POP JUMP JUMPDEST PUSH1 0x0 DUP3 PUSH3 0x7A4 JUMPI POP PUSH1 0x1 PUSH3 0x5B9 JUMP JUMPDEST DUP2 PUSH3 0x7B3 JUMPI POP PUSH1 0x0 PUSH3 0x5B9 JUMP JUMPDEST DUP2 PUSH1 0x1 DUP2 EQ PUSH3 0x7CC JUMPI PUSH1 0x2 DUP2 EQ PUSH3 0x7D7 JUMPI PUSH3 0x7F7 JUMP JUMPDEST PUSH1 0x1 SWAP2 POP POP PUSH3 0x5B9 JUMP JUMPDEST PUSH1 0xFF DUP5 GT ISZERO PUSH3 0x7EB JUMPI PUSH3 0x7EB PUSH3 0x734 JUMP JUMPDEST POP POP PUSH1 0x1 DUP3 SHL PUSH3 0x5B9 JUMP JUMPDEST POP PUSH1 0x20 DUP4 LT PUSH2 0x133 DUP4 LT AND PUSH1 0x4E DUP5 LT PUSH1 0xB DUP5 LT AND OR ISZERO PUSH3 0x81C JUMPI POP DUP2 DUP2 EXP PUSH3 0x5B9 JUMP JUMPDEST PUSH3 0x828 DUP4 DUP4 PUSH3 0x74A JUMP JUMPDEST DUP1 PUSH1 0x0 NOT DIV DUP3 GT ISZERO PUSH3 0x83F JUMPI PUSH3 0x83F PUSH3 0x734 JUMP JUMPDEST MUL SWAP4 SWAP3 POP POP POP JUMP JUMPDEST PUSH1 0x0 PUSH3 0x858 PUSH1 0xFF DUP5 AND DUP4 PUSH3 0x793 JUMP JUMPDEST SWAP4 SWAP3 POP POP POP JUMP JUMPDEST DUP1 DUP3 MUL DUP2 ISZERO DUP3 DUP3 DIV DUP5 EQ OR PUSH3 0x5B9 JUMPI PUSH3 0x5B9 PUSH3 0x734 JUMP JUMPDEST PUSH1 0x0 PUSH1 0x20 DUP3 DUP5 SUB SLT ISZERO PUSH3 0x88C JUMPI PUSH1 0x0 DUP1 REVERT JUMPDEST DUP2 MLOAD PUSH1 0x1 PUSH1 0x1 PUSH1 0xA0 SHL SUB DUP2 AND DUP2 EQ PUSH3 0x5B6 JUMPI PUSH1 0x0 DUP1 REVERT JUMPDEST DUP1 DUP3 ADD DUP1 DUP3 GT ISZERO PUSH3 0x5B9 JUMPI PUSH3 0x5B9 PUSH3 0x734 JUMP JUMPDEST PUSH2 0x1D65 DUP1 PUSH3 0x8CA PUSH1 0x0 CODECOPY PUSH1 0x0 RETURN INVALID PUSH1 0x80 PUSH1 0x40 MSTORE CALLVALUE DUP1 ISZERO PUSH2 0x10 JUMPI PUSH1 0x0 DUP1 REVERT JUMPDEST POP PUSH1 0x4 CALLDATASIZE LT PUSH2 0x1FB JUMPI PUSH1 0x0 CALLDATALOAD PUSH1 0xE0 SHR DUP1 PUSH4 0x715018A6 GT PUSH2 0x11A JUMPI DUP1 PUSH4 0xB36C1284 GT PUSH2 0xAD JUMPI DUP1 PUSH4 0xDD62ED3E GT PUSH2 0x7C JUMPI DUP1 PUSH4 0xDD62ED3E EQ PUSH2 0x452 JUMPI DUP1 PUSH4 0xE47D6060 EQ PUSH2 0x48B JUMPI DUP1 PUSH4 0xE7B94DF4 EQ PUSH2 0x4AE JUMPI DUP1 PUSH4 0xF2FDE38B EQ PUSH2 0x4C1 JUMPI DUP1 PUSH4 0xFAF38F62 EQ PUSH2 0x4D4 JUMPI PUSH1 0x0 DUP1 REVERT JUMPDEST DUP1 PUSH4 0xB36C1284 EQ PUSH2 0x41A JUMPI DUP1 PUSH4 0xC0B0FDA2 EQ PUSH2 0x423 JUMPI DUP1 PUSH4 0xC3736882 EQ PUSH2 0x42C JUMPI DUP1 PUSH4 0xC676AF83 EQ PUSH2 0x43F JUMPI PUSH1 0x0 DUP1 REVERT JUMPDEST DUP1 PUSH4 0x9B1F9E74 GT PUSH2 0xE9 JUMPI DUP1 PUSH4 0x9B1F9E74 EQ PUSH2 0x3CE JUMPI DUP1 PUSH4 0xA457C2D7 EQ PUSH2 0x3E1 JUMPI DUP1 PUSH4 0xA9059CBB EQ PUSH2 0x3F4 JUMPI DUP1 PUSH4 0xAFC82BD9 EQ PUSH2 0x407 JUMPI PUSH1 0x0 DUP1 REVERT JUMPDEST DUP1 PUSH4 0x715018A6 EQ PUSH2 0x3A4 JUMPI DUP1 PUSH4 0x7D1DB4A5 EQ PUSH2 0x3AC JUMPI DUP1 PUSH4 0x8DA5CB5B EQ PUSH2 0x3B5 JUMPI DUP1 PUSH4 0x95D89B41 EQ PUSH2 0x3C6 JUMPI PUSH1 0x0 DUP1 REVERT JUMPDEST DUP1 PUSH4 0x39509351 GT PUSH2 0x192 JUMPI DUP1 PUSH4 0x5342ACB4 GT PUSH2 0x161 JUMPI DUP1 PUSH4 0x5342ACB4 EQ PUSH2 0x333 JUMPI DUP1 PUSH4 0x5A96CDD7 EQ PUSH2 0x35F JUMPI DUP1 PUSH4 0x6BC87C3A EQ PUSH2 0x372 JUMPI DUP1 PUSH4 0x70A08231 EQ PUSH2 0x37B JUMPI PUSH1 0x0 DUP1 REVERT JUMPDEST DUP1 PUSH4 0x39509351 EQ PUSH2 0x2CE JUMPI DUP1 PUSH4 0x3979E9CA EQ PUSH2 0x2E1 JUMPI DUP1 PUSH4 0x49BD5A5E EQ PUSH2 0x30D JUMPI DUP1 PUSH4 0x4E6EC247 EQ PUSH2 0x320 JUMPI PUSH1 0x0 DUP1 REVERT JUMPDEST DUP1 PUSH4 0x22429085 GT PUSH2 0x1CE JUMPI DUP1 PUSH4 0x22429085 EQ PUSH2 0x27E JUMPI DUP1 PUSH4 0x23B872DD EQ PUSH2 0x293 JUMPI DUP1 PUSH4 0x28141D5B EQ PUSH2 0x2A6 JUMPI DUP1 PUSH4 0x313CE567 EQ PUSH2 0x2B9 JUMPI PUSH1 0x0 DUP1 REVERT JUMPDEST DUP1 PUSH4 0x6FDDE03 EQ PUSH2 0x200 JUMPI DUP1 PUSH4 0x95EA7B3 EQ PUSH2 0x21E JUMPI DUP1 PUSH4 0x1694505E EQ PUSH2 0x241 JUMPI DUP1 PUSH4 0x18160DDD EQ PUSH2 0x26C JUMPI JUMPDEST PUSH1 0x0 DUP1 REVERT JUMPDEST PUSH2 0x208 PUSH2 0x4DD JUMP JUMPDEST PUSH1 0x40 MLOAD PUSH2 0x215 SWAP2 SWAP1 PUSH2 0x1839 JUMP JUMPDEST PUSH1 0x40 MLOAD DUP1 SWAP2 SUB SWAP1 RETURN JUMPDEST PUSH2 0x231 PUSH2 0x22C CALLDATASIZE PUSH1 0x4 PUSH2 0x189F JUMP JUMPDEST PUSH2 0x56F JUMP JUMPDEST PUSH1 0x40 MLOAD SWAP1 ISZERO ISZERO DUP2 MSTORE PUSH1 0x20 ADD PUSH2 0x215 JUMP JUMPDEST PUSH1 0x11 SLOAD PUSH2 0x254 SWAP1 PUSH1 0x1 PUSH1 0x1 PUSH1 0xA0 SHL SUB AND DUP2 JUMP JUMPDEST PUSH1 0x40 MLOAD PUSH1 0x1 PUSH1 0x1 PUSH1 0xA0 SHL SUB SWAP1 SWAP2 AND DUP2 MSTORE PUSH1 0x20 ADD PUSH2 0x215 JUMP JUMPDEST PUSH1 0xA SLOAD JUMPDEST PUSH1 0x40 MLOAD SWAP1 DUP2 MSTORE PUSH1 0x20 ADD PUSH2 0x215 JUMP JUMPDEST PUSH2 0x291 PUSH2 0x28C CALLDATASIZE PUSH1 0x4 PUSH2 0x18CB JUMP JUMPDEST PUSH2 0x586 JUMP JUMPDEST STOP JUMPDEST PUSH2 0x231 PUSH2 0x2A1 CALLDATASIZE PUSH1 0x4 PUSH2 0x18F7 JUMP JUMPDEST PUSH2 0x682 JUMP JUMPDEST PUSH2 0x291 PUSH2 0x2B4 CALLDATASIZE PUSH1 0x4 PUSH2 0x1938 JUMP JUMPDEST PUSH2 0x7BC JUMP JUMPDEST PUSH1 0xD SLOAD PUSH1 0x40 MLOAD PUSH1 0xFF SWAP1 SWAP2 AND DUP2 MSTORE PUSH1 0x20 ADD PUSH2 0x215 JUMP JUMPDEST PUSH2 0x231 PUSH2 0x2DC CALLDATASIZE PUSH1 0x4 PUSH2 0x189F JUMP JUMPDEST PUSH2 0x8AC JUMP JUMPDEST PUSH2 0x231 PUSH2 0x2EF CALLDATASIZE PUSH1 0x4 PUSH2 0x1951 JUMP JUMPDEST PUSH1 0x1 PUSH1 0x1 PUSH1 0xA0 SHL SUB AND PUSH1 0x0 SWAP1 DUP2 MSTORE PUSH1 0x6 PUSH1 0x20 MSTORE PUSH1 0x40 SWAP1 KECCAK256 SLOAD PUSH1 0xFF AND SWAP1 JUMP JUMPDEST PUSH1 0x12 SLOAD PUSH2 0x254 SWAP1 PUSH1 0x1 PUSH1 0x1 PUSH1 0xA0 SHL SUB AND DUP2 JUMP JUMPDEST PUSH2 0x291 PUSH2 0x32E CALLDATASIZE PUSH1 0x4 PUSH2 0x189F JUMP JUMPDEST PUSH2 0x8E8 JUMP JUMPDEST PUSH2 0x231 PUSH2 0x341 CALLDATASIZE PUSH1 0x4 PUSH2 0x1951 JUMP JUMPDEST PUSH1 0x1 PUSH1 0x1 PUSH1 0xA0 SHL SUB AND PUSH1 0x0 SWAP1 DUP2 MSTORE PUSH1 0x5 PUSH1 0x20 MSTORE PUSH1 0x40 SWAP1 KECCAK256 SLOAD PUSH1 0xFF AND SWAP1 JUMP JUMPDEST PUSH2 0x291 PUSH2 0x36D CALLDATASIZE PUSH1 0x4 PUSH2 0x1951 JUMP JUMPDEST PUSH2 0xA78 JUMP JUMPDEST PUSH2 0x270 PUSH1 0xE SLOAD DUP2 JUMP JUMPDEST PUSH2 0x270 PUSH2 0x389 CALLDATASIZE PUSH1 0x4 PUSH2 0x1951 JUMP JUMPDEST PUSH1 0x1 PUSH1 0x1 PUSH1 0xA0 SHL SUB AND PUSH1 0x0 SWAP1 DUP2 MSTORE PUSH1 0x3 PUSH1 0x20 MSTORE PUSH1 0x40 SWAP1 KECCAK256 SLOAD SWAP1 JUMP JUMPDEST PUSH2 0x291 PUSH2 0xAC4 JUMP JUMPDEST PUSH2 0x270 PUSH1 0x13 SLOAD DUP2 JUMP JUMPDEST PUSH1 0x0 SLOAD PUSH1 0x1 PUSH1 0x1 PUSH1 0xA0 SHL SUB AND PUSH2 0x254 JUMP JUMPDEST PUSH2 0x208 PUSH2 0xB38 JUMP JUMPDEST PUSH2 0x291 PUSH2 0x3DC CALLDATASIZE PUSH1 0x4 PUSH2 0x1938 JUMP JUMPDEST PUSH2 0xB47 JUMP JUMPDEST PUSH2 0x231 PUSH2 0x3EF CALLDATASIZE PUSH1 0x4 PUSH2 0x189F JUMP JUMPDEST PUSH2 0xC9A JUMP JUMPDEST PUSH2 0x231 PUSH2 0x402 CALLDATASIZE PUSH1 0x4 PUSH2 0x189F JUMP JUMPDEST PUSH2 0xD29 JUMP JUMPDEST PUSH2 0x291 PUSH2 0x415 CALLDATASIZE PUSH1 0x4 PUSH2 0x19BA JUMP JUMPDEST PUSH2 0xD36 JUMP JUMPDEST PUSH2 0x270 PUSH1 0x9 SLOAD DUP2 JUMP JUMPDEST PUSH2 0x270 PUSH1 0x10 SLOAD DUP2 JUMP JUMPDEST PUSH2 0x291 PUSH2 0x43A CALLDATASIZE PUSH1 0x4 PUSH2 0x1A3B JUMP JUMPDEST PUSH2 0xE59 JUMP JUMPDEST PUSH2 0x291 PUSH2 0x44D CALLDATASIZE PUSH1 0x4 PUSH2 0x1A3B JUMP JUMPDEST PUSH2 0xED4 JUMP JUMPDEST PUSH2 0x270 PUSH2 0x460 CALLDATASIZE PUSH1 0x4 PUSH2 0x1A70 JUMP JUMPDEST PUSH1 0x1 PUSH1 0x1 PUSH1 0xA0 SHL SUB SWAP2 DUP3 AND PUSH1 0x0 SWAP1 DUP2 MSTORE PUSH1 0x4 PUSH1 0x20 SWAP1 DUP2 MSTORE PUSH1 0x40 DUP1 DUP4 KECCAK256 SWAP4 SWAP1 SWAP5 AND DUP3 MSTORE SWAP2 SWAP1 SWAP2 MSTORE KECCAK256 SLOAD SWAP1 JUMP JUMPDEST PUSH2 0x231 PUSH2 0x499 CALLDATASIZE PUSH1 0x4 PUSH2 0x1951 JUMP JUMPDEST PUSH1 0x7 PUSH1 0x20 MSTORE PUSH1 0x0 SWAP1 DUP2 MSTORE PUSH1 0x40 SWAP1 KECCAK256 SLOAD PUSH1 0xFF AND DUP2 JUMP JUMPDEST PUSH1 0x8 SLOAD PUSH2 0x254 SWAP1 PUSH1 0x1 PUSH1 0x1 PUSH1 0xA0 SHL SUB AND DUP2 JUMP JUMPDEST PUSH2 0x291 PUSH2 0x4CF CALLDATASIZE PUSH1 0x4 PUSH2 0x1951 JUMP JUMPDEST PUSH2 0xF4F JUMP JUMPDEST PUSH2 0x270 PUSH1 0xF SLOAD DUP2 JUMP JUMPDEST PUSH1 0x60 PUSH1 0xB DUP1 SLOAD PUSH2 0x4EC SWAP1 PUSH2 0x1AA9 JUMP JUMPDEST DUP1 PUSH1 0x1F ADD PUSH1 0x20 DUP1 SWAP2 DIV MUL PUSH1 0x20 ADD PUSH1 0x40 MLOAD SWAP1 DUP2 ADD PUSH1 0x40 MSTORE DUP1 SWAP3 SWAP2 SWAP1 DUP2 DUP2 MSTORE PUSH1 0x20 ADD DUP3 DUP1 SLOAD PUSH2 0x518 SWAP1 PUSH2 0x1AA9 JUMP JUMPDEST DUP1 ISZERO PUSH2 0x565 JUMPI DUP1 PUSH1 0x1F LT PUSH2 0x53A JUMPI PUSH2 0x100 DUP1 DUP4 SLOAD DIV MUL DUP4 MSTORE SWAP2 PUSH1 0x20 ADD SWAP2 PUSH2 0x565 JUMP JUMPDEST DUP3 ADD SWAP2 SWAP1 PUSH1 0x0 MSTORE PUSH1 0x20 PUSH1 0x0 KECCAK256 SWAP1 JUMPDEST DUP2 SLOAD DUP2 MSTORE SWAP1 PUSH1 0x1 ADD SWAP1 PUSH1 0x20 ADD DUP1 DUP4 GT PUSH2 0x548 JUMPI DUP3 SWAP1 SUB PUSH1 0x1F AND DUP3 ADD SWAP2 JUMPDEST POP POP POP POP POP SWAP1 POP SWAP1 JUMP JUMPDEST PUSH1 0x0 PUSH2 0x57C CALLER DUP5 DUP5 PUSH2 0x109F JUMP JUMPDEST POP PUSH1 0x1 JUMPDEST SWAP3 SWAP2 POP POP JUMP JUMPDEST PUSH1 0x0 SLOAD PUSH1 0x1 PUSH1 0x1 PUSH1 0xA0 SHL SUB AND CALLER EQ PUSH2 0x5B9 JUMPI PUSH1 0x40 MLOAD PUSH3 0x461BCD PUSH1 0xE5 SHL DUP2 MSTORE PUSH1 0x4 ADD PUSH2 0x5B0 SWAP1 PUSH2 0x1AE3 JUMP JUMPDEST PUSH1 0x40 MLOAD DUP1 SWAP2 SUB SWAP1 REVERT JUMPDEST PUSH2 0x9C4 PUSH2 0x5D0 DUP3 PUSH2 0x5CA DUP7 DUP7 PUSH2 0x1039 JUMP JUMPDEST SWAP1 PUSH2 0x1039 JUMP JUMPDEST GT ISZERO PUSH2 0x62E JUMPI PUSH1 0x40 MLOAD PUSH3 0x461BCD PUSH1 0xE5 SHL DUP2 MSTORE PUSH1 0x20 PUSH1 0x4 DUP3 ADD MSTORE PUSH1 0x27 PUSH1 0x24 DUP3 ADD MSTORE PUSH32 0x45787A6F3A20596F752063616E6E6F74742073657420666565206D6F72652074 PUSH1 0x44 DUP3 ADD MSTORE PUSH7 0x68616E20323525 PUSH1 0xC8 SHL PUSH1 0x64 DUP3 ADD MSTORE PUSH1 0x84 ADD PUSH2 0x5B0 JUMP JUMPDEST PUSH1 0xE DUP4 SWAP1 SSTORE PUSH1 0x10 DUP3 SWAP1 SSTORE PUSH1 0xF DUP2 SWAP1 SSTORE PUSH32 0xAA4B71AC29531FDEA0EF1650C76EF91E3771DAC25F4A4DD2A561FF3E0B9A5DE2 PUSH2 0x66C DUP3 PUSH2 0x5CA DUP7 DUP7 PUSH2 0x1039 JUMP JUMPDEST PUSH1 0x40 MLOAD SWAP1 DUP2 MSTORE PUSH1 0x20 ADD PUSH1 0x40 MLOAD DUP1 SWAP2 SUB SWAP1 LOG1 POP POP POP JUMP JUMPDEST PUSH1 0x0 PUSH1 0x1 PUSH1 0x1 PUSH1 0xA0 SHL SUB DUP4 AND ISZERO ISZERO DUP1 PUSH2 0x6A4 JUMPI POP PUSH1 0x1 PUSH1 0x1 PUSH1 0xA0 SHL SUB DUP4 AND ADDRESS EQ ISZERO JUMPDEST PUSH2 0x6AD JUMPI PUSH1 0x0 DUP1 REVERT JUMPDEST PUSH1 0x1 PUSH1 0x1 PUSH1 0xA0 SHL SUB DUP5 AND CALLER EQ PUSH2 0x7A7 JUMPI PUSH1 0x1 PUSH1 0x1 PUSH1 0xA0 SHL SUB DUP5 AND PUSH1 0x0 SWAP1 DUP2 MSTORE PUSH1 0x4 PUSH1 0x20 SWAP1 DUP2 MSTORE PUSH1 0x40 DUP1 DUP4 KECCAK256 CALLER DUP5 MSTORE SWAP1 SWAP2 MSTORE SWAP1 KECCAK256 SLOAD PUSH1 0x0 NOT DUP2 EQ PUSH2 0x7A5 JUMPI DUP3 DUP2 LT ISZERO PUSH2 0x73A JUMPI PUSH1 0x40 MLOAD PUSH3 0x461BCD PUSH1 0xE5 SHL DUP2 MSTORE PUSH1 0x20 PUSH1 0x4 DUP3 ADD MSTORE PUSH1 0x1F PUSH1 0x24 DUP3 ADD MSTORE PUSH32 0x45787A6F3A2072657175657374206578636565647320616C6C6F77616E636500 PUSH1 0x44 DUP3 ADD MSTORE PUSH1 0x64 ADD PUSH2 0x5B0 JUMP JUMPDEST PUSH1 0x0 PUSH2 0x746 DUP5 DUP4 PUSH2 0x1B2E JUMP JUMPDEST PUSH1 0x1 PUSH1 0x1 PUSH1 0xA0 SHL SUB DUP8 AND PUSH1 0x0 DUP2 DUP2 MSTORE PUSH1 0x4 PUSH1 0x20 SWAP1 DUP2 MSTORE PUSH1 0x40 DUP1 DUP4 KECCAK256 CALLER DUP1 DUP6 MSTORE SWAP1 DUP4 MSTORE SWAP3 DUP2 SWAP1 KECCAK256 DUP6 SWAP1 SSTORE MLOAD DUP5 DUP2 MSTORE SWAP4 SWAP5 POP SWAP1 SWAP3 PUSH32 0x8C5BE1E5EBEC7D5BD14F71427D1E84F3DD0314C0F7B2291E5B200AC8C7C3B925 SWAP2 ADD PUSH1 0x40 MLOAD DUP1 SWAP2 SUB SWAP1 LOG3 POP JUMPDEST POP JUMPDEST PUSH2 0x7B2 DUP5 DUP5 DUP5 PUSH2 0x11BA JUMP JUMPDEST POP PUSH1 0x1 SWAP4 SWAP3 POP POP POP JUMP JUMPDEST PUSH1 0x0 SLOAD PUSH1 0x1 PUSH1 0x1 PUSH1 0xA0 SHL SUB AND CALLER EQ PUSH2 0x7E6 JUMPI PUSH1 0x40 MLOAD PUSH3 0x461BCD PUSH1 0xE5 SHL DUP2 MSTORE PUSH1 0x4 ADD PUSH2 0x5B0 SWAP1 PUSH2 0x1AE3 JUMP JUMPDEST PUSH1 0x1 DUP2 LT ISZERO PUSH2 0x851 JUMPI PUSH1 0x40 MLOAD PUSH3 0x461BCD PUSH1 0xE5 SHL DUP2 MSTORE PUSH1 0x20 PUSH1 0x4 DUP3 ADD MSTORE PUSH1 0x31 PUSH1 0x24 DUP3 ADD MSTORE PUSH32 0x45787A6F3A2050657263656E746167652073686F756C64206265206772656174 PUSH1 0x44 DUP3 ADD MSTORE PUSH17 0x6572206F7220657175616C20746F203121 PUSH1 0x78 SHL PUSH1 0x64 DUP3 ADD MSTORE PUSH1 0x84 ADD PUSH2 0x5B0 JUMP JUMPDEST PUSH2 0x871 PUSH1 0x64 PUSH2 0x86B DUP4 PUSH1 0xA SLOAD PUSH2 0x16CB SWAP1 SWAP2 SWAP1 PUSH4 0xFFFFFFFF AND JUMP JUMPDEST SWAP1 PUSH2 0x174D JUMP JUMPDEST PUSH1 0x13 DUP2 SWAP1 SSTORE PUSH1 0x40 MLOAD SWAP1 DUP2 MSTORE PUSH32 0x947F344D56E1E8C70DC492FB94C4DDDDD490C016AAB685F5E7E47B2E85CB44CF SWAP1 PUSH1 0x20 ADD PUSH1 0x40 MLOAD DUP1 SWAP2 SUB SWAP1 LOG1 POP JUMP JUMPDEST CALLER PUSH1 0x0 DUP2 DUP2 MSTORE PUSH1 0x4 PUSH1 0x20 SWAP1 DUP2 MSTORE PUSH1 0x40 DUP1 DUP4 KECCAK256 PUSH1 0x1 PUSH1 0x1 PUSH1 0xA0 SHL SUB DUP8 AND DUP5 MSTORE SWAP1 SWAP2 MSTORE DUP2 KECCAK256 SLOAD SWAP1 SWAP2 PUSH2 0x57C SWAP2 DUP6 SWAP1 PUSH2 0x8E3 SWAP1 DUP7 SWAP1 PUSH2 0x1B41 JUMP JUMPDEST PUSH2 0x109F JUMP JUMPDEST PUSH1 0x0 SLOAD PUSH1 0x1 PUSH1 0x1 PUSH1 0xA0 SHL SUB AND CALLER EQ PUSH2 0x912 JUMPI PUSH1 0x40 MLOAD PUSH3 0x461BCD PUSH1 0xE5 SHL DUP2 MSTORE PUSH1 0x4 ADD PUSH2 0x5B0 SWAP1 PUSH2 0x1AE3 JUMP JUMPDEST PUSH1 0xD SLOAD PUSH1 0x0 SWAP1 PUSH2 0x926 SWAP1 PUSH1 0xFF AND PUSH1 0xA PUSH2 0x1C38 JUMP JUMPDEST PUSH2 0x930 SWAP1 DUP4 PUSH2 0x1C47 JUMP JUMPDEST SWAP1 POP PUSH1 0x9 SLOAD PUSH2 0x94A DUP3 PUSH1 0xA SLOAD PUSH2 0x1039 SWAP1 SWAP2 SWAP1 PUSH4 0xFFFFFFFF AND JUMP JUMPDEST GT ISZERO PUSH2 0x9A9 JUMPI PUSH1 0x40 MLOAD PUSH3 0x461BCD PUSH1 0xE5 SHL DUP2 MSTORE PUSH1 0x20 PUSH1 0x4 DUP3 ADD MSTORE PUSH1 0x28 PUSH1 0x24 DUP3 ADD MSTORE PUSH32 0x45787A6F3A20596F752063616E2774206D696E74206D6F7265207468616E204D PUSH1 0x44 DUP3 ADD MSTORE PUSH8 0x6178537570706C79 PUSH1 0xC0 SHL PUSH1 0x64 DUP3 ADD MSTORE PUSH1 0x84 ADD PUSH2 0x5B0 JUMP JUMPDEST PUSH1 0x1 PUSH1 0x1 PUSH1 0xA0 SHL SUB DUP4 AND PUSH2 0x9FF JUMPI PUSH1 0x40 MLOAD PUSH3 0x461BCD PUSH1 0xE5 SHL DUP2 MSTORE PUSH1 0x20 PUSH1 0x4 DUP3 ADD MSTORE PUSH1 0x1E PUSH1 0x24 DUP3 ADD MSTORE PUSH32 0x45787A6F3A206D696E7420746F20746865207A65726F20616464726573730000 PUSH1 0x44 DUP3 ADD MSTORE PUSH1 0x64 ADD PUSH2 0x5B0 JUMP JUMPDEST DUP1 PUSH1 0xA PUSH1 0x0 DUP3 DUP3 SLOAD PUSH2 0xA11 SWAP2 SWAP1 PUSH2 0x1B41 JUMP JUMPDEST SWAP1 SWAP2 SSTORE POP POP PUSH1 0x1 PUSH1 0x1 PUSH1 0xA0 SHL SUB DUP4 AND PUSH1 0x0 SWAP1 DUP2 MSTORE PUSH1 0x3 PUSH1 0x20 MSTORE PUSH1 0x40 DUP2 KECCAK256 DUP1 SLOAD DUP4 SWAP3 SWAP1 PUSH2 0xA3E SWAP1 DUP5 SWAP1 PUSH2 0x1B41 JUMP JUMPDEST SWAP1 SWAP2 SSTORE POP POP PUSH1 0x40 MLOAD DUP2 DUP2 MSTORE PUSH1 0x1 PUSH1 0x1 PUSH1 0xA0 SHL SUB DUP5 AND SWAP1 PUSH1 0x0 SWAP1 PUSH1 0x0 DUP1 MLOAD PUSH1 0x20 PUSH2 0x1D10 DUP4 CODECOPY DUP2 MLOAD SWAP2 MSTORE SWAP1 PUSH1 0x20 ADD JUMPDEST PUSH1 0x40 MLOAD DUP1 SWAP2 SUB SWAP1 LOG3 POP POP POP JUMP JUMPDEST PUSH1 0x0 SLOAD PUSH1 0x1 PUSH1 0x1 PUSH1 0xA0 SHL SUB AND CALLER EQ PUSH2 0xAA2 JUMPI PUSH1 0x40 MLOAD PUSH3 0x461BCD PUSH1 0xE5 SHL DUP2 MSTORE PUSH1 0x4 ADD PUSH2 0x5B0 SWAP1 PUSH2 0x1AE3 JUMP JUMPDEST PUSH1 0x8 DUP1 SLOAD PUSH1 0x1 PUSH1 0x1 PUSH1 0xA0 SHL SUB NOT AND PUSH1 0x1 PUSH1 0x1 PUSH1 0xA0 SHL SUB SWAP3 SWAP1 SWAP3 AND SWAP2 SWAP1 SWAP2 OR SWAP1 SSTORE JUMP JUMPDEST PUSH1 0x0 SLOAD PUSH1 0x1 PUSH1 0x1 PUSH1 0xA0 SHL SUB AND CALLER EQ PUSH2 0xAEE JUMPI PUSH1 0x40 MLOAD PUSH3 0x461BCD PUSH1 0xE5 SHL DUP2 MSTORE PUSH1 0x4 ADD PUSH2 0x5B0 SWAP1 PUSH2 0x1AE3 JUMP JUMPDEST PUSH1 0x0 DUP1 SLOAD PUSH1 0x40 MLOAD PUSH1 0x1 PUSH1 0x1 PUSH1 0xA0 SHL SUB SWAP1 SWAP2 AND SWAP1 PUSH32 0x8BE0079C531659141344CD1FD0A4F28419497F9722A3DAAFE3B4186F6B6457E0 SWAP1 DUP4 SWAP1 LOG3 PUSH1 0x0 DUP1 SLOAD PUSH1 0x1 PUSH1 0x1 PUSH1 0xA0 SHL SUB NOT AND SWAP1 SSTORE JUMP JUMPDEST PUSH1 0x60 PUSH1 0xC DUP1 SLOAD PUSH2 0x4EC SWAP1 PUSH2 0x1AA9 JUMP JUMPDEST PUSH1 0xD SLOAD PUSH1 0x0 SWAP1 PUSH2 0xB5B SWAP1 PUSH1 0xFF AND PUSH1 0xA PUSH2 0x1C38 JUMP JUMPDEST PUSH2 0xB65 SWAP1 DUP4 PUSH2 0x1C47 JUMP JUMPDEST SWAP1 POP CALLER DUP1 PUSH2 0xBB5 JUMPI PUSH1 0x40 MLOAD PUSH3 0x461BCD PUSH1 0xE5 SHL DUP2 MSTORE PUSH1 0x20 PUSH1 0x4 DUP3 ADD DUP2 SWAP1 MSTORE PUSH1 0x24 DUP3 ADD MSTORE PUSH32 0x45787A6F3A206275726E2066726F6D20746865207A65726F2061646472657373 PUSH1 0x44 DUP3 ADD MSTORE PUSH1 0x64 ADD PUSH2 0x5B0 JUMP JUMPDEST PUSH1 0x1 PUSH1 0x1 PUSH1 0xA0 SHL SUB DUP2 AND PUSH1 0x0 SWAP1 DUP2 MSTORE PUSH1 0x3 PUSH1 0x20 MSTORE PUSH1 0x40 SWAP1 KECCAK256 SLOAD DUP3 DUP2 LT ISZERO PUSH2 0xC28 JUMPI PUSH1 0x40 MLOAD PUSH3 0x461BCD PUSH1 0xE5 SHL DUP2 MSTORE PUSH1 0x20 PUSH1 0x4 DUP3 ADD MSTORE PUSH1 0x21 PUSH1 0x24 DUP3 ADD MSTORE PUSH32 0x45787A6F3A206275726E20616D6F756E7420657863656564732062616C616E63 PUSH1 0x44 DUP3 ADD MSTORE PUSH1 0x65 PUSH1 0xF8 SHL PUSH1 0x64 DUP3 ADD MSTORE PUSH1 0x84 ADD PUSH2 0x5B0 JUMP JUMPDEST PUSH2 0xC32 DUP4 DUP3 PUSH2 0x1B2E JUMP JUMPDEST PUSH1 0x1 PUSH1 0x1 PUSH1 0xA0 SHL SUB DUP4 AND PUSH1 0x0 SWAP1 DUP2 MSTORE PUSH1 0x3 PUSH1 0x20 MSTORE PUSH1 0x40 DUP2 KECCAK256 SWAP2 SWAP1 SWAP2 SSTORE PUSH1 0xA DUP1 SLOAD DUP6 SWAP3 SWAP1 PUSH2 0xC60 SWAP1 DUP5 SWAP1 PUSH2 0x1B2E JUMP JUMPDEST SWAP1 SWAP2 SSTORE POP POP PUSH1 0x40 MLOAD DUP4 DUP2 MSTORE PUSH1 0x0 SWAP1 PUSH1 0x1 PUSH1 0x1 PUSH1 0xA0 SHL SUB DUP5 AND SWAP1 PUSH1 0x0 DUP1 MLOAD PUSH1 0x20 PUSH2 0x1D10 DUP4 CODECOPY DUP2 MLOAD SWAP2 MSTORE SWAP1 PUSH1 0x20 ADD PUSH1 0x40 MLOAD DUP1 SWAP2 SUB SWAP1 LOG3 POP POP POP POP JUMP JUMPDEST CALLER PUSH1 0x0 SWAP1 DUP2 MSTORE PUSH1 0x4 PUSH1 0x20 SWAP1 DUP2 MSTORE PUSH1 0x40 DUP1 DUP4 KECCAK256 PUSH1 0x1 PUSH1 0x1 PUSH1 0xA0 SHL SUB DUP7 AND DUP5 MSTORE SWAP1 SWAP2 MSTORE DUP2 KECCAK256 SLOAD DUP3 DUP2 LT ISZERO PUSH2 0xD1A JUMPI PUSH1 0x40 MLOAD PUSH3 0x461BCD PUSH1 0xE5 SHL DUP2 MSTORE PUSH1 0x20 PUSH1 0x4 DUP3 ADD MSTORE PUSH1 0x24 DUP1 DUP3 ADD MSTORE PUSH32 0x45787A6F3A2044656372656173656420616C6C6F77616E63652062656C6F7720 PUSH1 0x44 DUP3 ADD MSTORE PUSH4 0x7A65726F PUSH1 0xE0 SHL PUSH1 0x64 DUP3 ADD MSTORE PUSH1 0x84 ADD PUSH2 0x5B0 JUMP JUMPDEST PUSH2 0x7B2 CALLER DUP6 PUSH2 0x8E3 DUP7 DUP6 PUSH2 0x1B2E JUMP JUMPDEST PUSH1 0x0 PUSH2 0x57C CALLER DUP5 DUP5 PUSH2 0x11BA JUMP JUMPDEST PUSH1 0x0 SLOAD PUSH1 0x1 PUSH1 0x1 PUSH1 0xA0 SHL SUB AND CALLER EQ PUSH2 0xD60 JUMPI PUSH1 0x40 MLOAD PUSH3 0x461BCD PUSH1 0xE5 SHL DUP2 MSTORE PUSH1 0x4 ADD PUSH2 0x5B0 SWAP1 PUSH2 0x1AE3 JUMP JUMPDEST DUP3 DUP2 EQ PUSH2 0xDBB JUMPI PUSH1 0x40 MLOAD PUSH3 0x461BCD PUSH1 0xE5 SHL DUP2 MSTORE PUSH1 0x20 PUSH1 0x4 DUP3 ADD MSTORE PUSH1 0x24 DUP1 DUP3 ADD MSTORE PUSH32 0x45787A6F3A20417272617973206D757374206265207468652073616D65206C65 PUSH1 0x44 DUP3 ADD MSTORE PUSH4 0xDCCEE8D PUSH1 0xE3 SHL PUSH1 0x64 DUP3 ADD MSTORE PUSH1 0x84 ADD PUSH2 0x5B0 JUMP JUMPDEST PUSH1 0x0 JUMPDEST DUP4 DUP2 LT ISZERO PUSH2 0xE52 JUMPI DUP3 DUP3 DUP3 DUP2 DUP2 LT PUSH2 0xDD8 JUMPI PUSH2 0xDD8 PUSH2 0x1C5E JUMP JUMPDEST SWAP1 POP PUSH1 0x20 MUL ADD PUSH1 0x20 DUP2 ADD SWAP1 PUSH2 0xDED SWAP2 SWAP1 PUSH2 0x1C74 JUMP JUMPDEST PUSH1 0x7 PUSH1 0x0 DUP8 DUP8 DUP6 DUP2 DUP2 LT PUSH2 0xE03 JUMPI PUSH2 0xE03 PUSH2 0x1C5E JUMP JUMPDEST SWAP1 POP PUSH1 0x20 MUL ADD PUSH1 0x20 DUP2 ADD SWAP1 PUSH2 0xE18 SWAP2 SWAP1 PUSH2 0x1951 JUMP JUMPDEST PUSH1 0x1 PUSH1 0x1 PUSH1 0xA0 SHL SUB AND DUP2 MSTORE PUSH1 0x20 DUP2 ADD SWAP2 SWAP1 SWAP2 MSTORE PUSH1 0x40 ADD PUSH1 0x0 KECCAK256 DUP1 SLOAD PUSH1 0xFF NOT AND SWAP2 ISZERO ISZERO SWAP2 SWAP1 SWAP2 OR SWAP1 SSTORE DUP1 PUSH2 0xE4A DUP2 PUSH2 0x1C8F JUMP JUMPDEST SWAP2 POP POP PUSH2 0xDBE JUMP JUMPDEST POP POP POP POP POP JUMP JUMPDEST PUSH1 0x0 SLOAD PUSH1 0x1 PUSH1 0x1 PUSH1 0xA0 SHL SUB AND CALLER EQ PUSH2 0xE83 JUMPI PUSH1 0x40 MLOAD PUSH3 0x461BCD PUSH1 0xE5 SHL DUP2 MSTORE PUSH1 0x4 ADD PUSH2 0x5B0 SWAP1 PUSH2 0x1AE3 JUMP JUMPDEST PUSH1 0x1 PUSH1 0x1 PUSH1 0xA0 SHL SUB DUP3 AND PUSH2 0xEA9 JUMPI PUSH1 0x40 MLOAD PUSH3 0x461BCD PUSH1 0xE5 SHL DUP2 MSTORE PUSH1 0x4 ADD PUSH2 0x5B0 SWAP1 PUSH2 0x1CA8 JUMP JUMPDEST PUSH1 0x1 PUSH1 0x1 PUSH1 0xA0 SHL SUB SWAP2 SWAP1 SWAP2 AND PUSH1 0x0 SWAP1 DUP2 MSTORE PUSH1 0x5 PUSH1 0x20 MSTORE PUSH1 0x40 SWAP1 KECCAK256 DUP1 SLOAD PUSH1 0xFF NOT AND SWAP2 ISZERO ISZERO SWAP2 SWAP1 SWAP2 OR SWAP1 SSTORE JUMP JUMPDEST PUSH1 0x0 SLOAD PUSH1 0x1 PUSH1 0x1 PUSH1 0xA0 SHL SUB AND CALLER EQ PUSH2 0xEFE JUMPI PUSH1 0x40 MLOAD PUSH3 0x461BCD PUSH1 0xE5 SHL DUP2 MSTORE PUSH1 0x4 ADD PUSH2 0x5B0 SWAP1 PUSH2 0x1AE3 JUMP JUMPDEST PUSH1 0x1 PUSH1 0x1 PUSH1 0xA0 SHL SUB DUP3 AND PUSH2 0xF24 JUMPI PUSH1 0x40 MLOAD PUSH3 0x461BCD PUSH1 0xE5 SHL DUP2 MSTORE PUSH1 0x4 ADD PUSH2 0x5B0 SWAP1 PUSH2 0x1CA8 JUMP JUMPDEST PUSH1 0x1 PUSH1 0x1 PUSH1 0xA0 SHL SUB SWAP2 SWAP1 SWAP2 AND PUSH1 0x0 SWAP1 DUP2 MSTORE PUSH1 0x6 PUSH1 0x20 MSTORE PUSH1 0x40 SWAP1 KECCAK256 DUP1 SLOAD PUSH1 0xFF NOT AND SWAP2 ISZERO ISZERO SWAP2 SWAP1 SWAP2 OR SWAP1 SSTORE JUMP JUMPDEST PUSH1 0x0 SLOAD PUSH1 0x1 PUSH1 0x1 PUSH1 0xA0 SHL SUB AND CALLER EQ PUSH2 0xF79 JUMPI PUSH1 0x40 MLOAD PUSH3 0x461BCD PUSH1 0xE5 SHL DUP2 MSTORE PUSH1 0x4 ADD PUSH2 0x5B0 SWAP1 PUSH2 0x1AE3 JUMP JUMPDEST PUSH1 0x1 PUSH1 0x1 PUSH1 0xA0 SHL SUB DUP2 AND PUSH2 0xFDE JUMPI PUSH1 0x40 MLOAD PUSH3 0x461BCD PUSH1 0xE5 SHL DUP2 MSTORE PUSH1 0x20 PUSH1 0x4 DUP3 ADD MSTORE PUSH1 0x26 PUSH1 0x24 DUP3 ADD MSTORE PUSH32 0x4F776E61626C653A206E6577206F776E657220697320746865207A65726F2061 PUSH1 0x44 DUP3 ADD MSTORE PUSH6 0x646472657373 PUSH1 0xD0 SHL PUSH1 0x64 DUP3 ADD MSTORE PUSH1 0x84 ADD PUSH2 0x5B0 JUMP JUMPDEST PUSH1 0x0 DUP1 SLOAD PUSH1 0x40 MLOAD PUSH1 0x1 PUSH1 0x1 PUSH1 0xA0 SHL SUB DUP1 DUP6 AND SWAP4 SWAP3 AND SWAP2 PUSH32 0x8BE0079C531659141344CD1FD0A4F28419497F9722A3DAAFE3B4186F6B6457E0 SWAP2 LOG3 PUSH1 0x0 DUP1 SLOAD PUSH1 0x1 PUSH1 0x1 PUSH1 0xA0 SHL SUB NOT AND PUSH1 0x1 PUSH1 0x1 PUSH1 0xA0 SHL SUB SWAP3 SWAP1 SWAP3 AND SWAP2 SWAP1 SWAP2 OR SWAP1 SSTORE JUMP JUMPDEST PUSH1 0x0 DUP1 PUSH2 0x1046 DUP4 DUP6 PUSH2 0x1B41 JUMP JUMPDEST SWAP1 POP DUP4 DUP2 LT ISZERO PUSH2 0x1098 JUMPI PUSH1 0x40 MLOAD PUSH3 0x461BCD PUSH1 0xE5 SHL DUP2 MSTORE PUSH1 0x20 PUSH1 0x4 DUP3 ADD MSTORE PUSH1 0x1B PUSH1 0x24 DUP3 ADD MSTORE PUSH32 0x536166654D6174683A206164646974696F6E206F766572666C6F770000000000 PUSH1 0x44 DUP3 ADD MSTORE PUSH1 0x64 ADD PUSH2 0x5B0 JUMP JUMPDEST SWAP4 SWAP3 POP POP POP JUMP JUMPDEST PUSH1 0x1 PUSH1 0x1 PUSH1 0xA0 SHL SUB DUP4 AND PUSH2 0x1101 JUMPI PUSH1 0x40 MLOAD PUSH3 0x461BCD PUSH1 0xE5 SHL DUP2 MSTORE PUSH1 0x20 PUSH1 0x4 DUP3 ADD MSTORE PUSH1 0x23 PUSH1 0x24 DUP3 ADD MSTORE PUSH32 0x45787A6F3A20617070726F76652066726F6D20746865207A65726F2061646472 PUSH1 0x44 DUP3 ADD MSTORE PUSH3 0x657373 PUSH1 0xE8 SHL PUSH1 0x64 DUP3 ADD MSTORE PUSH1 0x84 ADD PUSH2 0x5B0 JUMP JUMPDEST PUSH1 0x1 PUSH1 0x1 PUSH1 0xA0 SHL SUB DUP3 AND PUSH2 0x1161 JUMPI PUSH1 0x40 MLOAD PUSH3 0x461BCD PUSH1 0xE5 SHL DUP2 MSTORE PUSH1 0x20 PUSH1 0x4 DUP3 ADD MSTORE PUSH1 0x21 PUSH1 0x24 DUP3 ADD MSTORE PUSH32 0x45787A6F3A20617070726F766520746F20746865207A65726F20616464726573 PUSH1 0x44 DUP3 ADD MSTORE PUSH1 0x73 PUSH1 0xF8 SHL PUSH1 0x64 DUP3 ADD MSTORE PUSH1 0x84 ADD PUSH2 0x5B0 JUMP JUMPDEST PUSH1 0x1 PUSH1 0x1 PUSH1 0xA0 SHL SUB DUP4 DUP2 AND PUSH1 0x0 DUP2 DUP2 MSTORE PUSH1 0x4 PUSH1 0x20 SWAP1 DUP2 MSTORE PUSH1 0x40 DUP1 DUP4 KECCAK256 SWAP5 DUP8 AND DUP1 DUP5 MSTORE SWAP5 DUP3 MSTORE SWAP2 DUP3 SWAP1 KECCAK256 DUP6 SWAP1 SSTORE SWAP1 MLOAD DUP5 DUP2 MSTORE PUSH32 0x8C5BE1E5EBEC7D5BD14F71427D1E84F3DD0314C0F7B2291E5B200AC8C7C3B925 SWAP2 ADD PUSH2 0xA6B JUMP JUMPDEST PUSH1 0x1 PUSH1 0x1 PUSH1 0xA0 SHL SUB DUP4 AND PUSH2 0x121C JUMPI PUSH1 0x40 MLOAD PUSH3 0x461BCD PUSH1 0xE5 SHL DUP2 MSTORE PUSH1 0x20 PUSH1 0x4 DUP3 ADD MSTORE PUSH1 0x24 DUP1 DUP3 ADD MSTORE PUSH32 0x45787A6F3A205472616E736665722066726F6D20746865207A65726F20616464 PUSH1 0x44 DUP3 ADD MSTORE PUSH4 0x72657373 PUSH1 0xE0 SHL PUSH1 0x64 DUP3 ADD MSTORE PUSH1 0x84 ADD PUSH2 0x5B0 JUMP JUMPDEST PUSH1 0x1 PUSH1 0x1 PUSH1 0xA0 SHL SUB DUP3 AND PUSH2 0x127D JUMPI PUSH1 0x40 MLOAD PUSH3 0x461BCD PUSH1 0xE5 SHL DUP2 MSTORE PUSH1 0x20 PUSH1 0x4 DUP3 ADD MSTORE PUSH1 0x22 PUSH1 0x24 DUP3 ADD MSTORE PUSH32 0x45787A6F3A205472616E7366657220746F20746865207A65726F206164647265 PUSH1 0x44 DUP3 ADD MSTORE PUSH2 0x7373 PUSH1 0xF0 SHL PUSH1 0x64 DUP3 ADD MSTORE PUSH1 0x84 ADD PUSH2 0x5B0 JUMP JUMPDEST PUSH1 0x1 PUSH1 0x1 PUSH1 0xA0 SHL SUB DUP4 AND PUSH1 0x0 SWAP1 DUP2 MSTORE PUSH1 0x7 PUSH1 0x20 MSTORE PUSH1 0x40 SWAP1 KECCAK256 SLOAD PUSH1 0xFF AND ISZERO PUSH2 0x12FD JUMPI PUSH1 0x40 MLOAD PUSH3 0x461BCD PUSH1 0xE5 SHL DUP2 MSTORE PUSH1 0x20 PUSH1 0x4 DUP3 ADD MSTORE PUSH1 0x2E PUSH1 0x24 DUP3 ADD MSTORE PUSH32 0x45787A6F3A2043616E6E6F74207472616E7366657220746F6B656E732066726F PUSH1 0x44 DUP3 ADD MSTORE PUSH14 0x6D20746869732061646472657373 PUSH1 0x90 SHL PUSH1 0x64 DUP3 ADD MSTORE PUSH1 0x84 ADD PUSH2 0x5B0 JUMP JUMPDEST PUSH1 0x1 PUSH1 0x1 PUSH1 0xA0 SHL SUB DUP3 AND PUSH1 0x0 SWAP1 DUP2 MSTORE PUSH1 0x7 PUSH1 0x20 MSTORE PUSH1 0x40 SWAP1 KECCAK256 SLOAD PUSH1 0xFF AND ISZERO PUSH2 0x137B JUMPI PUSH1 0x40 MLOAD PUSH3 0x461BCD PUSH1 0xE5 SHL DUP2 MSTORE PUSH1 0x20 PUSH1 0x4 DUP3 ADD MSTORE PUSH1 0x2C PUSH1 0x24 DUP3 ADD MSTORE PUSH32 0x45787A6F3A2043616E6E6F74207472616E7366657220746F6B656E7320746F20 PUSH1 0x44 DUP3 ADD MSTORE PUSH12 0x746869732061646472657373 PUSH1 0xA0 SHL PUSH1 0x64 DUP3 ADD MSTORE PUSH1 0x84 ADD PUSH2 0x5B0 JUMP JUMPDEST PUSH1 0x1 PUSH1 0x1 PUSH1 0xA0 SHL SUB DUP4 AND PUSH1 0x0 SWAP1 DUP2 MSTORE PUSH1 0x6 PUSH1 0x20 MSTORE PUSH1 0x40 DUP2 KECCAK256 SLOAD DUP2 SWAP1 DUP2 SWAP1 PUSH1 0xFF AND DUP1 PUSH2 0x13BE JUMPI POP PUSH1 0x1 PUSH1 0x1 PUSH1 0xA0 SHL SUB DUP6 AND PUSH1 0x0 SWAP1 DUP2 MSTORE PUSH1 0x6 PUSH1 0x20 MSTORE PUSH1 0x40 SWAP1 KECCAK256 SLOAD PUSH1 0xFF AND JUMPDEST ISZERO PUSH2 0x14CD JUMPI PUSH1 0x1 PUSH1 0x1 PUSH1 0xA0 SHL SUB DUP7 AND PUSH1 0x0 SWAP1 DUP2 MSTORE PUSH1 0x5 PUSH1 0x20 MSTORE PUSH1 0x40 SWAP1 KECCAK256 SLOAD PUSH1 0xFF AND DUP1 PUSH2 0x1402 JUMPI POP PUSH1 0x1 PUSH1 0x1 PUSH1 0xA0 SHL SUB DUP6 AND PUSH1 0x0 SWAP1 DUP2 MSTORE PUSH1 0x5 PUSH1 0x20 MSTORE PUSH1 0x40 SWAP1 KECCAK256 SLOAD PUSH1 0xFF AND JUMPDEST ISZERO PUSH2 0x1415 JUMPI POP PUSH1 0x0 SWAP2 POP DUP2 SWAP1 POP DUP1 PUSH2 0x14D7 JUMP JUMPDEST PUSH1 0x13 SLOAD DUP5 GT ISZERO PUSH2 0x1471 JUMPI PUSH1 0x40 MLOAD PUSH3 0x461BCD PUSH1 0xE5 SHL DUP2 MSTORE PUSH1 0x20 PUSH1 0x4 DUP3 ADD MSTORE PUSH1 0x21 PUSH1 0x24 DUP3 ADD MSTORE PUSH32 0x45787A6F3A205472616E73616374696F6E206C696D6974204578636565646564 PUSH1 0x44 DUP3 ADD MSTORE PUSH1 0x21 PUSH1 0xF8 SHL PUSH1 0x64 DUP3 ADD MSTORE PUSH1 0x84 ADD PUSH2 0x5B0 JUMP JUMPDEST PUSH2 0x148C PUSH2 0x2710 PUSH2 0x86B PUSH1 0xF SLOAD DUP8 PUSH2 0x16CB SWAP1 SWAP2 SWAP1 PUSH4 0xFFFFFFFF AND JUMP JUMPDEST SWAP3 POP PUSH2 0x14A9 PUSH2 0x2710 PUSH2 0x86B PUSH1 0xE SLOAD DUP8 PUSH2 0x16CB SWAP1 SWAP2 SWAP1 PUSH4 0xFFFFFFFF AND JUMP JUMPDEST SWAP2 POP PUSH2 0x14C6 PUSH2 0x2710 PUSH2 0x86B PUSH1 0x10 SLOAD DUP8 PUSH2 0x16CB SWAP1 SWAP2 SWAP1 PUSH4 0xFFFFFFFF AND JUMP JUMPDEST SWAP1 POP PUSH2 0x14D7 JUMP JUMPDEST POP PUSH1 0x0 SWAP2 POP DUP2 SWAP1 POP DUP1 JUMPDEST PUSH1 0x1 PUSH1 0x1 PUSH1 0xA0 SHL SUB DUP7 AND PUSH1 0x0 SWAP1 DUP2 MSTORE PUSH1 0x3 PUSH1 0x20 MSTORE PUSH1 0x40 SWAP1 KECCAK256 SLOAD DUP5 DUP2 LT ISZERO PUSH2 0x154E JUMPI PUSH1 0x40 MLOAD PUSH3 0x461BCD PUSH1 0xE5 SHL DUP2 MSTORE PUSH1 0x20 PUSH1 0x4 DUP3 ADD MSTORE PUSH1 0x25 PUSH1 0x24 DUP3 ADD MSTORE PUSH32 0x45787A6F3A205472616E7366657220616D6F756E742065786365656473206261 PUSH1 0x44 DUP3 ADD MSTORE PUSH5 0x6C616E6365 PUSH1 0xD8 SHL PUSH1 0x64 DUP3 ADD MSTORE PUSH1 0x84 ADD PUSH2 0x5B0 JUMP JUMPDEST PUSH2 0x1558 DUP6 DUP3 PUSH2 0x1B2E JUMP JUMPDEST PUSH1 0x1 PUSH1 0x1 PUSH1 0xA0 SHL SUB DUP1 DUP10 AND PUSH1 0x0 SWAP1 DUP2 MSTORE PUSH1 0x3 PUSH1 0x20 MSTORE PUSH1 0x40 DUP1 DUP3 KECCAK256 SWAP4 SWAP1 SWAP4 SSTORE PUSH1 0x8 SLOAD SWAP1 SWAP2 AND DUP2 MSTORE SWAP1 DUP2 KECCAK256 DUP1 SLOAD DUP7 SWAP3 SWAP1 PUSH2 0x1591 SWAP1 DUP5 SWAP1 PUSH2 0x1B41 JUMP JUMPDEST SWAP1 SWAP2 SSTORE POP POP ADDRESS PUSH1 0x0 SWAP1 DUP2 MSTORE PUSH1 0x3 PUSH1 0x20 MSTORE PUSH1 0x40 DUP2 KECCAK256 DUP1 SLOAD DUP6 SWAP3 SWAP1 PUSH2 0x15B5 SWAP1 DUP5 SWAP1 PUSH2 0x1B41 JUMP JUMPDEST SWAP1 SWAP2 SSTORE POP POP DUP2 ISZERO PUSH2 0x1607 JUMPI DUP2 PUSH1 0xA PUSH1 0x0 DUP3 DUP3 SLOAD PUSH2 0x15D2 SWAP2 SWAP1 PUSH2 0x1B2E JUMP JUMPDEST SWAP1 SWAP2 SSTORE POP POP PUSH1 0x40 MLOAD DUP3 DUP2 MSTORE PUSH1 0x0 SWAP1 PUSH1 0x1 PUSH1 0x1 PUSH1 0xA0 SHL SUB DUP10 AND SWAP1 PUSH1 0x0 DUP1 MLOAD PUSH1 0x20 PUSH2 0x1D10 DUP4 CODECOPY DUP2 MLOAD SWAP2 MSTORE SWAP1 PUSH1 0x20 ADD PUSH1 0x40 MLOAD DUP1 SWAP2 SUB SWAP1 LOG3 JUMPDEST PUSH2 0x161D DUP3 PUSH2 0x1617 DUP6 DUP2 DUP10 DUP10 PUSH2 0x178F JUMP JUMPDEST SWAP1 PUSH2 0x178F JUMP JUMPDEST PUSH1 0x1 PUSH1 0x1 PUSH1 0xA0 SHL SUB DUP8 AND PUSH1 0x0 SWAP1 DUP2 MSTORE PUSH1 0x3 PUSH1 0x20 MSTORE PUSH1 0x40 DUP2 KECCAK256 DUP1 SLOAD SWAP1 SWAP2 SWAP1 PUSH2 0x1645 SWAP1 DUP5 SWAP1 PUSH2 0x1B41 JUMP JUMPDEST SWAP1 SWAP2 SSTORE POP POP DUP4 ISZERO PUSH2 0x1684 JUMPI PUSH1 0x8 SLOAD PUSH1 0x40 MLOAD DUP6 DUP2 MSTORE PUSH1 0x1 PUSH1 0x1 PUSH1 0xA0 SHL SUB SWAP2 DUP3 AND SWAP2 DUP10 AND SWAP1 PUSH1 0x0 DUP1 MLOAD PUSH1 0x20 PUSH2 0x1D10 DUP4 CODECOPY DUP2 MLOAD SWAP2 MSTORE SWAP1 PUSH1 0x20 ADD PUSH1 0x40 MLOAD DUP1 SWAP2 SUB SWAP1 LOG3 JUMPDEST PUSH1 0x1 PUSH1 0x1 PUSH1 0xA0 SHL SUB DUP1 DUP8 AND SWAP1 DUP9 AND PUSH1 0x0 DUP1 MLOAD PUSH1 0x20 PUSH2 0x1D10 DUP4 CODECOPY DUP2 MLOAD SWAP2 MSTORE PUSH2 0x16B1 DUP6 PUSH2 0x1617 DUP9 DUP2 DUP13 DUP13 PUSH2 0x178F JUMP JUMPDEST PUSH1 0x40 MLOAD SWAP1 DUP2 MSTORE PUSH1 0x20 ADD PUSH1 0x40 MLOAD DUP1 SWAP2 SUB SWAP1 LOG3 POP POP POP POP POP POP POP JUMP JUMPDEST PUSH1 0x0 DUP3 PUSH1 0x0 SUB PUSH2 0x16DD JUMPI POP PUSH1 0x0 PUSH2 0x580 JUMP JUMPDEST PUSH1 0x0 PUSH2 0x16E9 DUP4 DUP6 PUSH2 0x1C47 JUMP JUMPDEST SWAP1 POP DUP3 PUSH2 0x16F6 DUP6 DUP4 PUSH2 0x1CED JUMP JUMPDEST EQ PUSH2 0x1098 JUMPI PUSH1 0x40 MLOAD PUSH3 0x461BCD PUSH1 0xE5 SHL DUP2 MSTORE PUSH1 0x20 PUSH1 0x4 DUP3 ADD MSTORE PUSH1 0x21 PUSH1 0x24 DUP3 ADD MSTORE PUSH32 0x536166654D6174683A206D756C7469706C69636174696F6E206F766572666C6F PUSH1 0x44 DUP3 ADD MSTORE PUSH1 0x77 PUSH1 0xF8 SHL PUSH1 0x64 DUP3 ADD MSTORE PUSH1 0x84 ADD PUSH2 0x5B0 JUMP JUMPDEST PUSH1 0x0 PUSH2 0x1098 DUP4 DUP4 PUSH1 0x40 MLOAD DUP1 PUSH1 0x40 ADD PUSH1 0x40 MSTORE DUP1 PUSH1 0x1A DUP2 MSTORE PUSH1 0x20 ADD PUSH32 0x536166654D6174683A206469766973696F6E206279207A65726F000000000000 DUP2 MSTORE POP PUSH2 0x17D1 JUMP JUMPDEST PUSH1 0x0 PUSH2 0x1098 DUP4 DUP4 PUSH1 0x40 MLOAD DUP1 PUSH1 0x40 ADD PUSH1 0x40 MSTORE DUP1 PUSH1 0x1E DUP2 MSTORE PUSH1 0x20 ADD PUSH32 0x536166654D6174683A207375627472616374696F6E206F766572666C6F770000 DUP2 MSTORE POP PUSH2 0x1808 JUMP JUMPDEST PUSH1 0x0 DUP2 DUP4 PUSH2 0x17F2 JUMPI PUSH1 0x40 MLOAD PUSH3 0x461BCD PUSH1 0xE5 SHL DUP2 MSTORE PUSH1 0x4 ADD PUSH2 0x5B0 SWAP2 SWAP1 PUSH2 0x1839 JUMP JUMPDEST POP PUSH1 0x0 PUSH2 0x17FF DUP5 DUP7 PUSH2 0x1CED JUMP JUMPDEST SWAP6 SWAP5 POP POP POP POP POP JUMP JUMPDEST PUSH1 0x0 DUP2 DUP5 DUP5 GT ISZERO PUSH2 0x182C JUMPI PUSH1 0x40 MLOAD PUSH3 0x461BCD PUSH1 0xE5 SHL DUP2 MSTORE PUSH1 0x4 ADD PUSH2 0x5B0 SWAP2 SWAP1 PUSH2 0x1839 JUMP JUMPDEST POP PUSH1 0x0 PUSH2 0x17FF DUP5 DUP7 PUSH2 0x1B2E JUMP JUMPDEST PUSH1 0x0 PUSH1 0x20 DUP1 DUP4 MSTORE DUP4 MLOAD DUP1 DUP3 DUP6 ADD MSTORE PUSH1 0x0 JUMPDEST DUP2 DUP2 LT ISZERO PUSH2 0x1866 JUMPI DUP6 DUP2 ADD DUP4 ADD MLOAD DUP6 DUP3 ADD PUSH1 0x40 ADD MSTORE DUP3 ADD PUSH2 0x184A JUMP JUMPDEST POP PUSH1 0x0 PUSH1 0x40 DUP3 DUP7 ADD ADD MSTORE PUSH1 0x40 PUSH1 0x1F NOT PUSH1 0x1F DUP4 ADD AND DUP6 ADD ADD SWAP3 POP POP POP SWAP3 SWAP2 POP POP JUMP JUMPDEST PUSH1 0x1 PUSH1 0x1 PUSH1 0xA0 SHL SUB DUP2 AND DUP2 EQ PUSH2 0x189C JUMPI PUSH1 0x0 DUP1 REVERT JUMPDEST POP JUMP JUMPDEST PUSH1 0x0 DUP1 PUSH1 0x40 DUP4 DUP6 SUB SLT ISZERO PUSH2 0x18B2 JUMPI PUSH1 0x0 DUP1 REVERT JUMPDEST DUP3 CALLDATALOAD PUSH2 0x18BD DUP2 PUSH2 0x1887 JUMP JUMPDEST SWAP5 PUSH1 0x20 SWAP4 SWAP1 SWAP4 ADD CALLDATALOAD SWAP4 POP POP POP JUMP JUMPDEST PUSH1 0x0 DUP1 PUSH1 0x0 PUSH1 0x60 DUP5 DUP7 SUB SLT ISZERO PUSH2 0x18E0 JUMPI PUSH1 0x0 DUP1 REVERT JUMPDEST POP POP DUP2 CALLDATALOAD SWAP4 PUSH1 0x20 DUP4 ADD CALLDATALOAD SWAP4 POP PUSH1 0x40 SWAP1 SWAP3 ADD CALLDATALOAD SWAP2 SWAP1 POP JUMP JUMPDEST PUSH1 0x0 DUP1 PUSH1 0x0 PUSH1 0x60 DUP5 DUP7 SUB SLT ISZERO PUSH2 0x190C JUMPI PUSH1 0x0 DUP1 REVERT JUMPDEST DUP4 CALLDATALOAD PUSH2 0x1917 DUP2 PUSH2 0x1887 JUMP JUMPDEST SWAP3 POP PUSH1 0x20 DUP5 ADD CALLDATALOAD PUSH2 0x1927 DUP2 PUSH2 0x1887 JUMP JUMPDEST SWAP3 SWAP6 SWAP3 SWAP5 POP POP POP PUSH1 0x40 SWAP2 SWAP1 SWAP2 ADD CALLDATALOAD SWAP1 JUMP JUMPDEST PUSH1 0x0 PUSH1 0x20 DUP3 DUP5 SUB SLT ISZERO PUSH2 0x194A JUMPI PUSH1 0x0 DUP1 REVERT JUMPDEST POP CALLDATALOAD SWAP2 SWAP1 POP JUMP JUMPDEST PUSH1 0x0 PUSH1 0x20 DUP3 DUP5 SUB SLT ISZERO PUSH2 0x1963 JUMPI PUSH1 0x0 DUP1 REVERT JUMPDEST DUP2 CALLDATALOAD PUSH2 0x1098 DUP2 PUSH2 0x1887 JUMP JUMPDEST PUSH1 0x0 DUP1 DUP4 PUSH1 0x1F DUP5 ADD SLT PUSH2 0x1980 JUMPI PUSH1 0x0 DUP1 REVERT JUMPDEST POP DUP2 CALLDATALOAD PUSH8 0xFFFFFFFFFFFFFFFF DUP2 GT ISZERO PUSH2 0x1998 JUMPI PUSH1 0x0 DUP1 REVERT JUMPDEST PUSH1 0x20 DUP4 ADD SWAP2 POP DUP4 PUSH1 0x20 DUP3 PUSH1 0x5 SHL DUP6 ADD ADD GT ISZERO PUSH2 0x19B3 JUMPI PUSH1 0x0 DUP1 REVERT JUMPDEST SWAP3 POP SWAP3 SWAP1 POP JUMP JUMPDEST PUSH1 0x0 DUP1 PUSH1 0x0 DUP1 PUSH1 0x40 DUP6 DUP8 SUB SLT ISZERO PUSH2 0x19D0 JUMPI PUSH1 0x0 DUP1 REVERT JUMPDEST DUP5 CALLDATALOAD PUSH8 0xFFFFFFFFFFFFFFFF DUP1 DUP3 GT ISZERO PUSH2 0x19E8 JUMPI PUSH1 0x0 DUP1 REVERT JUMPDEST PUSH2 0x19F4 DUP9 DUP4 DUP10 ADD PUSH2 0x196E JUMP JUMPDEST SWAP1 SWAP7 POP SWAP5 POP PUSH1 0x20 DUP8 ADD CALLDATALOAD SWAP2 POP DUP1 DUP3 GT ISZERO PUSH2 0x1A0D JUMPI PUSH1 0x0 DUP1 REVERT JUMPDEST POP PUSH2 0x1A1A DUP8 DUP3 DUP9 ADD PUSH2 0x196E JUMP JUMPDEST SWAP6 SWAP9 SWAP5 SWAP8 POP SWAP6 POP POP POP POP JUMP JUMPDEST DUP1 CALLDATALOAD DUP1 ISZERO ISZERO DUP2 EQ PUSH2 0x1A36 JUMPI PUSH1 0x0 DUP1 REVERT JUMPDEST SWAP2 SWAP1 POP JUMP JUMPDEST PUSH1 0x0 DUP1 PUSH1 0x40 DUP4 DUP6 SUB SLT ISZERO PUSH2 0x1A4E JUMPI PUSH1 0x0 DUP1 REVERT JUMPDEST DUP3 CALLDATALOAD PUSH2 0x1A59 DUP2 PUSH2 0x1887 JUMP JUMPDEST SWAP2 POP PUSH2 0x1A67 PUSH1 0x20 DUP5 ADD PUSH2 0x1A26 JUMP JUMPDEST SWAP1 POP SWAP3 POP SWAP3 SWAP1 POP JUMP JUMPDEST PUSH1 0x0 DUP1 PUSH1 0x40 DUP4 DUP6 SUB SLT ISZERO PUSH2 0x1A83 JUMPI PUSH1 0x0 DUP1 REVERT JUMPDEST DUP3 CALLDATALOAD PUSH2 0x1A8E DUP2 PUSH2 0x1887 JUMP JUMPDEST SWAP2 POP PUSH1 0x20 DUP4 ADD CALLDATALOAD PUSH2 0x1A9E DUP2 PUSH2 0x1887 JUMP JUMPDEST DUP1 SWAP2 POP POP SWAP3 POP SWAP3 SWAP1 POP JUMP JUMPDEST PUSH1 0x1 DUP2 DUP2 SHR SWAP1 DUP3 AND DUP1 PUSH2 0x1ABD JUMPI PUSH1 0x7F DUP3 AND SWAP2 POP JUMPDEST PUSH1 0x20 DUP3 LT DUP2 SUB PUSH2 0x1ADD JUMPI PUSH4 0x4E487B71 PUSH1 0xE0 SHL PUSH1 0x0 MSTORE PUSH1 0x22 PUSH1 0x4 MSTORE PUSH1 0x24 PUSH1 0x0 REVERT JUMPDEST POP SWAP2 SWAP1 POP JUMP JUMPDEST PUSH1 0x20 DUP1 DUP3 MSTORE DUP2 DUP2 ADD MSTORE PUSH32 0x4F776E61626C653A2063616C6C6572206973206E6F7420746865206F776E6572 PUSH1 0x40 DUP3 ADD MSTORE PUSH1 0x60 ADD SWAP1 JUMP JUMPDEST PUSH4 0x4E487B71 PUSH1 0xE0 SHL PUSH1 0x0 MSTORE PUSH1 0x11 PUSH1 0x4 MSTORE PUSH1 0x24 PUSH1 0x0 REVERT JUMPDEST DUP2 DUP2 SUB DUP2 DUP2 GT ISZERO PUSH2 0x580 JUMPI PUSH2 0x580 PUSH2 0x1B18 JUMP JUMPDEST DUP1 DUP3 ADD DUP1 DUP3 GT ISZERO PUSH2 0x580 JUMPI PUSH2 0x580 PUSH2 0x1B18 JUMP JUMPDEST PUSH1 0x1 DUP2 DUP2 JUMPDEST DUP1 DUP6 GT ISZERO PUSH2 0x1B8F JUMPI DUP2 PUSH1 0x0 NOT DIV DUP3 GT ISZERO PUSH2 0x1B75 JUMPI PUSH2 0x1B75 PUSH2 0x1B18 JUMP JUMPDEST DUP1 DUP6 AND ISZERO PUSH2 0x1B82 JUMPI SWAP2 DUP2 MUL SWAP2 JUMPDEST SWAP4 DUP5 SHR SWAP4 SWAP1 DUP1 MUL SWAP1 PUSH2 0x1B59 JUMP JUMPDEST POP SWAP3 POP SWAP3 SWAP1 POP JUMP JUMPDEST PUSH1 0x0 DUP3 PUSH2 0x1BA6 JUMPI POP PUSH1 0x1 PUSH2 0x580 JUMP JUMPDEST DUP2 PUSH2 0x1BB3 JUMPI POP PUSH1 0x0 PUSH2 0x580 JUMP JUMPDEST DUP2 PUSH1 0x1 DUP2 EQ PUSH2 0x1BC9 JUMPI PUSH1 0x2 DUP2 EQ PUSH2 0x1BD3 JUMPI PUSH2 0x1BEF JUMP JUMPDEST PUSH1 0x1 SWAP2 POP POP PUSH2 0x580 JUMP JUMPDEST PUSH1 0xFF DUP5 GT ISZERO PUSH2 0x1BE4 JUMPI PUSH2 0x1BE4 PUSH2 0x1B18 JUMP JUMPDEST POP POP PUSH1 0x1 DUP3 SHL PUSH2 0x580 JUMP JUMPDEST POP PUSH1 0x20 DUP4 LT PUSH2 0x133 DUP4 LT AND PUSH1 0x4E DUP5 LT PUSH1 0xB DUP5 LT AND OR ISZERO PUSH2 0x1C12 JUMPI POP DUP2 DUP2 EXP PUSH2 0x580 JUMP JUMPDEST PUSH2 0x1C1C DUP4 DUP4 PUSH2 0x1B54 JUMP JUMPDEST DUP1 PUSH1 0x0 NOT DIV DUP3 GT ISZERO PUSH2 0x1C30 JUMPI PUSH2 0x1C30 PUSH2 0x1B18 JUMP JUMPDEST MUL SWAP4 SWAP3 POP POP POP JUMP JUMPDEST PUSH1 0x0 PUSH2 0x1098 PUSH1 0xFF DUP5 AND DUP4 PUSH2 0x1B97 JUMP JUMPDEST DUP1 DUP3 MUL DUP2 ISZERO DUP3 DUP3 DIV DUP5 EQ OR PUSH2 0x580 JUMPI PUSH2 0x580 PUSH2 0x1B18 JUMP JUMPDEST PUSH4 0x4E487B71 PUSH1 0xE0 SHL PUSH1 0x0 MSTORE PUSH1 0x32 PUSH1 0x4 MSTORE PUSH1 0x24 PUSH1 0x0 REVERT JUMPDEST PUSH1 0x0 PUSH1 0x20 DUP3 DUP5 SUB SLT ISZERO PUSH2 0x1C86 JUMPI PUSH1 0x0 DUP1 REVERT JUMPDEST PUSH2 0x1098 DUP3 PUSH2 0x1A26 JUMP JUMPDEST PUSH1 0x0 PUSH1 0x1 DUP3 ADD PUSH2 0x1CA1 JUMPI PUSH2 0x1CA1 PUSH2 0x1B18 JUMP JUMPDEST POP PUSH1 0x1 ADD SWAP1 JUMP JUMPDEST PUSH1 0x20 DUP1 DUP3 MSTORE PUSH1 0x25 SWAP1 DUP3 ADD MSTORE PUSH32 0x45787A6F3A20596F752063616E2774206578636C756465207A65726F20616464 PUSH1 0x40 DUP3 ADD MSTORE PUSH5 0x7265737321 PUSH1 0xD8 SHL PUSH1 0x60 DUP3 ADD MSTORE PUSH1 0x80 ADD SWAP1 JUMP JUMPDEST PUSH1 0x0 DUP3 PUSH2 0x1D0A JUMPI PUSH4 0x4E487B71 PUSH1 0xE0 SHL PUSH1 0x0 MSTORE PUSH1 0x12 PUSH1 0x4 MSTORE PUSH1 0x24 PUSH1 0x0 REVERT JUMPDEST POP DIV SWAP1 JUMP INVALID 0xDD CALLCODE MSTORE 0xAD SHL 0xE2 0xC8 SWAP12 PUSH10 0xC2B068FC378DAA952BA7 CALL PUSH4 0xC4A11628 CREATE2 GAS 0x4D CREATE2 0x23 0xB3 0xEF LOG2 PUSH5 0x6970667358 0x22 SLT KECCAK256 PUSH10 0x70598E956BDAB63B91E 0xC9 0xB2 0x27 DUP4 0x4B MOD PUSH7 0xB9B715781EF6FC 0x2B 0xB3 0x25 EXP 0xF6 0xA8 CODESIZE PUSH5 0x736F6C6343 STOP ADDMOD SLT STOP CALLER "
				},
				"gasEstimates": {
					"creation": {
						"codeDepositCost": "1505000",
						"executionCost": "infinite",
						"totalCost": "infinite"
					},
					"external": {
						"ExcludeOrIncludeFromFee(address,bool)": "26982",
						"MaxSupply()": "2340",
						"SetAutomaticMarketMaker(address,bool)": "27004",
						"_burn(uint256)": "infinite",
						"_burnFee()": "2362",
						"_donationFee()": "2427",
						"_liquidityFee()": "2384",
						"_maxTxAmount()": "2363",
						"_mint(address,uint256)": "infinite",
						"addToBlacklist(address[],bool[])": "infinite",
						"allowance(address,address)": "infinite",
						"approve(address,uint256)": "24672",
						"balanceOf(address)": "2642",
						"decimals()": "2401",
						"decreaseAllowance(address,uint256)": "27027",
						"donationWallet()": "2425",
						"increaseAllowance(address,uint256)": "infinite",
						"isAutomaticMarketMaker(address)": "2611",
						"isBlackListed(address)": "2591",
						"isExcludedFromFee(address)": "2588",
						"name()": "infinite",
						"owner()": "2421",
						"renounceOwnership()": "30211",
						"setDonationWallet(address)": "26772",
						"setMaxTxPercentage(uint256)": "infinite",
						"symbol()": "infinite",
						"totalSupply()": "2394",
						"transfer(address,uint256)": "infinite",
						"transferFrom(address,address,uint256)": "infinite",
						"transferOwnership(address)": "30504",
						"uniswapV2Pair()": "2427",
						"uniswapV2Router()": "2428",
						"updateFees(uint256,uint256,uint256)": "infinite"
					},
					"internal": {
						"_approve(address,address,uint256)": "infinite",
						"_beforeTokenTransfer(address,address,uint256)": "infinite",
						"_transfer(address,address,uint256)": "infinite"
					}
				},
				"methodIdentifiers": {
					"ExcludeOrIncludeFromFee(address,bool)": "c3736882",
					"MaxSupply()": "b36c1284",
					"SetAutomaticMarketMaker(address,bool)": "c676af83",
					"_burn(uint256)": "9b1f9e74",
					"_burnFee()": "c0b0fda2",
					"_donationFee()": "faf38f62",
					"_liquidityFee()": "6bc87c3a",
					"_maxTxAmount()": "7d1db4a5",
					"_mint(address,uint256)": "4e6ec247",
					"addToBlacklist(address[],bool[])": "afc82bd9",
					"allowance(address,address)": "dd62ed3e",
					"approve(address,uint256)": "095ea7b3",
					"balanceOf(address)": "70a08231",
					"decimals()": "313ce567",
					"decreaseAllowance(address,uint256)": "a457c2d7",
					"donationWallet()": "e7b94df4",
					"increaseAllowance(address,uint256)": "39509351",
					"isAutomaticMarketMaker(address)": "3979e9ca",
					"isBlackListed(address)": "e47d6060",
					"isExcludedFromFee(address)": "5342acb4",
					"name()": "06fdde03",
					"owner()": "8da5cb5b",
					"renounceOwnership()": "715018a6",
					"setDonationWallet(address)": "5a96cdd7",
					"setMaxTxPercentage(uint256)": "28141d5b",
					"symbol()": "95d89b41",
					"totalSupply()": "18160ddd",
					"transfer(address,uint256)": "a9059cbb",
					"transferFrom(address,address,uint256)": "23b872dd",
					"transferOwnership(address)": "f2fde38b",
					"uniswapV2Pair()": "49bd5a5e",
					"uniswapV2Router()": "1694505e",
					"updateFees(uint256,uint256,uint256)": "22429085"
				}
			},
			"storageLayout": {
				"storage": [
					{
						"astId": 318,
						"contract": "Wrapped-tokens/WXZO.sol:EXZO",
						"label": "_owner",
						"offset": 0,
						"slot": "0",
						"type": "t_address"
					},
					{
						"astId": 320,
						"contract": "Wrapped-tokens/WXZO.sol:EXZO",
						"label": "_previousOwner",
						"offset": 0,
						"slot": "1",
						"type": "t_address"
					},
					{
						"astId": 322,
						"contract": "Wrapped-tokens/WXZO.sol:EXZO",
						"label": "_lockTime",
						"offset": 0,
						"slot": "2",
						"type": "t_uint256"
					},
					{
						"astId": 1115,
						"contract": "Wrapped-tokens/WXZO.sol:EXZO",
						"label": "_balances",
						"offset": 0,
						"slot": "3",
						"type": "t_mapping(t_address,t_uint256)"
					},
					{
						"astId": 1121,
						"contract": "Wrapped-tokens/WXZO.sol:EXZO",
						"label": "_allowances",
						"offset": 0,
						"slot": "4",
						"type": "t_mapping(t_address,t_mapping(t_address,t_uint256))"
					},
					{
						"astId": 1125,
						"contract": "Wrapped-tokens/WXZO.sol:EXZO",
						"label": "_isExcludedFromFee",
						"offset": 0,
						"slot": "5",
						"type": "t_mapping(t_address,t_bool)"
					},
					{
						"astId": 1129,
						"contract": "Wrapped-tokens/WXZO.sol:EXZO",
						"label": "_isAutomaticMarketMaker",
						"offset": 0,
						"slot": "6",
						"type": "t_mapping(t_address,t_bool)"
					},
					{
						"astId": 1133,
						"contract": "Wrapped-tokens/WXZO.sol:EXZO",
						"label": "isBlackListed",
						"offset": 0,
						"slot": "7",
						"type": "t_mapping(t_address,t_bool)"
					},
					{
						"astId": 1139,
						"contract": "Wrapped-tokens/WXZO.sol:EXZO",
						"label": "donationWallet",
						"offset": 0,
						"slot": "8",
						"type": "t_address_payable"
					},
					{
						"astId": 1141,
						"contract": "Wrapped-tokens/WXZO.sol:EXZO",
						"label": "MaxSupply",
						"offset": 0,
						"slot": "9",
						"type": "t_uint256"
					},
					{
						"astId": 1143,
						"contract": "Wrapped-tokens/WXZO.sol:EXZO",
						"label": "_totalSupply",
						"offset": 0,
						"slot": "10",
						"type": "t_uint256"
					},
					{
						"astId": 1145,
						"contract": "Wrapped-tokens/WXZO.sol:EXZO",
						"label": "_name",
						"offset": 0,
						"slot": "11",
						"type": "t_string_storage"
					},
					{
						"astId": 1147,
						"contract": "Wrapped-tokens/WXZO.sol:EXZO",
						"label": "_symbol",
						"offset": 0,
						"slot": "12",
						"type": "t_string_storage"
					},
					{
						"astId": 1149,
						"contract": "Wrapped-tokens/WXZO.sol:EXZO",
						"label": "_decimals",
						"offset": 0,
						"slot": "13",
						"type": "t_uint8"
					},
					{
						"astId": 1152,
						"contract": "Wrapped-tokens/WXZO.sol:EXZO",
						"label": "_liquidityFee",
						"offset": 0,
						"slot": "14",
						"type": "t_uint256"
					},
					{
						"astId": 1155,
						"contract": "Wrapped-tokens/WXZO.sol:EXZO",
						"label": "_donationFee",
						"offset": 0,
						"slot": "15",
						"type": "t_uint256"
					},
					{
						"astId": 1158,
						"contract": "Wrapped-tokens/WXZO.sol:EXZO",
						"label": "_burnFee",
						"offset": 0,
						"slot": "16",
						"type": "t_uint256"
					},
					{
						"astId": 1162,
						"contract": "Wrapped-tokens/WXZO.sol:EXZO",
						"label": "uniswapV2Router",
						"offset": 0,
						"slot": "17",
						"type": "t_contract(IUniswapV2Router02)1100"
					},
					{
						"astId": 1164,
						"contract": "Wrapped-tokens/WXZO.sol:EXZO",
						"label": "uniswapV2Pair",
						"offset": 0,
						"slot": "18",
						"type": "t_address"
					},
					{
						"astId": 1175,
						"contract": "Wrapped-tokens/WXZO.sol:EXZO",
						"label": "_maxTxAmount",
						"offset": 0,
						"slot": "19",
						"type": "t_uint256"
					}
				],
				"types": {
					"t_address": {
						"encoding": "inplace",
						"label": "address",
						"numberOfBytes": "20"
					},
					"t_address_payable": {
						"encoding": "inplace",
						"label": "address payable",
						"numberOfBytes": "20"
					},
					"t_bool": {
						"encoding": "inplace",
						"label": "bool",
						"numberOfBytes": "1"
					},
					"t_contract(IUniswapV2Router02)1100": {
						"encoding": "inplace",
						"label": "contract IUniswapV2Router02",
						"numberOfBytes": "20"
					},
					"t_mapping(t_address,t_bool)": {
						"encoding": "mapping",
						"key": "t_address",
						"label": "mapping(address => bool)",
						"numberOfBytes": "32",
						"value": "t_bool"
					},
					"t_mapping(t_address,t_mapping(t_address,t_uint256))": {
						"encoding": "mapping",
						"key": "t_address",
						"label": "mapping(address => mapping(address => uint256))",
						"numberOfBytes": "32",
						"value": "t_mapping(t_address,t_uint256)"
					},
					"t_mapping(t_address,t_uint256)": {
						"encoding": "mapping",
						"key": "t_address",
						"label": "mapping(address => uint256)",
						"numberOfBytes": "32",
						"value": "t_uint256"
					},
					"t_string_storage": {
						"encoding": "bytes",
						"label": "string",
						"numberOfBytes": "32"
					},
					"t_uint256": {
						"encoding": "inplace",
						"label": "uint256",
						"numberOfBytes": "32"
					},
					"t_uint8": {
						"encoding": "inplace",
						"label": "uint8",
						"numberOfBytes": "1"
					}
				}
			},
			"userdoc": {
				"kind": "user",
				"methods": {},
				"version": 1
			}
		}
	}
}